{
  "contractName": "GuildBank",
  "abi": [
    {
      "inputs": [
        {
          "internalType": "address",
          "name": "approvedTokenAddress",
          "type": "address"
        },
        {
          "internalType": "address",
          "name": "_rTokenAddress",
          "type": "address"
        }
      ],
      "payable": false,
      "stateMutability": "nonpayable",
      "type": "constructor"
    },
    {
      "anonymous": false,
      "inputs": [
        {
          "indexed": true,
          "internalType": "address",
          "name": "previousOwner",
          "type": "address"
        },
        {
          "indexed": true,
          "internalType": "address",
          "name": "newOwner",
          "type": "address"
        }
      ],
      "name": "OwnershipTransferred",
      "type": "event"
    },
    {
      "anonymous": false,
      "inputs": [
        {
          "indexed": true,
          "internalType": "address",
          "name": "receiver",
          "type": "address"
        },
        {
          "indexed": false,
          "internalType": "uint256",
          "name": "amount",
          "type": "uint256"
        }
      ],
      "name": "Withdrawal",
      "type": "event"
    },
    {
      "constant": true,
      "inputs": [],
      "name": "approvedToken",
      "outputs": [
        {
          "internalType": "contract IERC20",
          "name": "",
          "type": "address"
        }
      ],
      "payable": false,
      "stateMutability": "view",
      "type": "function"
    },
    {
      "constant": false,
      "inputs": [
        {
          "internalType": "address",
          "name": "sender",
          "type": "address"
        }
      ],
      "name": "initialize",
      "outputs": [],
      "payable": false,
      "stateMutability": "nonpayable",
      "type": "function"
    },
    {
      "constant": true,
      "inputs": [],
      "name": "isOwner",
      "outputs": [
        {
          "internalType": "bool",
          "name": "",
          "type": "bool"
        }
      ],
      "payable": false,
      "stateMutability": "view",
      "type": "function"
    },
    {
      "constant": true,
      "inputs": [],
      "name": "owner",
      "outputs": [
        {
          "internalType": "address",
          "name": "",
          "type": "address"
        }
      ],
      "payable": false,
      "stateMutability": "view",
      "type": "function"
    },
    {
      "constant": true,
      "inputs": [],
      "name": "rToken",
      "outputs": [
        {
          "internalType": "contract IRTokenOurs",
          "name": "",
          "type": "address"
        }
      ],
      "payable": false,
      "stateMutability": "view",
      "type": "function"
    },
    {
      "constant": false,
      "inputs": [],
      "name": "renounceOwnership",
      "outputs": [],
      "payable": false,
      "stateMutability": "nonpayable",
      "type": "function"
    },
    {
      "constant": false,
      "inputs": [
        {
          "internalType": "address",
          "name": "newOwner",
          "type": "address"
        }
      ],
      "name": "transferOwnership",
      "outputs": [],
      "payable": false,
      "stateMutability": "nonpayable",
      "type": "function"
    },
    {
      "constant": false,
      "inputs": [
        {
          "internalType": "address",
          "name": "_newRecipient",
          "type": "address"
        },
        {
          "internalType": "uint256",
          "name": "_totalShares",
          "type": "uint256"
        }
      ],
      "name": "updateRecipient",
      "outputs": [],
      "payable": false,
      "stateMutability": "nonpayable",
      "type": "function"
    },
    {
      "constant": false,
      "inputs": [],
      "name": "convertToInterestEarningToken",
      "outputs": [],
      "payable": false,
      "stateMutability": "nonpayable",
      "type": "function"
    },
    {
      "constant": false,
      "inputs": [
        {
          "internalType": "address",
          "name": "receiver",
          "type": "address"
        },
        {
          "internalType": "uint256",
          "name": "shares",
          "type": "uint256"
        }
      ],
      "name": "withdraw",
      "outputs": [
        {
          "internalType": "bool",
          "name": "",
          "type": "bool"
        }
      ],
      "payable": false,
      "stateMutability": "nonpayable",
      "type": "function"
    }
  ],
  "bytecode": "0x60806040523480156200001157600080fd5b5060405162000fc438038062000fc4833981810160405260408110156200003757600080fd5b508051602091820151606680546001600160a01b0319166001600160a01b03841617905590916200007390339062000129811b6200069317901c565b606780546001600160a01b0319166001600160a01b03838116918217928390556040805163095ea7b360e01b8152600481019390935260001960248401525192169163095ea7b3916044808201926020929091908290030181600087803b158015620000de57600080fd5b505af1158015620000f3573d6000803e3d6000fd5b505050506040513d60208110156200010a57600080fd5b50620001219050306001600160e01b036200022c16565b5050620003da565b600054610100900460ff16806200014e57506200014e6001600160e01b03620003d416565b806200015d575060005460ff16155b6200019a5760405162461bcd60e51b815260040180806020018281038252602e81526020018062000f96602e913960400191505060405180910390fd5b600054610100900460ff16158015620001c6576000805460ff1961ff0019909116610100171660011790555b603380546001600160a01b0319166001600160a01b0384811691909117918290556040519116906000907f8be0079c531659141344cd1fd0a4f28419497f9722a3daafe3b4186f6b6457e0908290a3801562000228576000805461ff00191690555b5050565b6040805160018082528183019092526060916020808301908038833901905050905081816000815181106200025d57fe5b6001600160a01b0390921660209283029190910190910152604080516001808252818301909252606091816020016020820280388339019050509050600181600081518110620002a957fe5b63ffffffff909216602092830291909101820152606754604051635cde505560e01b815260016044820181905260606004830190815286516064840152865191946001600160a01b0390941693635cde505593889388938893909283926024820192608490920191888101910280838360005b83811015620003365781810151838201526020016200031c565b50505050905001838103825285818151815260200191508051906020019060200280838360005b83811015620003775781810151838201526020016200035d565b5050505090500195505050505050602060405180830381600087803b158015620003a057600080fd5b505af1158015620003b5573d6000803e3d6000fd5b505050506040513d6020811015620003cc57600080fd5b505050505050565b303b1590565b610bac80620003ea6000396000f3fe608060405234801561001057600080fd5b506004361061009e5760003560e01c80638f32d59b116100665780638f32d59b1461010d578063bab4625914610129578063c4d66de814610131578063f2fde38b14610157578063f3fef3a31461017d5761009e565b80630d171012146100a35780630efaa4de146100ad57806340c65f72146100d9578063715018a6146100fd5780638da5cb5b14610105575b600080fd5b6100ab6101a9565b005b6100ab600480360360408110156100c357600080fd5b506001600160a01b038135169060200135610452565b6100e16105af565b604080516001600160a01b039092168252519081900360200190f35b6100ab6105be565b6100e161064f565b61011561065e565b604080519115158252519081900360200190f35b6100e1610684565b6100ab6004803603602081101561014757600080fd5b50356001600160a01b0316610693565b6100ab6004803603602081101561016d57600080fd5b50356001600160a01b0316610785565b6101156004803603604081101561019357600080fd5b506001600160a01b0381351690602001356107d8565b606654604080516370a0823160e01b815230600482015290516000926001600160a01b0316916370a08231916024808301926020929190829003018186803b1580156101f457600080fd5b505afa158015610208573d6000803e3d6000fd5b505050506040513d602081101561021e57600080fd5b5051606754604080516302a5580d60e11b815230600482015290519293506000926001600160a01b039092169163054ab01a916024808201928692909190829003018186803b15801561027057600080fd5b505afa158015610284573d6000803e3d6000fd5b505050506040513d6000823e601f3d908101601f1916820160405260608110156102ad57600080fd5b8151602083018051604051929492938301929190846401000000008211156102d457600080fd5b9083019060208201858111156102e957600080fd5b825186602082028301116401000000008211171561030657600080fd5b82525081516020918201928201910280838360005b8381101561033357818101518382015260200161031b565b505050509050016040526020018051604051939291908464010000000082111561035c57600080fd5b90830190602082018581111561037157600080fd5b825186602082028301116401000000008211171561038e57600080fd5b82525081516020918201928201910280838360005b838110156103bb5781810151838201526020016103a3565b50505050919091016040818152606754630e2302e360e21b8352600483018c9052602483018a905290519899506001600160a01b03169763388c0b8c9750604480830197506020965090945090849003019150829050600087803b15801561042257600080fd5b505af1158015610436573d6000803e3d6000fd5b505050506040513d602081101561044c57600080fd5b50505050565b61045a61065e565b610499576040805162461bcd60e51b81526020600482018190526024820152600080516020610b2a833981519152604482015290519081900360640190fd5b6104a2826108eb565b606754604080516370a0823160e01b815230600482015290516000926001600160a01b0316916370a08231916024808301926020929190829003018186803b1580156104ed57600080fd5b505afa158015610501573d6000803e3d6000fd5b505050506040513d602081101561051757600080fd5b50519050818111156105aa576067546040805163a9059cbb60e01b81526001600160a01b0386811660048301528486036024830181905292519293169163a9059cbb916044808201926020929091908290030181600087803b15801561057c57600080fd5b505af1158015610590573d6000803e3d6000fd5b505050506040513d60208110156105a657600080fd5b5050505b505050565b6067546001600160a01b031681565b6105c661065e565b610605576040805162461bcd60e51b81526020600482018190526024820152600080516020610b2a833981519152604482015290519081900360640190fd5b6033546040516000916001600160a01b0316907f8be0079c531659141344cd1fd0a4f28419497f9722a3daafe3b4186f6b6457e0908390a3603380546001600160a01b0319169055565b6033546001600160a01b031690565b6033546000906001600160a01b0316610675610a58565b6001600160a01b031614905090565b6066546001600160a01b031681565b600054610100900460ff16806106ac57506106ac610a5c565b806106ba575060005460ff16155b6106f55760405162461bcd60e51b815260040180806020018281038252602e815260200180610b4a602e913960400191505060405180910390fd5b600054610100900460ff16158015610720576000805460ff1961ff0019909116610100171660011790555b603380546001600160a01b0319166001600160a01b0384811691909117918290556040519116906000907f8be0079c531659141344cd1fd0a4f28419497f9722a3daafe3b4186f6b6457e0908290a38015610781576000805461ff00191690555b5050565b61078d61065e565b6107cc576040805162461bcd60e51b81526020600482018190526024820152600080516020610b2a833981519152604482015290519081900360640190fd5b6107d581610a62565b50565b60006107e261065e565b610821576040805162461bcd60e51b81526020600482018190526024820152600080516020610b2a833981519152604482015290519081900360640190fd5b60408051838152905183916001600160a01b038616917f7fcf532c15f0a6db0bd6d0e038bea71d30d808c7d98cb3bf7268a95bf5081b659181900360200190a26067546040805163d271be3f60e01b81526001600160a01b038781166004830152602482018790529151919092169163d271be3f9160448083019260209291908290030181600087803b1580156108b757600080fd5b505af11580156108cb573d6000803e3d6000fd5b505050506040513d60208110156108e157600080fd5b5051949350505050565b60408051600180825281830190925260609160208083019080388339019050509050818160008151811061091b57fe5b6001600160a01b039092166020928302919091019091015260408051600180825281830190925260609181602001602082028038833901905050905060018160008151811061096657fe5b63ffffffff909216602092830291909101820152606754604051635cde505560e01b815260016044820181905260606004830190815286516064840152865191946001600160a01b0390941693635cde505593889388938893909283926024820192608490920191888101910280838360005b838110156109f15781810151838201526020016109d9565b50505050905001838103825285818151815260200191508051906020019060200280838360005b83811015610a30578181015183820152602001610a18565b5050505090500195505050505050602060405180830381600087803b15801561057c57600080fd5b3390565b303b1590565b6001600160a01b038116610aa75760405162461bcd60e51b8152600401808060200182810382526026815260200180610b046026913960400191505060405180910390fd5b6033546040516001600160a01b038084169216907f8be0079c531659141344cd1fd0a4f28419497f9722a3daafe3b4186f6b6457e090600090a3603380546001600160a01b0319166001600160a01b039290921691909117905556fe4f776e61626c653a206e6577206f776e657220697320746865207a65726f20616464726573734f776e61626c653a2063616c6c6572206973206e6f7420746865206f776e6572436f6e747261637420696e7374616e63652068617320616c7265616479206265656e20696e697469616c697a6564a265627a7a72315820d743087d85d8061639741e6832b22c576e851d958578acf5c380033f1ca7521664736f6c63430005100032436f6e747261637420696e7374616e63652068617320616c7265616479206265656e20696e697469616c697a6564",
  "source": "pragma solidity ^0.5.0;\n\nimport \"@openzeppelin/contracts-ethereum-package/contracts/ownership/Ownable.sol\";\nimport \"@openzeppelin/contracts-ethereum-package/contracts/token/ERC20/IERC20.sol\";\nimport \"@openzeppelin/contracts-ethereum-package/contracts/math/SafeMath.sol\";\nimport \"./IRTokenOurs.sol\";\n\ncontract GuildBank is Ownable {\n    using SafeMath for uint256;\n\n    IERC20 public approvedToken; // approved token contract reference\n    IRTokenOurs public rToken;\n\n    event Withdrawal(address indexed receiver, uint256 amount);\n\n    constructor(address approvedTokenAddress, address _rTokenAddress) public {\n        // TODO -- pass rToken address as a constructor arguemet\n        // and lookup token() value to get approvedTokenAddress\n        approvedToken = IERC20(approvedTokenAddress);\n        Ownable.initialize(msg.sender);\n\n        rToken = IRTokenOurs(_rTokenAddress);\n\n        // Approve rDAI contract to spend our Dai\n        rToken.approve(_rTokenAddress, uint256(-1));\n\n        // Set hat to point to this contract\n        changeHat(address(this));\n    }\n\n    function updateRecipient(address _newRecipient, uint256 _totalShares) public onlyOwner {\n        // Create new hat and assign it to this contract\n        // This causes previous interest to be paid out to the previous recipient\n        changeHat(_newRecipient);\n\n        // If previous recipient was this contract, send extra interest to new recipient\n        uint256 _rDaiBalance = rToken.balanceOf(address(this));\n        if (_rDaiBalance > _totalShares) {\n          uint256 _surplus = _totalShares - _rDaiBalance;\n          rToken.transfer(_newRecipient, _surplus);\n        }\n    }\n\n    function changeHat(address _newRecipient) internal {\n        address[] memory _recipients = new address[](1);\n        _recipients[0] = _newRecipient;\n        uint32[] memory _proportions = new uint32[](1);\n        _proportions[0] = 1;\n        bool doChangeHat = true;\n        rToken.createHat(_recipients, _proportions, doChangeHat);\n    }\n\n    function convertToInterestEarningToken() public {\n      // Check balance of Dai\n      uint256 _tokenBalance = approvedToken.balanceOf(address(this));\n      // Mint rDAI with appropriate hat settings\n      (uint256 _hatId, , ) = rToken.getHatByAddress(address(this));\n      rToken.mintWithSelectedHat(_tokenBalance, _hatId);\n    }\n\n    function withdraw(address receiver, uint256 shares) public onlyOwner returns (bool) {\n        uint256 amount = shares;\n        emit Withdrawal(receiver, amount);\n        return rToken.redeemAndTransfer(receiver, shares);\n    }\n}",
  "sourcePath": "/Users/bendi/Development/endaoment/contracts/GuildBank.sol",
  "compiler": {
    "name": "solc",
    "version": "0.5.16+commit.9c3226ce.Emscripten.clang"
  },
  "schemaVersion": "3.0.23",
  "updatedAt": "2020-02-16T09:30:40.197Z",
  "devdoc": {
    "methods": {
      "initialize(address)": {
        "details": "Initializes the contract setting the deployer as the initial owner."
      },
      "isOwner()": {
        "details": "Returns true if the caller is the current owner."
      },
      "owner()": {
        "details": "Returns the address of the current owner."
      },
      "renounceOwnership()": {
        "details": "Leaves the contract without owner. It will not be possible to call `onlyOwner` functions anymore. Can only be called by the current owner.     * > Note: Renouncing ownership will leave the contract without an owner, thereby removing any functionality that is only available to the owner."
      },
      "transferOwnership(address)": {
        "details": "Transfers ownership of the contract to a new account (`newOwner`). Can only be called by the current owner."
      }
    }
  },
  "userdoc": {
    "methods": {}
  }
}