{
  "contractName": "InterestRateModelMock",
  "abi": [
    {
      "constant": true,
      "inputs": [
        {
          "internalType": "uint256",
          "name": "cash",
          "type": "uint256"
        },
        {
          "internalType": "uint256",
          "name": "borrows",
          "type": "uint256"
        },
        {
          "internalType": "uint256",
          "name": "reserves",
          "type": "uint256"
        }
      ],
      "name": "getBorrowRate",
      "outputs": [
        {
          "internalType": "uint256",
          "name": "success",
          "type": "uint256"
        },
        {
          "internalType": "uint256",
          "name": "rate",
          "type": "uint256"
        }
      ],
      "payable": false,
      "stateMutability": "view",
      "type": "function"
    },
    {
      "constant": true,
      "inputs": [],
      "name": "isInterestRateModel",
      "outputs": [
        {
          "internalType": "bool",
          "name": "",
          "type": "bool"
        }
      ],
      "payable": false,
      "stateMutability": "view",
      "type": "function"
    }
  ],
  "bytecode": "0x608060405234801561001057600080fd5b5060fa8061001f6000396000f3fe6080604052348015600f57600080fd5b506004361060325760003560e01c806315f240531460375780632191f92a146076575b600080fd5b605d60048036036060811015604b57600080fd5b50803590602081013590604001356090565b6040805192835260208301919091528051918290030190f35b607c60c0565b604080519115158252519081900360200190f35b600080848401830160028104851160ad5764e8d4a51000915060b7565b6509184e72a00091505b50935093915050565b60019056fea265627a7a72315820395ab6cb6b7e624eee9ebb46f7917e588bf3f00800f7eec995b0beb4afe5bf4964736f6c63430005100032",
  "source": "pragma solidity ^0.5.8;\n\nimport \"../../compound/contracts/InterestRateModel.sol\";\n\ncontract InterestRateModelMock is InterestRateModel {\n\n    /**\n      * @notice Gets the current borrow interest rate based on the given asset, total cash, total borrows\n      *         and total reserves.\n      * @dev The return value should be scaled by 1e18, thus a return value of\n      *      `(true, 1000000000000)` implies an interest rate of 0.000001 or 0.0001% *per block*.\n      * @param cash The total cash of the underlying asset in the CToken\n      * @param borrows The total borrows of the underlying asset in the CToken\n      * @param reserves The total reserves of the underlying asset in the CToken\n      * @return Success or failure and the borrow interest rate per block scaled by 10e18\n      */\n    function getBorrowRate(uint cash, uint borrows, uint reserves)\n            external view returns (uint success, uint rate) {\n        uint total = cash + borrows + reserves;\n        success = 0;\n        if (borrows <= total / 2) {\n            // binge mode\n            rate = 1000000000000; /* 0.0001% *per block*. */\n        } else {\n            // austerity mode\n            rate = 10000000000000; /* 0.001% *per block*. */\n        }\n    }\n\n    function isInterestRateModel() external view returns (bool) { return true; }\n\n}\n",
  "sourcePath": "/Users/bendi/Development/endaoment/contracts/test/InterestRateModelMock.sol",
  "compiler": {
    "name": "solc",
    "version": "0.5.16+commit.9c3226ce.Emscripten.clang"
  },
  "schemaVersion": "3.0.23",
  "updatedAt": "2020-02-16T09:30:40.296Z",
  "devdoc": {
    "methods": {
      "getBorrowRate(uint256,uint256,uint256)": {
        "details": "The return value should be scaled by 1e18, thus a return value of     `(true, 1000000000000)` implies an interest rate of 0.000001 or 0.0001% *per block*.",
        "params": {
          "borrows": "The total borrows of the underlying asset in the CToken",
          "cash": "The total cash of the underlying asset in the CToken",
          "reserves": "The total reserves of the underlying asset in the CToken"
        },
        "return": "Success or failure and the borrow interest rate per block scaled by 10e18"
      }
    }
  },
  "userdoc": {
    "methods": {
      "getBorrowRate(uint256,uint256,uint256)": {
        "notice": "Gets the current borrow interest rate based on the given asset, total cash, total borrows        and total reserves."
      }
    }
  }
}