{
  "contractName": "MolochPool",
  "abi": [
    {
      "inputs": [
        {
          "internalType": "address",
          "name": "_moloch",
          "type": "address"
        }
      ],
      "payable": false,
      "stateMutability": "nonpayable",
      "type": "constructor"
    },
    {
      "anonymous": false,
      "inputs": [
        {
          "indexed": false,
          "internalType": "address",
          "name": "donor",
          "type": "address"
        },
        {
          "indexed": false,
          "internalType": "address[]",
          "name": "addedKeepers",
          "type": "address[]"
        }
      ],
      "name": "AddKeepers",
      "type": "event"
    },
    {
      "anonymous": false,
      "inputs": [
        {
          "indexed": false,
          "internalType": "address",
          "name": "donor",
          "type": "address"
        },
        {
          "indexed": false,
          "internalType": "uint256",
          "name": "sharesMinted",
          "type": "uint256"
        },
        {
          "indexed": false,
          "internalType": "uint256",
          "name": "tokensDeposited",
          "type": "uint256"
        }
      ],
      "name": "Deposit",
      "type": "event"
    },
    {
      "anonymous": false,
      "inputs": [
        {
          "indexed": false,
          "internalType": "address",
          "name": "donor",
          "type": "address"
        },
        {
          "indexed": false,
          "internalType": "uint256",
          "name": "sharesBurned",
          "type": "uint256"
        },
        {
          "indexed": false,
          "internalType": "address",
          "name": "keeper",
          "type": "address"
        }
      ],
      "name": "KeeperWithdraw",
      "type": "event"
    },
    {
      "anonymous": false,
      "inputs": [
        {
          "indexed": false,
          "internalType": "address",
          "name": "donor",
          "type": "address"
        },
        {
          "indexed": false,
          "internalType": "address[]",
          "name": "removedKeepers",
          "type": "address[]"
        }
      ],
      "name": "RemoveKeepers",
      "type": "event"
    },
    {
      "anonymous": false,
      "inputs": [
        {
          "indexed": false,
          "internalType": "uint256",
          "name": "sharesToBurn",
          "type": "uint256"
        },
        {
          "indexed": false,
          "internalType": "address",
          "name": "recipient",
          "type": "address"
        },
        {
          "indexed": false,
          "internalType": "uint256",
          "name": "totalPoolShares",
          "type": "uint256"
        }
      ],
      "name": "SharesBurned",
      "type": "event"
    },
    {
      "anonymous": false,
      "inputs": [
        {
          "indexed": false,
          "internalType": "uint256",
          "name": "sharesToMint",
          "type": "uint256"
        },
        {
          "indexed": false,
          "internalType": "address",
          "name": "recipient",
          "type": "address"
        },
        {
          "indexed": false,
          "internalType": "uint256",
          "name": "totalPoolShares",
          "type": "uint256"
        }
      ],
      "name": "SharesMinted",
      "type": "event"
    },
    {
      "anonymous": false,
      "inputs": [
        {
          "indexed": false,
          "internalType": "uint256",
          "name": "currentProposalIndex",
          "type": "uint256"
        }
      ],
      "name": "Sync",
      "type": "event"
    },
    {
      "anonymous": false,
      "inputs": [
        {
          "indexed": false,
          "internalType": "address",
          "name": "donor",
          "type": "address"
        },
        {
          "indexed": false,
          "internalType": "uint256",
          "name": "sharesBurned",
          "type": "uint256"
        }
      ],
      "name": "Withdraw",
      "type": "event"
    },
    {
      "constant": true,
      "inputs": [],
      "name": "approvedToken",
      "outputs": [
        {
          "internalType": "contract IERC20",
          "name": "",
          "type": "address"
        }
      ],
      "payable": false,
      "stateMutability": "view",
      "type": "function"
    },
    {
      "constant": true,
      "inputs": [],
      "name": "currentProposalIndex",
      "outputs": [
        {
          "internalType": "uint256",
          "name": "",
          "type": "uint256"
        }
      ],
      "payable": false,
      "stateMutability": "view",
      "type": "function"
    },
    {
      "constant": true,
      "inputs": [
        {
          "internalType": "address",
          "name": "",
          "type": "address"
        }
      ],
      "name": "donors",
      "outputs": [
        {
          "internalType": "uint256",
          "name": "shares",
          "type": "uint256"
        }
      ],
      "payable": false,
      "stateMutability": "view",
      "type": "function"
    },
    {
      "constant": true,
      "inputs": [],
      "name": "moloch",
      "outputs": [
        {
          "internalType": "contract Moloch",
          "name": "",
          "type": "address"
        }
      ],
      "payable": false,
      "stateMutability": "view",
      "type": "function"
    },
    {
      "constant": true,
      "inputs": [],
      "name": "totalPoolShares",
      "outputs": [
        {
          "internalType": "uint256",
          "name": "",
          "type": "uint256"
        }
      ],
      "payable": false,
      "stateMutability": "view",
      "type": "function"
    },
    {
      "constant": false,
      "inputs": [
        {
          "internalType": "uint256",
          "name": "initialTokens",
          "type": "uint256"
        },
        {
          "internalType": "uint256",
          "name": "initialPoolShares",
          "type": "uint256"
        }
      ],
      "name": "activate",
      "outputs": [],
      "payable": false,
      "stateMutability": "nonpayable",
      "type": "function"
    },
    {
      "constant": false,
      "inputs": [
        {
          "internalType": "uint256",
          "name": "toIndex",
          "type": "uint256"
        }
      ],
      "name": "sync",
      "outputs": [],
      "payable": false,
      "stateMutability": "nonpayable",
      "type": "function"
    },
    {
      "constant": false,
      "inputs": [
        {
          "internalType": "uint256",
          "name": "tokenAmount",
          "type": "uint256"
        }
      ],
      "name": "deposit",
      "outputs": [],
      "payable": false,
      "stateMutability": "nonpayable",
      "type": "function"
    },
    {
      "constant": false,
      "inputs": [
        {
          "internalType": "uint256",
          "name": "sharesToBurn",
          "type": "uint256"
        }
      ],
      "name": "withdraw",
      "outputs": [],
      "payable": false,
      "stateMutability": "nonpayable",
      "type": "function"
    },
    {
      "constant": false,
      "inputs": [
        {
          "internalType": "uint256",
          "name": "sharesToBurn",
          "type": "uint256"
        },
        {
          "internalType": "address",
          "name": "recipient",
          "type": "address"
        }
      ],
      "name": "keeperWithdraw",
      "outputs": [],
      "payable": false,
      "stateMutability": "nonpayable",
      "type": "function"
    },
    {
      "constant": false,
      "inputs": [
        {
          "internalType": "address[]",
          "name": "newKeepers",
          "type": "address[]"
        }
      ],
      "name": "addKeepers",
      "outputs": [],
      "payable": false,
      "stateMutability": "nonpayable",
      "type": "function"
    },
    {
      "constant": false,
      "inputs": [
        {
          "internalType": "address[]",
          "name": "keepersToRemove",
          "type": "address[]"
        }
      ],
      "name": "removeKeepers",
      "outputs": [],
      "payable": false,
      "stateMutability": "nonpayable",
      "type": "function"
    }
  ],
  "bytecode": "0x608060405260008055600060015534801561001957600080fd5b506040516118623803806118628339818101604052602081101561003c57600080fd5b5051600280546001600160a01b0319166001600160a01b0380841691909117918290556040805163bab4625960e01b81529051929091169163bab4625991600480820192602092909190829003018186803b15801561009a57600080fd5b505afa1580156100ae573d6000803e3d6000fd5b505050506040513d60208110156100c457600080fd5b5051600380546001600160a01b0319166001600160a01b039092169190911790555061176d806100f56000396000f3fe608060405234801561001057600080fd5b50600436106100b45760003560e01c8063a6418a1311610071578063a6418a13146101b1578063b1357bf9146101dd578063b6b55f25146101fa578063bab4625914610217578063ca0cdea81461021f578063ea7e9daa14610245576100b4565b80632e1a7d4d146100b9578063314a83c9146100d857806331835fb814610148578063623d9ac9146101625780636d0a67de146101865780638ea8f83c1461018e575b600080fd5b6100d6600480360360208110156100cf57600080fd5b50356102b5565b005b6100d6600480360360208110156100ee57600080fd5b81019060208101813564010000000081111561010957600080fd5b82018360208201111561011b57600080fd5b8035906020019184602083028401116401000000008311171561013d57600080fd5b5090925090506103ae565b610150610548565b60408051918252519081900360200190f35b61016a61054e565b604080516001600160a01b039092168252519081900360200190f35b61015061055d565b6100d6600480360360408110156101a457600080fd5b5080359060200135610563565b6100d6600480360360408110156101c757600080fd5b50803590602001356001600160a01b03166106f4565b6100d6600480360360208110156101f357600080fd5b5035610860565b6100d66004803603602081101561021057600080fd5b5035610c6e565b61016a610ec1565b6101506004803603602081101561023557600080fd5b50356001600160a01b0316610ed0565b6100d66004803603602081101561025b57600080fd5b81019060208101813564010000000081111561027657600080fd5b82018360208201111561028857600080fd5b803590602001918460208302840111640100000000831117156102aa57600080fd5b509092509050610ee2565b60008054116102f9576040805162461bcd60e51b81526020600482015260166024820152600080516020611719833981519152604482015290519081900360640190fd5b600354600160a01b900460ff1615610346576040805162461bcd60e51b815260206004820152601a60248201526000805160206115f5833981519152604482015290519081900360640190fd5b6003805460ff60a01b1916600160a01b179055610363338261107c565b604080513381526020810183905281517f884edad9ce6fa2440d8a54cc123490eb96d2768479d49ff9c7366125a9424364929181900390910190a1506003805460ff60a01b19169055565b60008054116103f2576040805162461bcd60e51b81526020600482015260166024820152600080516020611719833981519152604482015290519081900360640190fd5b600354600160a01b900460ff161561043f576040805162461bcd60e51b815260206004820152601a60248201526000805160206115f5833981519152604482015290519081900360640190fd5b6003805460ff60a01b1916600160a01b179055336000908152600460205260408120905b828110156104b857600182600101600086868581811061047f57fe5b602090810292909201356001600160a01b0316835250810191909152604001600020805460ff1916911515919091179055600101610463565b507f4828028875d55b3eee8f0792f7db619443d485cdf943daabb66aa69b59943d6033848460405180846001600160a01b03166001600160a01b03168152602001806020018281038252848482818152602001925060200280828437600083820152604051601f909101601f1916909201829003965090945050505050a150506003805460ff60a01b1916905550565b60015481565b6002546001600160a01b031681565b60005481565b600354600160a01b900460ff16156105b0576040805162461bcd60e51b815260206004820152601a60248201526000805160206115f5833981519152604482015290519081900360640190fd5b6003805460ff60a01b1916600160a01b17905560005415610618576040805162461bcd60e51b815260206004820152601a60248201527f4d6f6c6f6368506f6f6c3a20416c726561647920616374697665000000000000604482015290519081900360640190fd5b600354604080516323b872dd60e01b81523360048201523060248201526044810185905290516001600160a01b03909216916323b872dd916064808201926020929091908290030181600087803b15801561067257600080fd5b505af1158015610686573d6000803e3d6000fd5b505050506040513d602081101561069c57600080fd5b50516106d95760405162461bcd60e51b815260040180806020018281038252602a8152602001806116ef602a913960400191505060405180910390fd5b6106e381336112a0565b50506003805460ff60a01b19169055565b6000805411610738576040805162461bcd60e51b81526020600482015260166024820152600080516020611719833981519152604482015290519081900360640190fd5b600354600160a01b900460ff1615610785576040805162461bcd60e51b815260206004820152601a60248201526000805160206115f5833981519152604482015290519081900360640190fd5b6003805460ff60a01b1916600160a01b1790556001600160a01b038116600090815260046020908152604080832033845260010190915290205460ff166107fd5760405162461bcd60e51b81526004018080602001828103825260228152602001806116856022913960400191505060405180910390fd5b610807818361107c565b604080516001600160a01b038316815260208101849052338183015290517fe6d4ab392c714fc866267ada751d7f5b949aa6afa62a6cf2df0d89f7e3112b499181900360600190a150506003805460ff60a01b19169055565b60008054116108a4576040805162461bcd60e51b81526020600482015260166024820152600080516020611719833981519152604482015290519081900360640190fd5b600354600160a01b900460ff16156108f1576040805162461bcd60e51b815260206004820152601a60248201526000805160206115f5833981519152604482015290519081900360640190fd5b6003805460ff60a01b1916600160a01b17905560025460408051630797daf760e41b815290516001600160a01b039092169163797daf7091600480820192602092909190829003018186803b15801561094957600080fd5b505afa15801561095d573d6000803e3d6000fd5b505050506040513d602081101561097357600080fd5b50518111156109b35760405162461bcd60e51b81526004018080602001828103825260238152602001806116cc6023913960400191505060405180910390fd5b60008060008060008060008060015490505b88811015610c1e5760025460408051630ec8529d60e21b81526004810184905290516001600160a01b0390921691633b214a7491602480820192600092909190829003018186803b158015610a1957600080fd5b505afa158015610a2d573d6000803e3d6000fd5b505050506040513d6000823e601f3d908101601f191682016040526101a0811015610a5757600080fd5b815160208301516040808501516060860151608087015160a088015160c089015160e08a01516101008b01516101208c01516101408d01516101608e0180519a519c9e9b9d999c989b979a969995989497939692959194939182019284640100000000821115610ac657600080fd5b908301906020820185811115610adb57600080fd5b8251640100000000811182820188101715610af557600080fd5b82525081516020918201929091019080838360005b83811015610b22578181015183820152602001610b0a565b50505050905090810190601f168015610b4f5780820380516001836020036101000a031916815260200191505b5060405260200180519060200190929190505050909192939495969798999a9b5090919293949596979899509091929394959697509091929394959650909192939495509050809850819950829a50839b50849c50859d50869e505050505050505085610bbb57610c1e565b83158015610bc65750845b8015610bd0575082155b8015610bdc5750600087115b15610c16576000610c0883610bfc8a60005461139590919063ffffffff16565b9063ffffffff6113f716565b9050610c14818a6112a0565b505b6001016109c5565b60018190556040805182815290517f8a0df8ef054fae2c3d2d19a7b322e864870cc9fd3cb07fb9526309c596244bf49181900360200190a150506003805460ff60a01b1916905550505050505050565b6000805411610cb2576040805162461bcd60e51b81526020600482015260166024820152600080516020611719833981519152604482015290519081900360640190fd5b600354600160a01b900460ff1615610cff576040805162461bcd60e51b815260206004820152601a60248201526000805160206115f5833981519152604482015290519081900360640190fd5b6003805460ff60a01b1916600160a01b1790819055604080516370a0823160e01b81523060048201529051600092610da2926001600160a01b03909116916370a0823191602480820192602092909190829003018186803b158015610d6357600080fd5b505afa158015610d77573d6000803e3d6000fd5b505050506040513d6020811015610d8d57600080fd5b5051600054610bfc908563ffffffff61139516565b600354604080516323b872dd60e01b81523360048201523060248201526044810186905290519293506001600160a01b03909116916323b872dd916064808201926020929091908290030181600087803b158015610dff57600080fd5b505af1158015610e13573d6000803e3d6000fd5b505050506040513d6020811015610e2957600080fd5b5051610e665760405162461bcd60e51b81526004018080602001828103825260238152602001806115d26023913960400191505060405180910390fd5b610e7081336112a0565b604080513381526020810183905280820184905290517f90890809c654f11d6e72a28fa60149770a0d11ec6c92319d6ceb2bb0a4ea1a159181900360600190a150506003805460ff60a01b19169055565b6003546001600160a01b031681565b60046020526000908152604090205481565b6000805411610f26576040805162461bcd60e51b81526020600482015260166024820152600080516020611719833981519152604482015290519081900360640190fd5b600354600160a01b900460ff1615610f73576040805162461bcd60e51b815260206004820152601a60248201526000805160206115f5833981519152604482015290519081900360640190fd5b6003805460ff60a01b1916600160a01b179055336000908152600460205260408120905b82811015610fec576000826001016000868685818110610fb357fe5b602090810292909201356001600160a01b0316835250810191909152604001600020805460ff1916911515919091179055600101610f97565b507fedfff599186e5df9f7c27e1a4c7ccace9b82f62bf814d7e98b10e07b80d677ce33848460405180846001600160a01b03166001600160a01b03168152602001806020018281038252848482818152602001925060200280828437600083820152604051601f909101601f1916909201829003965090945050505050a150506003805460ff60a01b1916905550565b6001600160a01b038216600090815260046020526040902080548211156110d45760405162461bcd60e51b81526004018080602001828103825260258152602001806116a76025913960400191505060405180910390fd5b60008054600354604080516370a0823160e01b815230600482015290516111669392610bfc9288926001600160a01b03909216916370a0823191602480820192602092909190829003018186803b15801561112e57600080fd5b505afa158015611142573d6000803e3d6000fd5b505050506040513d602081101561115857600080fd5b50519063ffffffff61139516565b60005490915061117c908463ffffffff61143916565b6000558154611191908463ffffffff61143916565b82556003546040805163a9059cbb60e01b81526001600160a01b038781166004830152602482018590529151919092169163a9059cbb9160448083019260209291908290030181600087803b1580156111e957600080fd5b505af11580156111fd573d6000803e3d6000fd5b505050506040513d602081101561121357600080fd5b50516112505760405162461bcd60e51b815260040180806020018281038252602681526020018061163e6026913960400191505060405180910390fd5b600054604080518581526001600160a01b038716602082015280820192909252517e3195cc3cce6bd8cab724dba36b9fcdbd8b093db6771402b7b0ff3637f790709181900360600190a150505050565b6000546112b3908363ffffffff61147b16565b60009081556001600160a01b0382168152600460205260409020546112de908363ffffffff61147b16565b6001600160a01b038216600090815260046020526040812091909155546c0c9f2c9cd04674edea4000000010156113465760405162461bcd60e51b81526004018080602001828103825260298152602001806116156029913960400191505060405180910390fd5b600054604080518481526001600160a01b038416602082015280820192909252517fb2b3cbe033aa38e93c0eb1ceee79d790e60008cbc021b10eed86e2fa214ae6459181900360600190a15050565b6000826113a4575060006113f1565b828202828482816113b157fe5b04146113ee5760405162461bcd60e51b81526004018080602001828103825260218152602001806116646021913960400191505060405180910390fd5b90505b92915050565b60006113ee83836040518060400160405280601a81526020017f536166654d6174683a206469766973696f6e206279207a65726f0000000000008152506114d5565b60006113ee83836040518060400160405280601e81526020017f536166654d6174683a207375627472616374696f6e206f766572666c6f770000815250611577565b6000828201838110156113ee576040805162461bcd60e51b815260206004820152601b60248201527f536166654d6174683a206164646974696f6e206f766572666c6f770000000000604482015290519081900360640190fd5b600081836115615760405162461bcd60e51b81526004018080602001828103825283818151815260200191508051906020019080838360005b8381101561152657818101518382015260200161150e565b50505050905090810190601f1680156115535780820380516001836020036101000a031916815260200191505b509250505060405180910390fd5b50600083858161156d57fe5b0495945050505050565b600081848411156115c95760405162461bcd60e51b815260206004820181815283516024840152835190928392604490910191908501908083836000831561152657818101518382015260200161150e565b50505090039056fe4d6f6c6f6368506f6f6c3a204465706f736974207472616e73666572206661696c65644d6f6c6f6368506f6f6c3a205265656e7472616e742063616c6c0000000000004d6f6c6f6368506f6f6c3a204d6178206e756d626572206f66207368617265732065786365656465644d6f6c6f6368506f6f6c3a205769746864726177616c207472616e73666572206661696c6564536166654d6174683a206d756c7469706c69636174696f6e206f766572666c6f774d6f6c6f6368506f6f6c3a2053656e646572206973206e6f742061206b65657065724d6f6c6f6368506f6f6c3a204e6f7420656e6f7567682073686172657320746f206275726e4d6f6c6f6368506f6f6c3a2050726f706f73616c20696e64657820746f6f20686967684d6f6c6f6368506f6f6c3a20496e697469616c20746f6b656e73207472616e73666572206661696c65644d6f6c6f6368506f6f6c3a204e6f742061637469766500000000000000000000a265627a7a723158202f0b6116dd7482fb1566d163595e02d831bcaa635dde3fddb70d915cbcc0b0c764736f6c63430005100032",
  "source": "// Pool.sol\n// - mints a pool share when someone donates tokens\n// - syncs with Moloch proposal queue to mint shares for grantees\n// - allows donors to withdraw tokens at any time\n\npragma solidity ^0.5.0;\n\nimport \"./Moloch.sol\";\nimport \"@openzeppelin/contracts-ethereum-package/contracts/math/SafeMath.sol\";\nimport \"@openzeppelin/contracts-ethereum-package/contracts/token/ERC20/IERC20.sol\";\n\ncontract MolochPool {\n    using SafeMath for uint256;\n\n    event Sync (\n        uint256 currentProposalIndex\n    );\n\n    event Deposit (\n        address donor,\n        uint256 sharesMinted,\n        uint256 tokensDeposited\n    );\n\n    event Withdraw (\n        address donor,\n        uint256 sharesBurned\n    );\n\n    event KeeperWithdraw (\n        address donor,\n        uint256 sharesBurned,\n        address keeper\n    );\n\n    event AddKeepers (\n        address donor,\n        address[] addedKeepers\n    );\n\n    event RemoveKeepers (\n        address donor,\n        address[] removedKeepers\n    );\n\n    event SharesMinted (\n        uint256 sharesToMint,\n        address recipient,\n        uint256 totalPoolShares\n    );\n\n    event SharesBurned (\n        uint256 sharesToBurn,\n        address recipient,\n        uint256 totalPoolShares\n    );\n\n    uint256 public totalPoolShares = 0; // the total shares outstanding of the pool\n    uint256 public currentProposalIndex = 0; // the moloch proposal index that this pool has been synced to\n\n    Moloch public moloch; // moloch contract reference\n    IERC20 public approvedToken; // approved token contract reference (copied from moloch contract)\n\n    bool locked; // prevent re-entrancy\n\n    uint256 constant MAX_NUMBER_OF_SHARES = 10**30; // maximum number of shares that can be minted\n\n    struct Donor {\n        uint256 shares;\n        mapping (address => bool) keepers;\n    }\n\n    // the amount of shares each pool shareholder has\n    mapping (address => Donor) public donors;\n\n    modifier active {\n        require(totalPoolShares > 0, \"MolochPool: Not active\");\n        _;\n    }\n\n    modifier noReentrancy() {\n        require(!locked, \"MolochPool: Reentrant call\");\n        locked = true;\n        _;\n        locked = false;\n    }\n\n    constructor(address _moloch) public {\n        moloch = Moloch(_moloch);\n        approvedToken = IERC20(moloch.approvedToken());\n    }\n\n    function activate(uint256 initialTokens, uint256 initialPoolShares) public noReentrancy {\n        require(totalPoolShares == 0, \"MolochPool: Already active\");\n\n        require(\n            approvedToken.transferFrom(msg.sender, address(this), initialTokens),\n            \"MolochPool: Initial tokens transfer failed\"\n        );\n        _mintSharesForAddress(initialPoolShares, msg.sender);\n    }\n\n    // updates Pool state based on Moloch proposal queue\n    // - we only want to mint shares for grants, which are 0 tribute\n    // - mints pool shares to applicants based on sharesRequested / maxTotalSharesAtYesVote\n    // - use maxTotalSharesAtYesVote because:\n    //   - cant read shares at the time of proposal processing (womp womp)\n    //   - should be close enough if grant shares are small relative to total shares, which they should be\n    //   - protects pool contributors if many Moloch members ragequit before the proposal is processed by reducing follow on funding\n    //   - e.g. if 50% of Moloch shares ragequit after someone voted yes, the grant proposal would get 50% less follow-on from the pool\n    function sync(uint256 toIndex) public active noReentrancy {\n        require(\n            toIndex <= moloch.getProposalQueueLength(),\n            \"MolochPool: Proposal index too high\"\n        );\n\n        // declare proposal params\n        address applicant;\n        uint256 sharesRequested;\n        bool processed;\n        bool didPass;\n        bool aborted;\n        uint256 tokenTribute;\n        uint256 maxTotalSharesAtYesVote;\n\n        uint256 i = currentProposalIndex;\n\n        while (i < toIndex) {\n\n            (, applicant, , sharesRequested, , , , processed, didPass, aborted, tokenTribute, , maxTotalSharesAtYesVote) = moloch.proposalQueue(i);\n\n            if (!processed) { break; }\n\n            // passing grant proposal, mint pool shares proportionally on behalf of the applicant\n            if (!aborted && didPass && tokenTribute == 0 && sharesRequested > 0) {\n                // This can't revert:\n                //   1. maxTotalSharesAtYesVote > 0, otherwise nobody could have voted.\n                //   2. sharesRequested is <= 10**18 (see Moloch.sol:172), and\n                //      totalPoolShares <= 10**30, so multiplying them is <= 10**48 and < 2**160\n                uint256 sharesToMint = totalPoolShares.mul(sharesRequested).div(maxTotalSharesAtYesVote); // for a passing proposal, maxTotalSharesAtYesVote is > 0\n                _mintSharesForAddress(sharesToMint, applicant);\n            }\n\n            i++;\n        }\n\n        currentProposalIndex = i;\n\n        emit Sync(currentProposalIndex);\n    }\n\n    // add tokens to the pool, mint new shares proportionally\n    function deposit(uint256 tokenAmount) public active noReentrancy {\n\n        uint256 sharesToMint = totalPoolShares.mul(tokenAmount).div(approvedToken.balanceOf(address(this)));\n\n        require(\n            approvedToken.transferFrom(msg.sender, address(this), tokenAmount),\n            \"MolochPool: Deposit transfer failed\"\n        );\n\n        _mintSharesForAddress(sharesToMint, msg.sender);\n\n        emit Deposit(\n            msg.sender,\n            sharesToMint,\n            tokenAmount\n        );\n    }\n\n    // burn shares to proportionally withdraw tokens in pool\n    function withdraw(uint256 sharesToBurn) public active noReentrancy {\n        _withdraw(msg.sender, sharesToBurn);\n\n        emit Withdraw(\n            msg.sender,\n            sharesToBurn\n        );\n    }\n\n    // keeper burns shares to withdraw on behalf of the donor\n    function keeperWithdraw(uint256 sharesToBurn, address recipient) public active noReentrancy {\n        require(\n            donors[recipient].keepers[msg.sender],\n            \"MolochPool: Sender is not a keeper\"\n        );\n\n        _withdraw(recipient, sharesToBurn);\n\n        emit KeeperWithdraw(\n            recipient,\n            sharesToBurn,\n            msg.sender\n        );\n    }\n\n    function addKeepers(address[] calldata newKeepers) external active noReentrancy {\n        Donor storage donor = donors[msg.sender];\n\n        for (uint256 i = 0; i < newKeepers.length; i++) {\n            donor.keepers[newKeepers[i]] = true;\n        }\n\n        emit AddKeepers(msg.sender, newKeepers);\n    }\n\n    function removeKeepers(address[] calldata keepersToRemove) external active noReentrancy {\n        Donor storage donor = donors[msg.sender];\n\n        for (uint256 i = 0; i < keepersToRemove.length; i++) {\n            donor.keepers[keepersToRemove[i]] = false;\n        }\n\n        emit RemoveKeepers(msg.sender, keepersToRemove);\n    }\n\n    function _mintSharesForAddress(uint256 sharesToMint, address recipient) internal {\n        totalPoolShares = totalPoolShares.add(sharesToMint);\n        donors[recipient].shares = donors[recipient].shares.add(sharesToMint);\n\n        require(\n            totalPoolShares <= MAX_NUMBER_OF_SHARES,\n            \"MolochPool: Max number of shares exceeded\"\n        );\n\n        emit SharesMinted(\n            sharesToMint,\n            recipient,\n            totalPoolShares\n        );\n    }\n\n    function _withdraw(address recipient, uint256 sharesToBurn) internal {\n        Donor storage donor = donors[recipient];\n\n        require(\n            donor.shares >= sharesToBurn,\n            \"MolochPool: Not enough shares to burn\"\n        );\n\n        uint256 tokensToWithdraw = approvedToken.balanceOf(address(this)).mul(sharesToBurn).div(totalPoolShares);\n\n        totalPoolShares = totalPoolShares.sub(sharesToBurn);\n        donor.shares = donor.shares.sub(sharesToBurn);\n\n        require(\n            approvedToken.transfer(recipient, tokensToWithdraw),\n            \"MolochPool: Withdrawal transfer failed\"\n        );\n\n        emit SharesBurned(\n            sharesToBurn,\n            recipient,\n            totalPoolShares\n        );\n    }\n\n}",
  "sourcePath": "/Users/bendi/Development/endaoment/contracts/Pool.sol",
  "compiler": {
    "name": "solc",
    "version": "0.5.16+commit.9c3226ce.Emscripten.clang"
  },
  "schemaVersion": "3.0.23",
  "updatedAt": "2020-02-16T05:19:13.334Z",
  "devdoc": {
    "methods": {}
  },
  "userdoc": {
    "methods": {}
  }
}