{
  "contractName": "Moloch",
  "abi": [
    {
      "inputs": [
        {
          "internalType": "address",
          "name": "summoner",
          "type": "address"
        },
        {
          "internalType": "address",
          "name": "_approvedToken",
          "type": "address"
        },
        {
          "internalType": "uint256",
          "name": "_periodDuration",
          "type": "uint256"
        },
        {
          "internalType": "uint256",
          "name": "_votingPeriodLength",
          "type": "uint256"
        },
        {
          "internalType": "uint256",
          "name": "_gracePeriodLength",
          "type": "uint256"
        },
        {
          "internalType": "uint256",
          "name": "_abortWindow",
          "type": "uint256"
        },
        {
          "internalType": "uint256",
          "name": "_proposalDeposit",
          "type": "uint256"
        },
        {
          "internalType": "uint256",
          "name": "_dilutionBound",
          "type": "uint256"
        },
        {
          "internalType": "uint256",
          "name": "_processingReward",
          "type": "uint256"
        }
      ],
      "payable": false,
      "stateMutability": "nonpayable",
      "type": "constructor"
    },
    {
      "anonymous": false,
      "inputs": [
        {
          "indexed": true,
          "internalType": "uint256",
          "name": "proposalIndex",
          "type": "uint256"
        },
        {
          "indexed": false,
          "internalType": "address",
          "name": "applicantAddress",
          "type": "address"
        }
      ],
      "name": "Abort",
      "type": "event"
    },
    {
      "anonymous": false,
      "inputs": [
        {
          "indexed": true,
          "internalType": "uint256",
          "name": "proposalIndex",
          "type": "uint256"
        },
        {
          "indexed": true,
          "internalType": "address",
          "name": "applicant",
          "type": "address"
        },
        {
          "indexed": true,
          "internalType": "address",
          "name": "memberAddress",
          "type": "address"
        },
        {
          "indexed": false,
          "internalType": "uint256",
          "name": "tokenTribute",
          "type": "uint256"
        },
        {
          "indexed": false,
          "internalType": "uint256",
          "name": "sharesRequested",
          "type": "uint256"
        },
        {
          "indexed": false,
          "internalType": "bool",
          "name": "didPass",
          "type": "bool"
        }
      ],
      "name": "ProcessProposal",
      "type": "event"
    },
    {
      "anonymous": false,
      "inputs": [
        {
          "indexed": true,
          "internalType": "address",
          "name": "memberAddress",
          "type": "address"
        },
        {
          "indexed": false,
          "internalType": "uint256",
          "name": "sharesToBurn",
          "type": "uint256"
        }
      ],
      "name": "Ragequit",
      "type": "event"
    },
    {
      "anonymous": false,
      "inputs": [
        {
          "indexed": false,
          "internalType": "uint256",
          "name": "proposalIndex",
          "type": "uint256"
        },
        {
          "indexed": true,
          "internalType": "address",
          "name": "delegateKey",
          "type": "address"
        },
        {
          "indexed": true,
          "internalType": "address",
          "name": "memberAddress",
          "type": "address"
        },
        {
          "indexed": true,
          "internalType": "address",
          "name": "applicant",
          "type": "address"
        },
        {
          "indexed": false,
          "internalType": "uint256",
          "name": "tokenTribute",
          "type": "uint256"
        },
        {
          "indexed": false,
          "internalType": "uint256",
          "name": "sharesRequested",
          "type": "uint256"
        }
      ],
      "name": "SubmitProposal",
      "type": "event"
    },
    {
      "anonymous": false,
      "inputs": [
        {
          "indexed": true,
          "internalType": "uint256",
          "name": "proposalIndex",
          "type": "uint256"
        },
        {
          "indexed": true,
          "internalType": "address",
          "name": "delegateKey",
          "type": "address"
        },
        {
          "indexed": true,
          "internalType": "address",
          "name": "memberAddress",
          "type": "address"
        },
        {
          "indexed": false,
          "internalType": "uint8",
          "name": "uintVote",
          "type": "uint8"
        }
      ],
      "name": "SubmitVote",
      "type": "event"
    },
    {
      "anonymous": false,
      "inputs": [
        {
          "indexed": true,
          "internalType": "address",
          "name": "summoner",
          "type": "address"
        },
        {
          "indexed": false,
          "internalType": "uint256",
          "name": "shares",
          "type": "uint256"
        }
      ],
      "name": "SummonComplete",
      "type": "event"
    },
    {
      "anonymous": false,
      "inputs": [
        {
          "indexed": true,
          "internalType": "address",
          "name": "memberAddress",
          "type": "address"
        },
        {
          "indexed": false,
          "internalType": "address",
          "name": "newDelegateKey",
          "type": "address"
        }
      ],
      "name": "UpdateDelegateKey",
      "type": "event"
    },
    {
      "constant": true,
      "inputs": [],
      "name": "abortWindow",
      "outputs": [
        {
          "internalType": "uint256",
          "name": "",
          "type": "uint256"
        }
      ],
      "payable": false,
      "stateMutability": "view",
      "type": "function"
    },
    {
      "constant": true,
      "inputs": [],
      "name": "approvedToken",
      "outputs": [
        {
          "internalType": "contract IERC20",
          "name": "",
          "type": "address"
        }
      ],
      "payable": false,
      "stateMutability": "view",
      "type": "function"
    },
    {
      "constant": true,
      "inputs": [],
      "name": "dilutionBound",
      "outputs": [
        {
          "internalType": "uint256",
          "name": "",
          "type": "uint256"
        }
      ],
      "payable": false,
      "stateMutability": "view",
      "type": "function"
    },
    {
      "constant": true,
      "inputs": [],
      "name": "gracePeriodLength",
      "outputs": [
        {
          "internalType": "uint256",
          "name": "",
          "type": "uint256"
        }
      ],
      "payable": false,
      "stateMutability": "view",
      "type": "function"
    },
    {
      "constant": true,
      "inputs": [],
      "name": "guildBank",
      "outputs": [
        {
          "internalType": "contract GuildBank",
          "name": "",
          "type": "address"
        }
      ],
      "payable": false,
      "stateMutability": "view",
      "type": "function"
    },
    {
      "constant": true,
      "inputs": [
        {
          "internalType": "address",
          "name": "",
          "type": "address"
        }
      ],
      "name": "memberAddressByDelegateKey",
      "outputs": [
        {
          "internalType": "address",
          "name": "",
          "type": "address"
        }
      ],
      "payable": false,
      "stateMutability": "view",
      "type": "function"
    },
    {
      "constant": true,
      "inputs": [
        {
          "internalType": "address",
          "name": "",
          "type": "address"
        }
      ],
      "name": "members",
      "outputs": [
        {
          "internalType": "address",
          "name": "delegateKey",
          "type": "address"
        },
        {
          "internalType": "uint256",
          "name": "shares",
          "type": "uint256"
        },
        {
          "internalType": "bool",
          "name": "exists",
          "type": "bool"
        },
        {
          "internalType": "uint256",
          "name": "highestIndexYesVote",
          "type": "uint256"
        }
      ],
      "payable": false,
      "stateMutability": "view",
      "type": "function"
    },
    {
      "constant": true,
      "inputs": [],
      "name": "periodDuration",
      "outputs": [
        {
          "internalType": "uint256",
          "name": "",
          "type": "uint256"
        }
      ],
      "payable": false,
      "stateMutability": "view",
      "type": "function"
    },
    {
      "constant": true,
      "inputs": [],
      "name": "processingReward",
      "outputs": [
        {
          "internalType": "uint256",
          "name": "",
          "type": "uint256"
        }
      ],
      "payable": false,
      "stateMutability": "view",
      "type": "function"
    },
    {
      "constant": true,
      "inputs": [],
      "name": "proposalDeposit",
      "outputs": [
        {
          "internalType": "uint256",
          "name": "",
          "type": "uint256"
        }
      ],
      "payable": false,
      "stateMutability": "view",
      "type": "function"
    },
    {
      "constant": true,
      "inputs": [
        {
          "internalType": "uint256",
          "name": "",
          "type": "uint256"
        }
      ],
      "name": "proposalQueue",
      "outputs": [
        {
          "internalType": "address",
          "name": "proposer",
          "type": "address"
        },
        {
          "internalType": "address",
          "name": "applicant",
          "type": "address"
        },
        {
          "internalType": "bool",
          "name": "isRecipientProposal",
          "type": "bool"
        },
        {
          "internalType": "uint256",
          "name": "sharesRequested",
          "type": "uint256"
        },
        {
          "internalType": "uint256",
          "name": "startingPeriod",
          "type": "uint256"
        },
        {
          "internalType": "uint256",
          "name": "yesVotes",
          "type": "uint256"
        },
        {
          "internalType": "uint256",
          "name": "noVotes",
          "type": "uint256"
        },
        {
          "internalType": "bool",
          "name": "processed",
          "type": "bool"
        },
        {
          "internalType": "bool",
          "name": "didPass",
          "type": "bool"
        },
        {
          "internalType": "bool",
          "name": "aborted",
          "type": "bool"
        },
        {
          "internalType": "uint256",
          "name": "tokenTribute",
          "type": "uint256"
        },
        {
          "internalType": "string",
          "name": "details",
          "type": "string"
        },
        {
          "internalType": "uint256",
          "name": "maxTotalSharesAtYesVote",
          "type": "uint256"
        }
      ],
      "payable": false,
      "stateMutability": "view",
      "type": "function"
    },
    {
      "constant": true,
      "inputs": [],
      "name": "recipient",
      "outputs": [
        {
          "internalType": "address",
          "name": "",
          "type": "address"
        }
      ],
      "payable": false,
      "stateMutability": "view",
      "type": "function"
    },
    {
      "constant": true,
      "inputs": [],
      "name": "summoningTime",
      "outputs": [
        {
          "internalType": "uint256",
          "name": "",
          "type": "uint256"
        }
      ],
      "payable": false,
      "stateMutability": "view",
      "type": "function"
    },
    {
      "constant": true,
      "inputs": [],
      "name": "totalShares",
      "outputs": [
        {
          "internalType": "uint256",
          "name": "",
          "type": "uint256"
        }
      ],
      "payable": false,
      "stateMutability": "view",
      "type": "function"
    },
    {
      "constant": true,
      "inputs": [],
      "name": "totalSharesRequested",
      "outputs": [
        {
          "internalType": "uint256",
          "name": "",
          "type": "uint256"
        }
      ],
      "payable": false,
      "stateMutability": "view",
      "type": "function"
    },
    {
      "constant": true,
      "inputs": [],
      "name": "votingPeriodLength",
      "outputs": [
        {
          "internalType": "uint256",
          "name": "",
          "type": "uint256"
        }
      ],
      "payable": false,
      "stateMutability": "view",
      "type": "function"
    },
    {
      "constant": false,
      "inputs": [
        {
          "internalType": "address",
          "name": "applicant",
          "type": "address"
        },
        {
          "internalType": "uint256",
          "name": "tokenTribute",
          "type": "uint256"
        },
        {
          "internalType": "uint256",
          "name": "sharesRequested",
          "type": "uint256"
        },
        {
          "internalType": "string",
          "name": "details",
          "type": "string"
        }
      ],
      "name": "submitProposal",
      "outputs": [],
      "payable": false,
      "stateMutability": "nonpayable",
      "type": "function"
    },
    {
      "constant": false,
      "inputs": [
        {
          "internalType": "address",
          "name": "_recipient",
          "type": "address"
        },
        {
          "internalType": "string",
          "name": "details",
          "type": "string"
        }
      ],
      "name": "submitRecipientProposal",
      "outputs": [],
      "payable": false,
      "stateMutability": "nonpayable",
      "type": "function"
    },
    {
      "constant": false,
      "inputs": [
        {
          "internalType": "uint256",
          "name": "proposalIndex",
          "type": "uint256"
        },
        {
          "internalType": "uint8",
          "name": "uintVote",
          "type": "uint8"
        }
      ],
      "name": "submitVote",
      "outputs": [],
      "payable": false,
      "stateMutability": "nonpayable",
      "type": "function"
    },
    {
      "constant": false,
      "inputs": [
        {
          "internalType": "uint256",
          "name": "proposalIndex",
          "type": "uint256"
        }
      ],
      "name": "processProposal",
      "outputs": [],
      "payable": false,
      "stateMutability": "nonpayable",
      "type": "function"
    },
    {
      "constant": false,
      "inputs": [
        {
          "internalType": "uint256",
          "name": "proposalIndex",
          "type": "uint256"
        }
      ],
      "name": "processRecipientProposal",
      "outputs": [],
      "payable": false,
      "stateMutability": "nonpayable",
      "type": "function"
    },
    {
      "constant": false,
      "inputs": [
        {
          "internalType": "uint256",
          "name": "sharesToBurn",
          "type": "uint256"
        }
      ],
      "name": "ragequit",
      "outputs": [],
      "payable": false,
      "stateMutability": "nonpayable",
      "type": "function"
    },
    {
      "constant": false,
      "inputs": [
        {
          "internalType": "uint256",
          "name": "proposalIndex",
          "type": "uint256"
        }
      ],
      "name": "abort",
      "outputs": [],
      "payable": false,
      "stateMutability": "nonpayable",
      "type": "function"
    },
    {
      "constant": false,
      "inputs": [
        {
          "internalType": "address",
          "name": "newDelegateKey",
          "type": "address"
        }
      ],
      "name": "updateDelegateKey",
      "outputs": [],
      "payable": false,
      "stateMutability": "nonpayable",
      "type": "function"
    },
    {
      "constant": true,
      "inputs": [],
      "name": "getCurrentPeriod",
      "outputs": [
        {
          "internalType": "uint256",
          "name": "",
          "type": "uint256"
        }
      ],
      "payable": false,
      "stateMutability": "view",
      "type": "function"
    },
    {
      "constant": true,
      "inputs": [],
      "name": "getProposalQueueLength",
      "outputs": [
        {
          "internalType": "uint256",
          "name": "",
          "type": "uint256"
        }
      ],
      "payable": false,
      "stateMutability": "view",
      "type": "function"
    },
    {
      "constant": true,
      "inputs": [
        {
          "internalType": "uint256",
          "name": "highestIndexYesVote",
          "type": "uint256"
        }
      ],
      "name": "canRagequit",
      "outputs": [
        {
          "internalType": "bool",
          "name": "",
          "type": "bool"
        }
      ],
      "payable": false,
      "stateMutability": "view",
      "type": "function"
    },
    {
      "constant": true,
      "inputs": [
        {
          "internalType": "uint256",
          "name": "startingPeriod",
          "type": "uint256"
        }
      ],
      "name": "hasVotingPeriodExpired",
      "outputs": [
        {
          "internalType": "bool",
          "name": "",
          "type": "bool"
        }
      ],
      "payable": false,
      "stateMutability": "view",
      "type": "function"
    },
    {
      "constant": true,
      "inputs": [
        {
          "internalType": "address",
          "name": "memberAddress",
          "type": "address"
        },
        {
          "internalType": "uint256",
          "name": "proposalIndex",
          "type": "uint256"
        }
      ],
      "name": "getMemberProposalVote",
      "outputs": [
        {
          "internalType": "enum Moloch.Vote",
          "name": "",
          "type": "uint8"
        }
      ],
      "payable": false,
      "stateMutability": "view",
      "type": "function"
    }
  ],
  "bytecode": "0x60806040526000600a556000600b553480156200001b57600080fd5b5060405162004ea338038062004ea383398181016040526101208110156200004257600080fd5b508051602082015160408301516060840151608085015160a086015160c087015160e0880151610100909801519697959694959394929391929091906001600160a01b038916620000c55760405162461bcd60e51b815260040180806020018281038252602a81526020018062004c6e602a913960400191505060405180910390fd5b6001600160a01b0388166200010c5760405162461bcd60e51b815260040180806020018281038252603081526020018062004e436030913960400191505060405180910390fd5b600087116200014d5760405162461bcd60e51b815260040180806020018281038252603181526020018062004e126031913960400191505060405180910390fd5b600086116200018e5760405162461bcd60e51b815260040180806020018281038252603581526020018062004ddd6035913960400191505060405180910390fd5b670de0b6b3a7640000861115620001d75760405162461bcd60e51b815260040180806020018281038252603781526020018062004c986037913960400191505060405180910390fd5b670de0b6b3a7640000851115620002205760405162461bcd60e51b815260040180806020018281038252603681526020018062004da76036913960400191505060405180910390fd5b60008411620002615760405162461bcd60e51b815260040180806020018281038252602e81526020018062004c40602e913960400191505060405180910390fd5b85841115620002a25760405162461bcd60e51b815260040180806020018281038252605781526020018062004d506057913960600191505060405180910390fd5b60008211620002e35760405162461bcd60e51b815260040180806020018281038252603081526020018062004e736030913960400191505060405180910390fd5b670de0b6b3a76400008211156200032c5760405162461bcd60e51b815260040180806020018281038252603281526020018062004d1e6032913960400191505060405180910390fd5b808310156200036d5760405162461bcd60e51b815260040180806020018281038252604f81526020018062004ccf604f913960600191505060405180910390fd5b600880546001600160a01b0319166001600160a01b038a1617905560405188906200039890620005bc565b6001600160a01b03909116815260405190819003602001906000f080158015620003c6573d6000803e3d6000fd5b50600960006101000a8154816001600160a01b0302191690836001600160a01b03160217905550600960009054906101000a90046001600160a01b0316600f60006101000a8154816001600160a01b0302191690836001600160a01b03160217905550866000819055508560018190555084600281905550836003819055508260048190555081600581905550806006819055504260078190555060405180608001604052808a6001600160a01b03168152602001600181526020016001151581526020016000815250600c60008b6001600160a01b03166001600160a01b0316815260200190815260200160002060008201518160000160006101000a8154816001600160a01b0302191690836001600160a01b031602179055506020820151816001015560408201518160020160006101000a81548160ff0219169083151502179055506060820151816003015590505088600d60008b6001600160a01b03166001600160a01b0316815260200190815260200160002060006101000a8154816001600160a01b0302191690836001600160a01b031602179055506001600a81905550886001600160a01b03167f03995a801b13c36325306deef859ef977ce61c6e15a794281bf969d20482522760016040518082815260200191505060405180910390a2505050505050505050620005ca565b610fcf8062003c7183390190565b61369780620005da6000396000f3fe608060405234801561001057600080fd5b50600436106101cf5760003560e01c8063797daf701161010457806399653fbe116100a2578063b470aade11610071578063b470aade146106a1578063bab46259146106a9578063e50701f4146106b1578063e63bc62d146106ce576101cf565b806399653fbe1461064e578063a3dc380014610674578063a42afd2914610691578063afe5475f14610699576101cf565b80638436593f116100de5780638436593f146105365780638b15a605146105535780639425a4761461055b578063962006c31461058c576101cf565b8063797daf701461051e5780637d5b6c72146105265780638340bbce1461052e576101cf565b80633b214a74116101715780636320c7f71161014b5780636320c7f7146104e957806363858f2d1461050657806366d003ac1461050e5780637896ddaf14610516576101cf565b80633b214a74146102d4578063402c1794146103f15780634b79b20714610433576101cf565b806308ae4b0c116101ad57806308ae4b0c146102465780631a396a4a1461029c5780632582bf2a146102a45780633a98ef39146102cc576101cf565b806303e32fa1146101d4578063044a0ca8146101ee578063086146d21461023e575b600080fd5b6101dc6106eb565b60408051918252519081900360200190f35b61021a6004803603604081101561020457600080fd5b506001600160a01b0381351690602001356106f1565b6040518082600281111561022a57fe5b60ff16815260200191505060405180910390f35b6101dc6107cd565b61026c6004803603602081101561025c57600080fd5b50356001600160a01b03166107fc565b604080516001600160a01b0390951685526020850193909352901515838301526060830152519081900360800190f35b6101dc610833565b6102ca600480360360208110156102ba57600080fd5b50356001600160a01b0316610839565b005b6101dc610a2a565b6102f1600480360360208110156102ea57600080fd5b5035610a30565b604051808e6001600160a01b03166001600160a01b031681526020018d6001600160a01b03166001600160a01b031681526020018c1515151581526020018b81526020018a815260200189815260200188815260200187151515158152602001861515151581526020018515151515815260200184815260200180602001838152602001828103825284818151815260200191508051906020019080838360005b838110156103aa578181015183820152602001610392565b50505050905090810190601f1680156103d75780820380516001836020036101000a031916815260200191505b509e50505050505050505050505050505060405180910390f35b6104176004803603602081101561040757600080fd5b50356001600160a01b0316610b49565b604080516001600160a01b039092168252519081900360200190f35b6102ca6004803603604081101561044957600080fd5b6001600160a01b03823516919081019060408101602082013564010000000081111561047457600080fd5b82018360208201111561048657600080fd5b803590602001918460018302840111640100000000831117156104a857600080fd5b91908080601f016020809104026020016040519081016040528093929190818152602001838380828437600092019190915250929550610b64945050505050565b6102ca600480360360208110156104ff57600080fd5b5035611052565b6101dc611504565b61041761150a565b6101dc611519565b6101dc61151f565b6101dc611525565b6101dc61152b565b6102ca6004803603602081101561054c57600080fd5b5035611531565b6101dc61173e565b6105786004803603602081101561057157600080fd5b5035611744565b604080519115158252519081900360200190f35b6102ca600480360360808110156105a257600080fd5b6001600160a01b0382351691602081013591604082013591908101906080810160608201356401000000008111156105d957600080fd5b8201836020820111156105eb57600080fd5b8035906020019184600183028401116401000000008311171561060d57600080fd5b91908080601f01602080910402602001604051908101604052809392919081815260200183838082843760009201919091525092955061176b945050505050565b6102ca6004803603604081101561066457600080fd5b508035906020013560ff16611cd8565b6105786004803603602081101561068a57600080fd5b50356120d2565b61041761213f565b6101dc61214e565b6101dc612154565b61041761215a565b6102ca600480360360208110156106c757600080fd5b5035612169565b6102ca600480360360208110156106e457600080fd5b50356123da565b60065481565b6001600160a01b0382166000908152600c602052604081206002015460ff1661074b5760405162461bcd60e51b81526004018080602001828103825260348152602001806132c46034913960400191505060405180910390fd5b600e54821061078b5760405162461bcd60e51b81526004018080602001828103825260368152602001806130356036913960400191505060405180910390fd5b600e828154811061079857fe5b600091825260208083206001600160a01b0387168452600a600b90930201919091019052604090205460ff1690505b92915050565b60006107f66000546107ea600754426129eb90919063ffffffff16565b9063ffffffff612a3416565b90505b90565b600c6020526000908152604090208054600182015460028301546003909301546001600160a01b0390921692909160ff9091169084565b600b5481565b336000908152600c60205260409020600101546108875760405162461bcd60e51b8152600401808060200182810382526021815260200180612ed46021913960400191505060405180910390fd5b6001600160a01b0381166108cc5760405162461bcd60e51b81526004018080602001828103825260368152602001806135576036913960400191505060405180910390fd5b6001600160a01b03811633146109a1576001600160a01b0381166000908152600c602052604090206002015460ff16156109375760405162461bcd60e51b815260040180806020018281038252603b815260200180612e99603b913960400191505060405180910390fd5b6001600160a01b038082166000908152600d60209081526040808320549093168252600c9052206002015460ff16156109a15760405162461bcd60e51b81526004018080602001828103825260418152602001806133ef6041913960600191505060405180910390fd5b336000818152600c6020908152604080832080546001600160a01b039081168552600d845282852080546001600160a01b031990811690915590871680865294839020805482168717905581541684178155815193845290519093927fde7b64a369e10562cc2e71f0f1f944eaf144b75fead6ecb51fac9c4dd693488592908290030190a25050565b600a5481565b600e8181548110610a3d57fe5b6000918252602091829020600b91909102018054600180830154600280850154600386015460048701546005880154600689015460078a015460088b018054604080516101009c8316158d026000190190921699909904601f81018f90048f0282018f019099528881526001600160a01b039b8c169e509a89169c600160a01b90990460ff9081169c979b969a959994988185169896850482169762010000909504909116959294929392830182828015610b395780601f10610b0e57610100808354040283529160200191610b39565b820191906000526020600020905b815481529060010190602001808311610b1c57829003601f168201915b505050505090806009015490508d565b600d602052600090815260409020546001600160a01b031681565b336000908152600d60209081526040808320546001600160a01b03168352600c909152902060010154610bc85760405162461bcd60e51b8152600401808060200182810382526025815260200180612f6f6025913960400191505060405180910390fd5b600f546001600160a01b0316610c0f5760405162461bcd60e51b815260040180806020018281038252603781526020018061362c6037913960400191505060405180910390fd5b600f546001600160a01b0383811691161415610c5c5760405162461bcd60e51b815260040180806020018281038252603d8152602001806134cd603d913960400191505060405180910390fd5b600f546001600160a01b0316301415610ca65760405162461bcd60e51b8152600401808060200182810382526043815260200180612ddf6043913960600191505060405180910390fd5b336000818152600d60209081526040808320546008546004805484516323b872dd60e01b815291820197909752306024820152604481019690965291516001600160a01b039182169592909116936323b872dd93606480850194919392918390030190829087803b158015610d1a57600080fd5b505af1158015610d2e573d6000803e3d6000fd5b505050506040513d6020811015610d4457600080fd5b5051610d815760405162461bcd60e51b815260040180806020018281038252603f815260200180612da0603f913960400191505060405180910390fd5b6000610de56001610dd9610d936107cd565b600e5415610dd157600e8054610db090600163ffffffff6129eb16565b81548110610dba57fe5b90600052602060002090600b020160030154610dd4565b60005b612a76565b9063ffffffff612a8d16565b9050610def612c3c565b604051806101a00160405280846001600160a01b03168152602001866001600160a01b031681526020016001151581526020016000815260200183815260200160008152602001600081526020016000151581526020016000151581526020016000151581526020016000815260200185815260200160008152509050600e819080600181540180825580915050906001820390600052602060002090600b02016000909192909190915060008201518160000160006101000a8154816001600160a01b0302191690836001600160a01b0316021790555060208201518160010160006101000a8154816001600160a01b0302191690836001600160a01b0316021790555060408201518160010160146101000a81548160ff021916908315150217905550606082015181600201556080820151816003015560a0820151816004015560c0820151816005015560e08201518160060160006101000a81548160ff0219169083151502179055506101008201518160060160016101000a81548160ff0219169083151502179055506101208201518160060160026101000a81548160ff0219169083151502179055506101408201518160070155610160820151816008019080519060200190610fc6929190612cbe565b50610180919091015160099091015550600e54600090610fed90600163ffffffff6129eb16565b604080518281526000602082018190528183018190529151929350909182916001600160a01b03808b16929089169133917f2d105ebbc222c190059b3979356e13469f6a29a350add74ac3bf4f22f16301d69181900360600190a45050505050505050565b600e5481106110925760405162461bcd60e51b81526004018080602001828103825260318152602001806135fb6031913960400191505060405180910390fd5b6000600e82815481106110a157fe5b90600052602060002090600b020190508060010160149054906101000a900460ff166110fe5760405162461bcd60e51b8152600401808060200182810382526049815260200180612d576049913960600191505060405180910390fd5b61111d600254610dd96001548460030154612a8d90919063ffffffff16565b6111256107cd565b10156111625760405162461bcd60e51b815260040180806020018281038252603f815260200180612fca603f913960400191505060405180910390fd5b600681015460ff16156111a65760405162461bcd60e51b815260040180806020018281038252603d8152602001806135be603d913960400191505060405180910390fd5b8115806111e35750600e6111c183600163ffffffff6129eb16565b815481106111cb57fe5b600091825260209091206006600b90920201015460ff165b61121e5760405162461bcd60e51b815260040180806020018281038252603d815260200180613231603d913960400191505060405180910390fd5b60068101805460ff1916600117905560058101546004820154118080156112505750600682015462010000900460ff16155b156112f65760068201805461ff0019166101001790556001820154600f80546001600160a01b0319166001600160a01b03928316908117909155600954600a546040805163077d526f60e11b81526004810185905260248101929092525192939190911691630efaa4de9160448082019260009290919082900301818387803b1580156112dc57600080fd5b505af11580156112f0573d6000803e3d6000fd5b50505050505b6008546006546040805163a9059cbb60e01b81523360048201526024810192909252516001600160a01b039092169163a9059cbb916044808201926020929091908290030181600087803b15801561134d57600080fd5b505af1158015611361573d6000803e3d6000fd5b505050506040513d602081101561137757600080fd5b50516113b45760405162461bcd60e51b81526004018080602001828103825260488152602001806133696048913960600191505060405180910390fd5b60085482546006546004546001600160a01b039384169363a9059cbb9316916113e3919063ffffffff6129eb16565b6040518363ffffffff1660e01b815260040180836001600160a01b03166001600160a01b0316815260200182815260200192505050602060405180830381600087803b15801561143257600080fd5b505af1158015611446573d6000803e3d6000fd5b505050506040513d602081101561145c57600080fd5b50516114995760405162461bcd60e51b81526004018080602001828103825260478152602001806131606047913960600191505060405180910390fd5b815460018301546007840154600285015460408051928352602083019190915284151582820152516001600160a01b0393841693929092169186917f3f6fc303a82367bb4947244ba21c569a5ed2e870610f1a693366142309d7cbea919081900360600190a4505050565b60025481565b600f546001600160a01b031681565b60035481565b600e5490565b60075481565b60015481565b336000908152600c602052604090206001015461157f5760405162461bcd60e51b8152600401808060200182810382526021815260200180612ed46021913960400191505060405180910390fd5b336000908152600c6020526040902060018101548211156115d15760405162461bcd60e51b815260040180806020018281038252602681526020018061350a6026913960400191505060405180910390fd5b6115de81600301546120d2565b6116195760405162461bcd60e51b815260040180806020018281038252605e8152602001806131a7605e913960600191505060405180910390fd5b600181015461162e908363ffffffff6129eb16565b6001820155600a54611646908363ffffffff6129eb16565b600a556009546040805163f3fef3a360e01b81523360048201526024810185905290516001600160a01b039092169163f3fef3a3916044808201926020929091908290030181600087803b15801561169d57600080fd5b505af11580156116b1573d6000803e3d6000fd5b505050506040513d60208110156116c757600080fd5b50516117045760405162461bcd60e51b815260040180806020018281038252603d815260200180612ef5603d913960400191505060405180910390fd5b60408051838152905133917f667cb7a1818eacd2e3a421e734429ba9c4c7dec85e578e098b6d72cd2bfbf2f6919081900360200190a25050565b60045481565b600061175b60015483612a8d90919063ffffffff16565b6117636107cd565b101592915050565b336000908152600d60209081526040808320546001600160a01b03168352600c9091529020600101546117cf5760405162461bcd60e51b8152600401808060200182810382526025815260200180612f6f6025913960400191505060405180910390fd5b6001600160a01b0384166118145760405162461bcd60e51b815260040180806020018281038252602e8152602001806130ce602e913960400191505060405180910390fd5b8282146118525760405162461bcd60e51b815260040180806020018281038252603581526020018061328f6035913960400191505060405180910390fd5b60001961187083610dd9600b54600a54612a8d90919063ffffffff16565b11156118ad5760405162461bcd60e51b81526004018080602001828103825260328152602001806133376032913960400191505060405180910390fd5b600b546118c0908363ffffffff612a8d16565b600b55336000818152600d60209081526040808320546008546004805484516323b872dd60e01b815291820197909752306024820152604481019690965291516001600160a01b039182169592909116936323b872dd93606480850194919392918390030190829087803b15801561193757600080fd5b505af115801561194b573d6000803e3d6000fd5b505050506040513d602081101561196157600080fd5b505161199e5760405162461bcd60e51b815260040180806020018281038252603f815260200180612da0603f913960400191505060405180910390fd5b600854604080516323b872dd60e01b81526001600160a01b03888116600483015230602483015260448201889052915191909216916323b872dd9160648083019260209291908290030181600087803b1580156119fa57600080fd5b505af1158015611a0e573d6000803e3d6000fd5b505050506040513d6020811015611a2457600080fd5b5051611a615760405162461bcd60e51b8152600401808060200182810382526036815260200180612f946036913960400191505060405180910390fd5b6000611a736001610dd9610d936107cd565b9050611a7d612c3c565b604051806101a00160405280846001600160a01b03168152602001886001600160a01b03168152602001600015158152602001868152602001838152602001600081526020016000815260200160001515815260200160001515815260200160001515815260200187815260200185815260200160008152509050600e819080600181540180825580915050906001820390600052602060002090600b02016000909192909190915060008201518160000160006101000a8154816001600160a01b0302191690836001600160a01b0316021790555060208201518160010160006101000a8154816001600160a01b0302191690836001600160a01b0316021790555060408201518160010160146101000a81548160ff021916908315150217905550606082015181600201556080820151816003015560a0820151816004015560c0820151816005015560e08201518160060160006101000a81548160ff0219169083151502179055506101008201518160060160016101000a81548160ff0219169083151502179055506101208201518160060160026101000a81548160ff0219169083151502179055506101408201518160070155610160820151816008019080519060200190611c52929190612cbe565b50610180919091015160099091015550600e54600090611c7990600163ffffffff6129eb16565b60408051828152602081018a905280820189905290519192506001600160a01b03808b16929087169133917f2d105ebbc222c190059b3979356e13469f6a29a350add74ac3bf4f22f16301d69181900360600190a45050505050505050565b336000908152600d60209081526040808320546001600160a01b03168352600c909152902060010154611d3c5760405162461bcd60e51b8152600401808060200182810382526025815260200180612f6f6025913960400191505060405180910390fd5b336000908152600d60209081526040808320546001600160a01b0316808452600c909252909120600e548410611da35760405162461bcd60e51b815260040180806020018281038252602c815260200180613205602c913960400191505060405180910390fd5b6000600e8581548110611db257fe5b90600052602060002090600b0201905060038460ff1610611e045760405162461bcd60e51b815260040180806020018281038252603181526020018061358d6031913960400191505060405180910390fd5b60008460ff166002811115611e1557fe5b90508160030154611e246107cd565b1015611e615760405162461bcd60e51b81526004018080602001828103825260328152602001806134306032913960400191505060405180910390fd5b611e6e8260030154611744565b15611eaa5760405162461bcd60e51b81526004018080602001828103825260378152602001806131296037913960400191505060405180910390fd5b6001600160a01b0384166000908152600a8301602052604081205460ff166002811115611ed357fe5b14611f0f5760405162461bcd60e51b815260040180806020018281038252603e8152602001806133b1603e913960400191505060405180910390fd5b6001816002811115611f1d57fe5b1480611f3457506002816002811115611f3257fe5b145b611f6f5760405162461bcd60e51b815260040180806020018281038252603281526020018061306b6032913960400191505060405180910390fd5b600682015462010000900460ff1615611fb95760405162461bcd60e51b815260040180806020018281038252602e815260200180613462602e913960400191505060405180910390fd5b6001600160a01b0384166000908152600a830160205260409020805482919060ff19166001836002811115611fea57fe5b02179055506001816002811115611ffd57fe5b1415612051576001830154600483015461201c9163ffffffff612a8d16565b6004830155600383015486111561203557600383018690555b8160090154600a54111561204c57600a5460098301555b612084565b600281600281111561205f57fe5b1415612084576001830154600583015461207e9163ffffffff612a8d16565b60058301555b6040805160ff8716815290516001600160a01b03861691339189917f29bf0061f2faa9daa482f061b116195432d435536d8af4ae6b3c5dd78223679b919081900360200190a4505050505050565b600e5460009082106121155760405162461bcd60e51b815260040180806020018281038252602d8152602001806130fc602d913960400191505060405180910390fd5b600e828154811061212257fe5b60009182526020909120600b909102016006015460ff1692915050565b6009546001600160a01b031681565b60055481565b60005481565b6008546001600160a01b031681565b600e5481106121a95760405162461bcd60e51b81526004018080602001828103825260278152602001806135306027913960400191505060405180910390fd5b6000600e82815481106121b857fe5b60009182526020909120600b9091020160018101549091506001600160a01b031633146122165760405162461bcd60e51b815260040180806020018281038252602c815260200180613009602c913960400191505060405180910390fd5b600380549082015461222d9163ffffffff612a8d16565b6122356107cd565b106122715760405162461bcd60e51b815260040180806020018281038252603181526020018061309d6031913960400191505060405180910390fd5b600681015462010000900460ff16156122bb5760405162461bcd60e51b815260040180806020018281038252603b815260200180612e5e603b913960400191505060405180910390fd5b60078101805460009182905560068301805462ff000019166201000017905560085460018401546040805163a9059cbb60e01b81526001600160a01b0392831660048201526024810185905290519394919092169263a9059cbb926044808201936020939283900390910190829087803b15801561233857600080fd5b505af115801561234c573d6000803e3d6000fd5b505050506040513d602081101561236257600080fd5b505161239f5760405162461bcd60e51b815260040180806020018281038252603f8152602001806132f8603f913960400191505060405180910390fd5b60408051338152905184917fa749dd3df92cae4d106b3eadf60c0dffd3698de09c67ce58ce6f5d02eb821313919081900360200190a2505050565b600e54811061241a5760405162461bcd60e51b81526004018080602001828103825260318152602001806135fb6031913960400191505060405180910390fd5b6000600e828154811061242957fe5b90600052602060002090600b020190508060010160149054906101000a900460ff16156124875760405162461bcd60e51b815260040180806020018281038252603d815260200180612f32603d913960400191505060405180910390fd5b6124a6600254610dd96001548460030154612a8d90919063ffffffff16565b6124ae6107cd565b10156124eb5760405162461bcd60e51b815260040180806020018281038252603f815260200180612fca603f913960400191505060405180910390fd5b600681015460ff161561252f5760405162461bcd60e51b815260040180806020018281038252603d8152602001806135be603d913960400191505060405180910390fd5b81158061256c5750600e61254a83600163ffffffff6129eb16565b8154811061255457fe5b600091825260209091206006600b90920201015460ff165b6125a75760405162461bcd60e51b815260040180806020018281038252603d815260200180613231603d913960400191505060405180910390fd5b60068101805460ff191660011790556002810154600b546125cd9163ffffffff6129eb16565b600b55600580820154600483015460098401549254600a549290911192916125fa9163ffffffff612ae716565b1015612604575060005b80801561261c5750600682015462010000900460ff16155b156129245760068201805461ff00191661010017905560018201546001600160a01b03166000908152600c602052604090206002015460ff16156126b15760028201546001808401546001600160a01b03166000908152600c60205260409020015461268d9163ffffffff612a8d16565b6001808401546001600160a01b03166000908152600c6020526040902001556127d8565b60018201546001600160a01b039081166000908152600d60209081526040808320549093168252600c9052206002015460ff161561273b5760018201546001600160a01b039081166000908152600d602090815260408083205490931680835283832080546001600160a01b03199081168317909155600c90925292909120805490911690911790555b60408051608081018252600180850180546001600160a01b039081168085526002808901546020808801918252878901878152600060608a01818152958152600c83528a812099518a549088166001600160a01b0319918216178b559351988a019890985551928801805493151560ff19909416939093179092559151600390960195909555915416808352600d90935292902080549092161790555b6002820154600a546127ef9163ffffffff612a8d16565b600a5560085460095460078401546040805163a9059cbb60e01b81526001600160a01b039384166004820152602481019290925251919092169163a9059cbb9160448083019260209291908290030181600087803b15801561285057600080fd5b505af1158015612864573d6000803e3d6000fd5b505050506040513d602081101561287a57600080fd5b50516128b75760405162461bcd60e51b815260040180806020018281038252603d815260200180613490603d913960400191505060405180910390fd5b600960009054906101000a90046001600160a01b03166001600160a01b0316630d1710126040518163ffffffff1660e01b8152600401600060405180830381600087803b15801561290757600080fd5b505af115801561291b573d6000803e3d6000fd5b505050506112f6565b600854600183015460078401546040805163a9059cbb60e01b81526001600160a01b039384166004820152602481019290925251919092169163a9059cbb9160448083019260209291908290030181600087803b15801561298457600080fd5b505af1158015612998573d6000803e3d6000fd5b505050506040513d60208110156129ae57600080fd5b50516112f65760405162461bcd60e51b815260040180806020018281038252603c815260200180612e22603c913960400191505060405180910390fd5b6000612a2d83836040518060400160405280601e81526020017f536166654d6174683a207375627472616374696f6e206f766572666c6f770000815250612b40565b9392505050565b6000612a2d83836040518060400160405280601a81526020017f536166654d6174683a206469766973696f6e206279207a65726f000000000000815250612bd7565b600081831015612a865781612a2d565b5090919050565b600082820183811015612a2d576040805162461bcd60e51b815260206004820152601b60248201527f536166654d6174683a206164646974696f6e206f766572666c6f770000000000604482015290519081900360640190fd5b600082612af6575060006107c7565b82820282848281612b0357fe5b0414612a2d5760405162461bcd60e51b815260040180806020018281038252602181526020018061326e6021913960400191505060405180910390fd5b60008184841115612bcf5760405162461bcd60e51b81526004018080602001828103825283818151815260200191508051906020019080838360005b83811015612b94578181015183820152602001612b7c565b50505050905090810190601f168015612bc15780820380516001836020036101000a031916815260200191505b509250505060405180910390fd5b505050900390565b60008183612c265760405162461bcd60e51b8152602060048201818152835160248401528351909283926044909101919085019080838360008315612b94578181015183820152602001612b7c565b506000838581612c3257fe5b0495945050505050565b604051806101a0016040528060006001600160a01b0316815260200160006001600160a01b03168152602001600015158152602001600081526020016000815260200160008152602001600081526020016000151581526020016000151581526020016000151581526020016000815260200160608152602001600081525090565b828054600181600116156101000203166002900490600052602060002090601f016020900481019282601f10612cff57805160ff1916838001178555612d2c565b82800160010185558215612d2c579182015b82811115612d2c578251825591602001919060010190612d11565b50612d38929150612d3c565b5090565b6107f991905b80821115612d385760008155600101612d4256fe456e64616f6d656e743a70726f63657373526563697069656e7450726f706f73616c202d2070726f706f73616c206973206e6f74206120726563697069656e742070726f706f73616c4d6f6c6f63683a3a7375626d697450726f706f73616c202d2070726f706f73616c206465706f73697420746f6b656e207472616e73666572206661696c65644d6f6c6f63683a3a7375626d6974526563697069656e7450726f706f73616c202d20726563697069656e742063616e6e6f74206265207468697320636f6e74726163744d6f6c6f63683a3a70726f6365737350726f706f73616c202d206661696c696e6720766f746520746f6b656e207472616e73666572206661696c65644d6f6c6f63683a3a61626f7274202d2070726f706f73616c206d757374206e6f74206861766520616c7265616479206265656e2061626f727465644d6f6c6f63683a3a75706461746544656c65676174654b6579202d2063616e74206f7665727772697465206578697374696e67206d656d626572734d6f6c6f63683a3a6f6e6c794d656d626572202d206e6f742061206d656d6265724d6f6c6f63683a3a7261676571756974202d207769746864726177616c206f6620746f6b656e732066726f6d206775696c6442616e6b206661696c6564456e64616f6d656e743a70726f6365737350726f706f73616c202d2070726f706f73616c206973206e6f742061206d656d6265722070726f706f73616c4d6f6c6f63683a3a6f6e6c7944656c6567617465202d206e6f7420612064656c65676174654d6f6c6f63683a3a7375626d697450726f706f73616c202d207472696275746520746f6b656e207472616e73666572206661696c65644d6f6c6f63683a3a70726f6365737350726f706f73616c202d2070726f706f73616c206973206e6f7420726561647920746f2062652070726f6365737365644d6f6c6f63683a3a61626f7274202d206d73672e73656e646572206d757374206265206170706c6963616e744d6f6c6f63683a3a6765744d656d62657250726f706f73616c566f7465202d2070726f706f73616c20646f65736e27742065786973744d6f6c6f63683a3a7375626d6974566f7465202d20766f7465206d7573742062652065697468657220596573206f72204e6f4d6f6c6f63683a3a61626f7274202d2061626f72742077696e646f77206d757374206e6f742068617665207061737365644d6f6c6f63683a3a7375626d697450726f706f73616c202d206170706c6963616e742063616e6e6f7420626520304d6f6c6f63683a3a63616e5261676571756974202d2070726f706f73616c20646f6573206e6f742065786973744d6f6c6f63683a3a7375626d6974566f7465202d2070726f706f73616c20766f74696e6720706572696f642068617320657870697265644d6f6c6f63683a3a70726f6365737350726f706f73616c202d206661696c656420746f2072657475726e2070726f706f73616c206465706f73697420746f2070726f706f7365724d6f6c6f63683a3a7261676571756974202d2063616e7420726167657175697420756e74696c206869676865737420696e6465782070726f706f73616c206d656d62657220766f74656420594553206f6e2069732070726f6365737365644d6f6c6f63683a3a7375626d6974566f7465202d2070726f706f73616c20646f6573206e6f742065786973744d6f6c6f63683a3a70726f6365737350726f706f73616c202d2070726576696f75732070726f706f73616c206d7573742062652070726f636573736564536166654d6174683a206d756c7469706c69636174696f6e206f766572666c6f77456e64616f6d656e743a3a7375626d697450726f706f73616c202d20736861726573206d75737420657175616c20747269627574654d6f6c6f63683a3a6765744d656d62657250726f706f73616c566f7465202d206d656d62657220646f65736e27742065786973744d6f6c6f63683a3a70726f6365737350726f706f73616c202d206661696c656420746f2072657475726e207472696275746520746f206170706c6963616e744d6f6c6f63683a3a7375626d697450726f706f73616c202d20746f6f206d616e7920736861726573207265717565737465644d6f6c6f63683a3a70726f6365737350726f706f73616c202d206661696c656420746f2073656e642070726f63657373696e672072657761726420746f206d73672e73656e6465724d6f6c6f63683a3a7375626d6974566f7465202d206d656d6265722068617320616c726561647920766f746564206f6e20746869732070726f706f73616c4d6f6c6f63683a3a75706461746544656c65676174654b6579202d2063616e74206f7665727772697465206578697374696e672064656c6567617465206b6579734d6f6c6f63683a3a7375626d6974566f7465202d20766f74696e6720706572696f6420686173206e6f7420737461727465644d6f6c6f63683a3a7375626d6974566f7465202d2070726f706f73616c20686173206265656e2061626f727465644d6f6c6f63683a3a70726f6365737350726f706f73616c202d20746f6b656e207472616e7366657220746f206775696c642062616e6b206661696c65644d6f6c6f63683a3a7375626d6974526563697069656e7450726f706f73616c202d20726563697069656e74206d75737420626520646966666572656e744d6f6c6f63683a3a7261676571756974202d20696e73756666696369656e74207368617265734d6f6c6f63683a3a61626f7274202d2070726f706f73616c20646f6573206e6f742065786973744d6f6c6f63683a3a75706461746544656c65676174654b6579202d206e657744656c65676174654b65792063616e6e6f7420626520304d6f6c6f63683a3a7375626d6974566f7465202d2075696e74566f7465206d757374206265206c657373207468616e20334d6f6c6f63683a3a70726f6365737350726f706f73616c202d2070726f706f73616c2068617320616c7265616479206265656e2070726f6365737365644d6f6c6f63683a3a70726f6365737350726f706f73616c202d2070726f706f73616c20646f6573206e6f742065786973744d6f6c6f63683a3a7375626d6974526563697069656e7450726f706f73616c202d20726563697069656e742063616e6e6f742062652030a265627a7a72315820825d81c86a122ff82961e8c27b65b0594ce09f4c327fe6fd5416195d2cbf63ea64736f6c6343000510003260806040523480156200001157600080fd5b5060405162000fcf38038062000fcf833981810160405260208110156200003757600080fd5b5051606680546001600160a01b0319166001600160a01b0383161790556200006b3362000134602090811b6200069317901c565b606780546001600160a01b03191673261b45d85ccfeabb11f022eba346ee8d1cd488c0908117918290556040805163095ea7b360e01b8152600481018390526000196024820152905191926001600160a01b03169163095ea7b3916044808201926020929091908290030181600087803b158015620000e957600080fd5b505af1158015620000fe573d6000803e3d6000fd5b505050506040513d60208110156200011557600080fd5b506200012c9050306001600160e01b036200023716565b5050620003e5565b600054610100900460ff1680620001595750620001596001600160e01b03620003df16565b8062000168575060005460ff16155b620001a55760405162461bcd60e51b815260040180806020018281038252602e81526020018062000fa1602e913960400191505060405180910390fd5b600054610100900460ff16158015620001d1576000805460ff1961ff0019909116610100171660011790555b603380546001600160a01b0319166001600160a01b0384811691909117918290556040519116906000907f8be0079c531659141344cd1fd0a4f28419497f9722a3daafe3b4186f6b6457e0908290a3801562000233576000805461ff00191690555b5050565b6040805160018082528183019092526060916020808301908038833901905050905081816000815181106200026857fe5b6001600160a01b0390921660209283029190910190910152604080516001808252818301909252606091816020016020820280388339019050509050600181600081518110620002b457fe5b63ffffffff909216602092830291909101820152606754604051635cde505560e01b815260016044820181905260606004830190815286516064840152865191946001600160a01b0390941693635cde505593889388938893909283926024820192608490920191888101910280838360005b838110156200034157818101518382015260200162000327565b50505050905001838103825285818151815260200191508051906020019060200280838360005b838110156200038257818101518382015260200162000368565b5050505090500195505050505050602060405180830381600087803b158015620003ab57600080fd5b505af1158015620003c0573d6000803e3d6000fd5b505050506040513d6020811015620003d757600080fd5b505050505050565b303b1590565b610bac80620003f56000396000f3fe608060405234801561001057600080fd5b506004361061009e5760003560e01c80638f32d59b116100665780638f32d59b1461010d578063bab4625914610129578063c4d66de814610131578063f2fde38b14610157578063f3fef3a31461017d5761009e565b80630d171012146100a35780630efaa4de146100ad57806340c65f72146100d9578063715018a6146100fd5780638da5cb5b14610105575b600080fd5b6100ab6101a9565b005b6100ab600480360360408110156100c357600080fd5b506001600160a01b038135169060200135610452565b6100e16105af565b604080516001600160a01b039092168252519081900360200190f35b6100ab6105be565b6100e161064f565b61011561065e565b604080519115158252519081900360200190f35b6100e1610684565b6100ab6004803603602081101561014757600080fd5b50356001600160a01b0316610693565b6100ab6004803603602081101561016d57600080fd5b50356001600160a01b0316610785565b6101156004803603604081101561019357600080fd5b506001600160a01b0381351690602001356107d8565b606654604080516370a0823160e01b815230600482015290516000926001600160a01b0316916370a08231916024808301926020929190829003018186803b1580156101f457600080fd5b505afa158015610208573d6000803e3d6000fd5b505050506040513d602081101561021e57600080fd5b5051606754604080516302a5580d60e11b815230600482015290519293506000926001600160a01b039092169163054ab01a916024808201928692909190829003018186803b15801561027057600080fd5b505afa158015610284573d6000803e3d6000fd5b505050506040513d6000823e601f3d908101601f1916820160405260608110156102ad57600080fd5b8151602083018051604051929492938301929190846401000000008211156102d457600080fd5b9083019060208201858111156102e957600080fd5b825186602082028301116401000000008211171561030657600080fd5b82525081516020918201928201910280838360005b8381101561033357818101518382015260200161031b565b505050509050016040526020018051604051939291908464010000000082111561035c57600080fd5b90830190602082018581111561037157600080fd5b825186602082028301116401000000008211171561038e57600080fd5b82525081516020918201928201910280838360005b838110156103bb5781810151838201526020016103a3565b50505050919091016040818152606754630e2302e360e21b8352600483018c9052602483018a905290519899506001600160a01b03169763388c0b8c9750604480830197506020965090945090849003019150829050600087803b15801561042257600080fd5b505af1158015610436573d6000803e3d6000fd5b505050506040513d602081101561044c57600080fd5b50505050565b61045a61065e565b610499576040805162461bcd60e51b81526020600482018190526024820152600080516020610b2a833981519152604482015290519081900360640190fd5b6104a2826108eb565b606754604080516370a0823160e01b815230600482015290516000926001600160a01b0316916370a08231916024808301926020929190829003018186803b1580156104ed57600080fd5b505afa158015610501573d6000803e3d6000fd5b505050506040513d602081101561051757600080fd5b50519050818111156105aa576067546040805163a9059cbb60e01b81526001600160a01b0386811660048301528486036024830181905292519293169163a9059cbb916044808201926020929091908290030181600087803b15801561057c57600080fd5b505af1158015610590573d6000803e3d6000fd5b505050506040513d60208110156105a657600080fd5b5050505b505050565b6067546001600160a01b031681565b6105c661065e565b610605576040805162461bcd60e51b81526020600482018190526024820152600080516020610b2a833981519152604482015290519081900360640190fd5b6033546040516000916001600160a01b0316907f8be0079c531659141344cd1fd0a4f28419497f9722a3daafe3b4186f6b6457e0908390a3603380546001600160a01b0319169055565b6033546001600160a01b031690565b6033546000906001600160a01b0316610675610a58565b6001600160a01b031614905090565b6066546001600160a01b031681565b600054610100900460ff16806106ac57506106ac610a5c565b806106ba575060005460ff16155b6106f55760405162461bcd60e51b815260040180806020018281038252602e815260200180610b4a602e913960400191505060405180910390fd5b600054610100900460ff16158015610720576000805460ff1961ff0019909116610100171660011790555b603380546001600160a01b0319166001600160a01b0384811691909117918290556040519116906000907f8be0079c531659141344cd1fd0a4f28419497f9722a3daafe3b4186f6b6457e0908290a38015610781576000805461ff00191690555b5050565b61078d61065e565b6107cc576040805162461bcd60e51b81526020600482018190526024820152600080516020610b2a833981519152604482015290519081900360640190fd5b6107d581610a62565b50565b60006107e261065e565b610821576040805162461bcd60e51b81526020600482018190526024820152600080516020610b2a833981519152604482015290519081900360640190fd5b60408051838152905183916001600160a01b038616917f7fcf532c15f0a6db0bd6d0e038bea71d30d808c7d98cb3bf7268a95bf5081b659181900360200190a26067546040805163d271be3f60e01b81526001600160a01b038781166004830152602482018790529151919092169163d271be3f9160448083019260209291908290030181600087803b1580156108b757600080fd5b505af11580156108cb573d6000803e3d6000fd5b505050506040513d60208110156108e157600080fd5b5051949350505050565b60408051600180825281830190925260609160208083019080388339019050509050818160008151811061091b57fe5b6001600160a01b039092166020928302919091019091015260408051600180825281830190925260609181602001602082028038833901905050905060018160008151811061096657fe5b63ffffffff909216602092830291909101820152606754604051635cde505560e01b815260016044820181905260606004830190815286516064840152865191946001600160a01b0390941693635cde505593889388938893909283926024820192608490920191888101910280838360005b838110156109f15781810151838201526020016109d9565b50505050905001838103825285818151815260200191508051906020019060200280838360005b83811015610a30578181015183820152602001610a18565b5050505090500195505050505050602060405180830381600087803b15801561057c57600080fd5b3390565b303b1590565b6001600160a01b038116610aa75760405162461bcd60e51b8152600401808060200182810382526026815260200180610b046026913960400191505060405180910390fd5b6033546040516001600160a01b038084169216907f8be0079c531659141344cd1fd0a4f28419497f9722a3daafe3b4186f6b6457e090600090a3603380546001600160a01b0319166001600160a01b039290921691909117905556fe4f776e61626c653a206e6577206f776e657220697320746865207a65726f20616464726573734f776e61626c653a2063616c6c6572206973206e6f7420746865206f776e6572436f6e747261637420696e7374616e63652068617320616c7265616479206265656e20696e697469616c697a6564a265627a7a72315820072051f594c0f426255753681e894e7d61577fa92cb44efd911c821f5d332b6a64736f6c63430005100032436f6e747261637420696e7374616e63652068617320616c7265616479206265656e20696e697469616c697a65644d6f6c6f63683a3a636f6e7374727563746f72202d205f61626f727457696e646f772063616e6e6f7420626520304d6f6c6f63683a3a636f6e7374727563746f72202d2073756d6d6f6e65722063616e6e6f7420626520304d6f6c6f63683a3a636f6e7374727563746f72202d205f766f74696e67506572696f644c656e6774682065786365656473206c696d69744d6f6c6f63683a3a636f6e7374727563746f72202d205f70726f706f73616c4465706f7369742063616e6e6f7420626520736d616c6c6572207468616e205f70726f63657373696e675265776172644d6f6c6f63683a3a636f6e7374727563746f72202d205f64696c7574696f6e426f756e642065786365656473206c696d69744d6f6c6f63683a3a636f6e7374727563746f72202d205f61626f727457696e646f77206d75737420626520736d616c6c6572207468616e206f7220657175616c20746f205f766f74696e67506572696f644c656e6774684d6f6c6f63683a3a636f6e7374727563746f72202d205f6772616365506572696f644c656e6774682065786365656473206c696d69744d6f6c6f63683a3a636f6e7374727563746f72202d205f766f74696e67506572696f644c656e6774682063616e6e6f7420626520304d6f6c6f63683a3a636f6e7374727563746f72202d205f706572696f644475726174696f6e2063616e6e6f7420626520304d6f6c6f63683a3a636f6e7374727563746f72202d205f617070726f766564546f6b656e2063616e6e6f7420626520304d6f6c6f63683a3a636f6e7374727563746f72202d205f64696c7574696f6e426f756e642063616e6e6f742062652030",
  "source": "pragma solidity ^0.5.0;\n\nimport \"@openzeppelin/contracts-ethereum-package/contracts/math/SafeMath.sol\";\nimport \"@openzeppelin/contracts-ethereum-package/contracts/token/ERC20/IERC20.sol\";\nimport \"./GuildBank.sol\";\n\ncontract Moloch {\n    using SafeMath for uint256;\n\n    /***************\n    GLOBAL CONSTANTS\n    ***************/\n    uint256 public periodDuration; // default = 17280 = 4.8 hours in seconds (5 periods per day)\n    uint256 public votingPeriodLength; // default = 35 periods (7 days)\n    uint256 public gracePeriodLength; // default = 35 periods (7 days)\n    uint256 public abortWindow; // default = 5 periods (1 day)\n    uint256 public proposalDeposit; // default = 10 ETH (~$1,000 worth of ETH at contract deployment)\n    uint256 public dilutionBound; // default = 3 - maximum multiplier a YES voter will be obligated to pay in case of mass ragequit\n    uint256 public processingReward; // default = 0.1 - amount of ETH to give to whoever processes a proposal\n    uint256 public summoningTime; // needed to determine the current period\n\n    IERC20 public approvedToken; // approved token contract reference; default = wETH\n    GuildBank public guildBank; // guild bank contract reference\n\n    // HARD-CODED LIMITS\n    // These numbers are quite arbitrary; they are small enough to avoid overflows when doing calculations\n    // with periods or shares, yet big enough to not limit reasonable use cases.\n    uint256 constant MAX_VOTING_PERIOD_LENGTH = 10**18; // maximum length of voting period\n    uint256 constant MAX_GRACE_PERIOD_LENGTH = 10**18; // maximum length of grace period\n    uint256 constant MAX_DILUTION_BOUND = 10**18; // maximum dilution bound\n    uint256 constant MAX_NUMBER_OF_SHARES = uint256(-1); // maximum number of shares that can be minted\n\n    /***************\n    EVENTS\n    ***************/\n    event SubmitProposal(uint256 proposalIndex, address indexed delegateKey, address indexed memberAddress, address indexed applicant, uint256 tokenTribute, uint256 sharesRequested);\n    event SubmitVote(uint256 indexed proposalIndex, address indexed delegateKey, address indexed memberAddress, uint8 uintVote);\n    event ProcessProposal(uint256 indexed proposalIndex, address indexed applicant, address indexed memberAddress, uint256 tokenTribute, uint256 sharesRequested, bool didPass);\n    event Ragequit(address indexed memberAddress, uint256 sharesToBurn);\n    event Abort(uint256 indexed proposalIndex, address applicantAddress);\n    event UpdateDelegateKey(address indexed memberAddress, address newDelegateKey);\n    event SummonComplete(address indexed summoner, uint256 shares);\n\n    /******************\n    INTERNAL ACCOUNTING\n    ******************/\n    uint256 public totalShares = 0; // total shares across all members\n    uint256 public totalSharesRequested = 0; // total shares that have been requested in unprocessed proposals\n\n    enum Vote {\n        Null, // default value, counted as abstention\n        Yes,\n        No\n    }\n\n    struct Member {\n        address delegateKey; // the key responsible for submitting proposals and voting - defaults to member address unless updated\n        uint256 shares; // the # of shares assigned to this member\n        bool exists; // always true once a member has been created\n        uint256 highestIndexYesVote; // highest proposal index # on which the member voted YES\n    }\n\n    struct Proposal {\n        address proposer; // the member who submitted the proposal\n        address applicant; // the applicant who wishes to become a member - this key will be used for withdrawals\n        bool isRecipientProposal;\n        uint256 sharesRequested; // the # of shares the applicant is requesting\n        uint256 startingPeriod; // the period in which voting can start for this proposal\n        uint256 yesVotes; // the total number of YES votes for this proposal\n        uint256 noVotes; // the total number of NO votes for this proposal\n        bool processed; // true only if the proposal has been processed\n        bool didPass; // true only if the proposal passed\n        bool aborted; // true only if applicant calls \"abort\" fn before end of voting period\n        uint256 tokenTribute; // amount of tokens offered as tribute\n        string details; // proposal details - could be IPFS hash, plaintext, or JSON\n        uint256 maxTotalSharesAtYesVote; // the maximum # of total shares encountered at a yes vote on this proposal\n        mapping (address => Vote) votesByMember; // the votes on this proposal by each member\n    }\n\n    mapping (address => Member) public members;\n    mapping (address => address) public memberAddressByDelegateKey;\n    Proposal[] public proposalQueue;\n\n    address public recipient;\n\n    /********\n    MODIFIERS\n    ********/\n    modifier onlyMember {\n        require(members[msg.sender].shares > 0, \"Moloch::onlyMember - not a member\");\n        _;\n    }\n\n    modifier onlyDelegate {\n        require(members[memberAddressByDelegateKey[msg.sender]].shares > 0, \"Moloch::onlyDelegate - not a delegate\");\n        _;\n    }\n\n    /********\n    FUNCTIONS\n    ********/\n    constructor(\n        address summoner,\n        address _approvedToken,\n        uint256 _periodDuration,\n        uint256 _votingPeriodLength,\n        uint256 _gracePeriodLength,\n        uint256 _abortWindow,\n        uint256 _proposalDeposit,\n        uint256 _dilutionBound,\n        uint256 _processingReward\n    ) public {\n        require(summoner != address(0), \"Moloch::constructor - summoner cannot be 0\");\n        require(_approvedToken != address(0), \"Moloch::constructor - _approvedToken cannot be 0\");\n        require(_periodDuration > 0, \"Moloch::constructor - _periodDuration cannot be 0\");\n        require(_votingPeriodLength > 0, \"Moloch::constructor - _votingPeriodLength cannot be 0\");\n        require(_votingPeriodLength <= MAX_VOTING_PERIOD_LENGTH, \"Moloch::constructor - _votingPeriodLength exceeds limit\");\n        require(_gracePeriodLength <= MAX_GRACE_PERIOD_LENGTH, \"Moloch::constructor - _gracePeriodLength exceeds limit\");\n        require(_abortWindow > 0, \"Moloch::constructor - _abortWindow cannot be 0\");\n        require(_abortWindow <= _votingPeriodLength, \"Moloch::constructor - _abortWindow must be smaller than or equal to _votingPeriodLength\");\n        require(_dilutionBound > 0, \"Moloch::constructor - _dilutionBound cannot be 0\");\n        require(_dilutionBound <= MAX_DILUTION_BOUND, \"Moloch::constructor - _dilutionBound exceeds limit\");\n        require(_proposalDeposit >= _processingReward, \"Moloch::constructor - _proposalDeposit cannot be smaller than _processingReward\");\n\n        approvedToken = IERC20(_approvedToken);\n\n        guildBank = new GuildBank(_approvedToken);\n        recipient = address(guildBank);\n\n        periodDuration = _periodDuration;\n        votingPeriodLength = _votingPeriodLength;\n        gracePeriodLength = _gracePeriodLength;\n        abortWindow = _abortWindow;\n        proposalDeposit = _proposalDeposit;\n        dilutionBound = _dilutionBound;\n        processingReward = _processingReward;\n\n        summoningTime = now;\n\n        // TODO remove initial share? add check on summoner ragequit?\n        members[summoner] = Member(summoner, 1, true, 0);\n        memberAddressByDelegateKey[summoner] = summoner;\n        totalShares = 1;\n\n        emit SummonComplete(summoner, 1);\n    }\n\n    /*****************\n    PROPOSAL FUNCTIONS\n    *****************/\n\n    function submitProposal(\n        address applicant,\n        uint256 tokenTribute,\n        uint256 sharesRequested,\n        string memory details\n    )\n        public\n        onlyDelegate\n    {\n        require(applicant != address(0), \"Moloch::submitProposal - applicant cannot be 0\");\n        require(sharesRequested == tokenTribute, \"Endaoment::submitProposal - shares must equal tribute\");\n\n        // Make sure we won't run into overflows when doing calculations with shares.\n        // Note that totalShares + totalSharesRequested + sharesRequested is an upper bound\n        // on the number of shares that can exist until this proposal has been processed.\n        require(totalShares.add(totalSharesRequested).add(sharesRequested) <= MAX_NUMBER_OF_SHARES, \"Moloch::submitProposal - too many shares requested\");\n\n        totalSharesRequested = totalSharesRequested.add(sharesRequested);\n\n        address memberAddress = memberAddressByDelegateKey[msg.sender];\n\n        // collect proposal deposit from proposer and store it in the Moloch until the proposal is processed\n        require(approvedToken.transferFrom(msg.sender, address(this), proposalDeposit), \"Moloch::submitProposal - proposal deposit token transfer failed\");\n\n        // collect tribute from applicant and store it in the Moloch until the proposal is processed\n        require(approvedToken.transferFrom(applicant, address(this), tokenTribute), \"Moloch::submitProposal - tribute token transfer failed\");\n\n        // compute startingPeriod for proposal\n        uint256 startingPeriod = max(\n            getCurrentPeriod(),\n            proposalQueue.length == 0 ? 0 : proposalQueue[proposalQueue.length.sub(1)].startingPeriod\n        ).add(1);\n\n        // create proposal ...\n        Proposal memory proposal = Proposal({\n            proposer: memberAddress,\n            applicant: applicant,\n            isRecipientProposal: false,\n            sharesRequested: sharesRequested,\n            startingPeriod: startingPeriod,\n            yesVotes: 0,\n            noVotes: 0,\n            processed: false,\n            didPass: false,\n            aborted: false,\n            tokenTribute: tokenTribute,\n            details: details,\n            maxTotalSharesAtYesVote: 0\n        });\n\n        // ... and append it to the queue\n        proposalQueue.push(proposal);\n\n        uint256 proposalIndex = proposalQueue.length.sub(1);\n        emit SubmitProposal(proposalIndex, msg.sender, memberAddress, applicant, tokenTribute, sharesRequested);\n    }\n\n    function submitRecipientProposal(\n        address _recipient,\n        string memory details\n    )\n        public\n        onlyDelegate\n    {\n        require(recipient != address(0), \"Moloch::submitRecipientProposal - recipient cannot be 0\");\n        require(recipient != _recipient, \"Moloch::submitRecipientProposal - recipient must be different\");\n        require(recipient != address(this), \"Moloch::submitRecipientProposal - recipient cannot be this contract\");\n\n        address memberAddress = memberAddressByDelegateKey[msg.sender];\n\n        // collect proposal deposit from proposer and store it in the Moloch until the proposal is processed\n        require(approvedToken.transferFrom(msg.sender, address(this), proposalDeposit), \"Moloch::submitProposal - proposal deposit token transfer failed\");\n\n        // compute startingPeriod for proposal\n        uint256 startingPeriod = max(\n            getCurrentPeriod(),\n            proposalQueue.length == 0 ? 0 : proposalQueue[proposalQueue.length.sub(1)].startingPeriod\n        ).add(1);\n\n        // create proposal ...\n        Proposal memory proposal = Proposal({\n            proposer: memberAddress,\n            applicant: _recipient,\n            isRecipientProposal: true,\n            sharesRequested: 0,\n            startingPeriod: startingPeriod,\n            yesVotes: 0,\n            noVotes: 0,\n            processed: false,\n            didPass: false,\n            aborted: false,\n            tokenTribute: 0,\n            details: details,\n            maxTotalSharesAtYesVote: 0\n        });\n\n        // ... and append it to the queue\n        proposalQueue.push(proposal);\n\n        uint256 proposalIndex = proposalQueue.length.sub(1);\n        uint256 tokenTribute = 0;\n        uint256 sharesRequested = 0;\n        emit SubmitProposal(proposalIndex, msg.sender, memberAddress, _recipient, tokenTribute, sharesRequested);\n    }\n\n    function submitVote(uint256 proposalIndex, uint8 uintVote) public onlyDelegate {\n        address memberAddress = memberAddressByDelegateKey[msg.sender];\n        Member storage member = members[memberAddress];\n\n        require(proposalIndex < proposalQueue.length, \"Moloch::submitVote - proposal does not exist\");\n        Proposal storage proposal = proposalQueue[proposalIndex];\n\n        require(uintVote < 3, \"Moloch::submitVote - uintVote must be less than 3\");\n        Vote vote = Vote(uintVote);\n\n        require(getCurrentPeriod() >= proposal.startingPeriod, \"Moloch::submitVote - voting period has not started\");\n        require(!hasVotingPeriodExpired(proposal.startingPeriod), \"Moloch::submitVote - proposal voting period has expired\");\n        require(proposal.votesByMember[memberAddress] == Vote.Null, \"Moloch::submitVote - member has already voted on this proposal\");\n        require(vote == Vote.Yes || vote == Vote.No, \"Moloch::submitVote - vote must be either Yes or No\");\n        require(!proposal.aborted, \"Moloch::submitVote - proposal has been aborted\");\n\n        // store vote\n        proposal.votesByMember[memberAddress] = vote;\n\n        // count vote\n        if (vote == Vote.Yes) {\n            proposal.yesVotes = proposal.yesVotes.add(member.shares);\n\n            // set highest index (latest) yes vote - must be processed for member to ragequit\n            if (proposalIndex > member.highestIndexYesVote) {\n                member.highestIndexYesVote = proposalIndex;\n            }\n\n            // set maximum of total shares encountered at a yes vote - used to bound dilution for yes voters\n            if (totalShares > proposal.maxTotalSharesAtYesVote) {\n                proposal.maxTotalSharesAtYesVote = totalShares;\n            }\n\n        } else if (vote == Vote.No) {\n            proposal.noVotes = proposal.noVotes.add(member.shares);\n        }\n\n        emit SubmitVote(proposalIndex, msg.sender, memberAddress, uintVote);\n    }\n\n    function processProposal(uint256 proposalIndex) public {\n        require(proposalIndex < proposalQueue.length, \"Moloch::processProposal - proposal does not exist\");\n        Proposal storage proposal = proposalQueue[proposalIndex];\n\n        require(!proposal.isRecipientProposal, \"Endaoment:processProposal - proposal is not a member proposal\");\n\n        require(getCurrentPeriod() >= proposal.startingPeriod.add(votingPeriodLength).add(gracePeriodLength), \"Moloch::processProposal - proposal is not ready to be processed\");\n        require(proposal.processed == false, \"Moloch::processProposal - proposal has already been processed\");\n        require(proposalIndex == 0 || proposalQueue[proposalIndex.sub(1)].processed, \"Moloch::processProposal - previous proposal must be processed\");\n\n        proposal.processed = true;\n        totalSharesRequested = totalSharesRequested.sub(proposal.sharesRequested);\n\n        bool didPass = proposal.yesVotes > proposal.noVotes;\n\n        // Make the proposal fail if the dilutionBound is exceeded\n        if (totalShares.mul(dilutionBound) < proposal.maxTotalSharesAtYesVote) {\n            didPass = false;\n        }\n\n        // PROPOSAL PASSED\n        if (didPass && !proposal.aborted) {\n\n            proposal.didPass = true;\n\n            // if the applicant is already a member, add to their existing shares\n            if (members[proposal.applicant].exists) {\n                members[proposal.applicant].shares = members[proposal.applicant].shares.add(proposal.sharesRequested);\n\n            // the applicant is a new member, create a new record for them\n            } else {\n                // if the applicant address is already taken by a member's delegateKey, reset it to their member address\n                if (members[memberAddressByDelegateKey[proposal.applicant]].exists) {\n                    address memberToOverride = memberAddressByDelegateKey[proposal.applicant];\n                    memberAddressByDelegateKey[memberToOverride] = memberToOverride;\n                    members[memberToOverride].delegateKey = memberToOverride;\n                }\n\n                // use applicant address as delegateKey by default\n                members[proposal.applicant] = Member(proposal.applicant, proposal.sharesRequested, true, 0);\n                memberAddressByDelegateKey[proposal.applicant] = proposal.applicant;\n            }\n\n            // mint new shares\n            totalShares = totalShares.add(proposal.sharesRequested);\n\n            // DONE transfer tokens to guild bank\n            require(\n                approvedToken.transfer(address(guildBank), proposal.tokenTribute),\n                \"Moloch::processProposal - token transfer to guild bank failed\"\n            );\n\n            // Call function to convert guild bank Dai to rDAI\n            guildBank.convertToInterestEarningToken();\n\n        // PROPOSAL FAILED OR ABORTED\n        } else {\n            // DONE return all tokens to the applicant\n            require(\n                approvedToken.transfer(proposal.applicant, proposal.tokenTribute),\n                \"Moloch::processProposal - failing vote token transfer failed\"\n            );\n        }\n\n        // DONE send msg.sender the processingReward\n        require(\n            approvedToken.transfer(msg.sender, processingReward),\n            \"Moloch::processProposal - failed to send processing reward to msg.sender\"\n        );\n\n        // DONE return deposit to proposer (subtract processing reward)\n        require(\n            approvedToken.transfer(proposal.proposer, proposalDeposit.sub(processingReward)),\n            \"Moloch::processProposal - failed to return proposal deposit to proposer\"\n        );\n\n        emit ProcessProposal(\n            proposalIndex,\n            proposal.applicant,\n            proposal.proposer,\n            proposal.tokenTribute,\n            proposal.sharesRequested,\n            didPass\n        );\n    }\n\n    function processRecipientProposal(uint256 proposalIndex) public {\n        require(proposalIndex < proposalQueue.length, \"Moloch::processProposal - proposal does not exist\");\n        Proposal storage proposal = proposalQueue[proposalIndex];\n\n        require(proposal.isRecipientProposal, \"Endaoment:processRecipientProposal - proposal is not a recipient proposal\");\n\n        require(getCurrentPeriod() >= proposal.startingPeriod.add(votingPeriodLength).add(gracePeriodLength), \"Moloch::processProposal - proposal is not ready to be processed\");\n        require(proposal.processed == false, \"Moloch::processProposal - proposal has already been processed\");\n        require(proposalIndex == 0 || proposalQueue[proposalIndex.sub(1)].processed, \"Moloch::processProposal - previous proposal must be processed\");\n\n        proposal.processed = true;\n\n        bool didPass = proposal.yesVotes > proposal.noVotes;\n\n        // PROPOSAL PASSED\n        if (didPass && !proposal.aborted) {\n\n            proposal.didPass = true;\n\n            // call guild bank function to handle interest changes\n            address _newRecipient = proposal.applicant;\n            recipient = _newRecipient;\n            guildBank.updateRecipient(_newRecipient, totalShares);\n\n        // PROPOSAL FAILED OR ABORTED\n        }\n\n        // send msg.sender the processingReward\n        require(\n            approvedToken.transfer(msg.sender, processingReward),\n            \"Moloch::processProposal - failed to send processing reward to msg.sender\"\n        );\n\n        // return deposit to proposer (subtract processing reward)\n        require(\n            approvedToken.transfer(proposal.proposer, proposalDeposit.sub(processingReward)),\n            \"Moloch::processProposal - failed to return proposal deposit to proposer\"\n        );\n\n        emit ProcessProposal(\n            proposalIndex,\n            proposal.applicant,\n            proposal.proposer,\n            proposal.tokenTribute,\n            proposal.sharesRequested,\n            didPass\n        );\n    }\n\n    function ragequit(uint256 sharesToBurn) public onlyMember {\n        // uint256 initialTotalShares = totalShares;\n\n        Member storage member = members[msg.sender];\n\n        require(member.shares >= sharesToBurn, \"Moloch::ragequit - insufficient shares\");\n\n        require(canRagequit(member.highestIndexYesVote), \"Moloch::ragequit - cant ragequit until highest index proposal member voted YES on is processed\");\n\n        // burn shares\n        member.shares = member.shares.sub(sharesToBurn);\n        totalShares = totalShares.sub(sharesToBurn);\n\n        // instruct guildBank to transfer fair share of tokens to the ragequitter\n        require(\n            guildBank.withdraw(msg.sender, sharesToBurn),\n            \"Moloch::ragequit - withdrawal of tokens from guildBank failed\"\n        );\n\n        emit Ragequit(msg.sender, sharesToBurn);\n    }\n\n    function abort(uint256 proposalIndex) public {\n        require(proposalIndex < proposalQueue.length, \"Moloch::abort - proposal does not exist\");\n        Proposal storage proposal = proposalQueue[proposalIndex];\n\n        require(msg.sender == proposal.applicant, \"Moloch::abort - msg.sender must be applicant\");\n        require(getCurrentPeriod() < proposal.startingPeriod.add(abortWindow), \"Moloch::abort - abort window must not have passed\");\n        require(!proposal.aborted, \"Moloch::abort - proposal must not have already been aborted\");\n\n        uint256 tokensToAbort = proposal.tokenTribute;\n        proposal.tokenTribute = 0;\n        proposal.aborted = true;\n\n        // return all tokens to the applicant\n        require(\n            approvedToken.transfer(proposal.applicant, tokensToAbort),\n            \"Moloch::processProposal - failed to return tribute to applicant\"\n        );\n\n        emit Abort(proposalIndex, msg.sender);\n    }\n\n    function updateDelegateKey(address newDelegateKey) public onlyMember {\n        require(newDelegateKey != address(0), \"Moloch::updateDelegateKey - newDelegateKey cannot be 0\");\n\n        // skip checks if member is setting the delegate key to their member address\n        if (newDelegateKey != msg.sender) {\n            require(!members[newDelegateKey].exists, \"Moloch::updateDelegateKey - cant overwrite existing members\");\n            require(!members[memberAddressByDelegateKey[newDelegateKey]].exists, \"Moloch::updateDelegateKey - cant overwrite existing delegate keys\");\n        }\n\n        Member storage member = members[msg.sender];\n        memberAddressByDelegateKey[member.delegateKey] = address(0);\n        memberAddressByDelegateKey[newDelegateKey] = msg.sender;\n        member.delegateKey = newDelegateKey;\n\n        emit UpdateDelegateKey(msg.sender, newDelegateKey);\n    }\n\n    /***************\n    GETTER FUNCTIONS\n    ***************/\n\n    function max(uint256 x, uint256 y) internal pure returns (uint256) {\n        return x >= y ? x : y;\n    }\n\n    function getCurrentPeriod() public view returns (uint256) {\n        return now.sub(summoningTime).div(periodDuration);\n    }\n\n    function getProposalQueueLength() public view returns (uint256) {\n        return proposalQueue.length;\n    }\n\n    // can only ragequit if the latest proposal you voted YES on has been processed\n    function canRagequit(uint256 highestIndexYesVote) public view returns (bool) {\n        require(highestIndexYesVote < proposalQueue.length, \"Moloch::canRagequit - proposal does not exist\");\n        return proposalQueue[highestIndexYesVote].processed;\n    }\n\n    function hasVotingPeriodExpired(uint256 startingPeriod) public view returns (bool) {\n        return getCurrentPeriod() >= startingPeriod.add(votingPeriodLength);\n    }\n\n    function getMemberProposalVote(address memberAddress, uint256 proposalIndex) public view returns (Vote) {\n        require(members[memberAddress].exists, \"Moloch::getMemberProposalVote - member doesn't exist\");\n        require(proposalIndex < proposalQueue.length, \"Moloch::getMemberProposalVote - proposal doesn't exist\");\n        return proposalQueue[proposalIndex].votesByMember[memberAddress];\n    }\n}",
  "sourcePath": "/Users/bendi/Development/endaoment/contracts/Moloch.sol",
  "compiler": {
    "name": "solc",
    "version": "0.5.16+commit.9c3226ce.Emscripten.clang"
  },
  "schemaVersion": "3.0.23",
  "updatedAt": "2020-02-16T05:20:01.199Z",
  "networkType": "ethereum",
  "devdoc": {
    "methods": {}
  },
  "userdoc": {
    "methods": {
      "constructor": "****** FUNCTIONS*******",
      "submitProposal(address,uint256,uint256,string)": {
        "notice": "*************** PROPOSAL FUNCTIONS****************"
      }
    }
  }
}