{
  "contractName": "MolochPool",
  "abi": [
    {
      "inputs": [
        {
          "internalType": "address",
          "name": "_moloch",
          "type": "address"
        }
      ],
      "payable": false,
      "stateMutability": "nonpayable",
      "type": "constructor"
    },
    {
      "anonymous": false,
      "inputs": [
        {
          "indexed": false,
          "internalType": "address",
          "name": "donor",
          "type": "address"
        },
        {
          "indexed": false,
          "internalType": "address[]",
          "name": "addedKeepers",
          "type": "address[]"
        }
      ],
      "name": "AddKeepers",
      "type": "event"
    },
    {
      "anonymous": false,
      "inputs": [
        {
          "indexed": false,
          "internalType": "address",
          "name": "donor",
          "type": "address"
        },
        {
          "indexed": false,
          "internalType": "uint256",
          "name": "sharesMinted",
          "type": "uint256"
        },
        {
          "indexed": false,
          "internalType": "uint256",
          "name": "tokensDeposited",
          "type": "uint256"
        }
      ],
      "name": "Deposit",
      "type": "event"
    },
    {
      "anonymous": false,
      "inputs": [
        {
          "indexed": false,
          "internalType": "address",
          "name": "donor",
          "type": "address"
        },
        {
          "indexed": false,
          "internalType": "uint256",
          "name": "sharesBurned",
          "type": "uint256"
        },
        {
          "indexed": false,
          "internalType": "address",
          "name": "keeper",
          "type": "address"
        }
      ],
      "name": "KeeperWithdraw",
      "type": "event"
    },
    {
      "anonymous": false,
      "inputs": [
        {
          "indexed": false,
          "internalType": "address",
          "name": "donor",
          "type": "address"
        },
        {
          "indexed": false,
          "internalType": "address[]",
          "name": "removedKeepers",
          "type": "address[]"
        }
      ],
      "name": "RemoveKeepers",
      "type": "event"
    },
    {
      "anonymous": false,
      "inputs": [
        {
          "indexed": false,
          "internalType": "uint256",
          "name": "sharesToBurn",
          "type": "uint256"
        },
        {
          "indexed": false,
          "internalType": "address",
          "name": "recipient",
          "type": "address"
        },
        {
          "indexed": false,
          "internalType": "uint256",
          "name": "totalPoolShares",
          "type": "uint256"
        }
      ],
      "name": "SharesBurned",
      "type": "event"
    },
    {
      "anonymous": false,
      "inputs": [
        {
          "indexed": false,
          "internalType": "uint256",
          "name": "sharesToMint",
          "type": "uint256"
        },
        {
          "indexed": false,
          "internalType": "address",
          "name": "recipient",
          "type": "address"
        },
        {
          "indexed": false,
          "internalType": "uint256",
          "name": "totalPoolShares",
          "type": "uint256"
        }
      ],
      "name": "SharesMinted",
      "type": "event"
    },
    {
      "anonymous": false,
      "inputs": [
        {
          "indexed": false,
          "internalType": "uint256",
          "name": "currentProposalIndex",
          "type": "uint256"
        }
      ],
      "name": "Sync",
      "type": "event"
    },
    {
      "anonymous": false,
      "inputs": [
        {
          "indexed": false,
          "internalType": "address",
          "name": "donor",
          "type": "address"
        },
        {
          "indexed": false,
          "internalType": "uint256",
          "name": "sharesBurned",
          "type": "uint256"
        }
      ],
      "name": "Withdraw",
      "type": "event"
    },
    {
      "constant": true,
      "inputs": [],
      "name": "approvedToken",
      "outputs": [
        {
          "internalType": "contract IERC20",
          "name": "",
          "type": "address"
        }
      ],
      "payable": false,
      "stateMutability": "view",
      "type": "function"
    },
    {
      "constant": true,
      "inputs": [],
      "name": "currentProposalIndex",
      "outputs": [
        {
          "internalType": "uint256",
          "name": "",
          "type": "uint256"
        }
      ],
      "payable": false,
      "stateMutability": "view",
      "type": "function"
    },
    {
      "constant": true,
      "inputs": [
        {
          "internalType": "address",
          "name": "",
          "type": "address"
        }
      ],
      "name": "donors",
      "outputs": [
        {
          "internalType": "uint256",
          "name": "shares",
          "type": "uint256"
        }
      ],
      "payable": false,
      "stateMutability": "view",
      "type": "function"
    },
    {
      "constant": true,
      "inputs": [],
      "name": "moloch",
      "outputs": [
        {
          "internalType": "contract Moloch",
          "name": "",
          "type": "address"
        }
      ],
      "payable": false,
      "stateMutability": "view",
      "type": "function"
    },
    {
      "constant": true,
      "inputs": [],
      "name": "totalPoolShares",
      "outputs": [
        {
          "internalType": "uint256",
          "name": "",
          "type": "uint256"
        }
      ],
      "payable": false,
      "stateMutability": "view",
      "type": "function"
    },
    {
      "constant": false,
      "inputs": [
        {
          "internalType": "uint256",
          "name": "initialTokens",
          "type": "uint256"
        },
        {
          "internalType": "uint256",
          "name": "initialPoolShares",
          "type": "uint256"
        }
      ],
      "name": "activate",
      "outputs": [],
      "payable": false,
      "stateMutability": "nonpayable",
      "type": "function"
    },
    {
      "constant": false,
      "inputs": [
        {
          "internalType": "uint256",
          "name": "toIndex",
          "type": "uint256"
        }
      ],
      "name": "sync",
      "outputs": [],
      "payable": false,
      "stateMutability": "nonpayable",
      "type": "function"
    },
    {
      "constant": false,
      "inputs": [
        {
          "internalType": "uint256",
          "name": "tokenAmount",
          "type": "uint256"
        }
      ],
      "name": "deposit",
      "outputs": [],
      "payable": false,
      "stateMutability": "nonpayable",
      "type": "function"
    },
    {
      "constant": false,
      "inputs": [
        {
          "internalType": "uint256",
          "name": "sharesToBurn",
          "type": "uint256"
        }
      ],
      "name": "withdraw",
      "outputs": [],
      "payable": false,
      "stateMutability": "nonpayable",
      "type": "function"
    },
    {
      "constant": false,
      "inputs": [
        {
          "internalType": "uint256",
          "name": "sharesToBurn",
          "type": "uint256"
        },
        {
          "internalType": "address",
          "name": "recipient",
          "type": "address"
        }
      ],
      "name": "keeperWithdraw",
      "outputs": [],
      "payable": false,
      "stateMutability": "nonpayable",
      "type": "function"
    },
    {
      "constant": false,
      "inputs": [
        {
          "internalType": "address[]",
          "name": "newKeepers",
          "type": "address[]"
        }
      ],
      "name": "addKeepers",
      "outputs": [],
      "payable": false,
      "stateMutability": "nonpayable",
      "type": "function"
    },
    {
      "constant": false,
      "inputs": [
        {
          "internalType": "address[]",
          "name": "keepersToRemove",
          "type": "address[]"
        }
      ],
      "name": "removeKeepers",
      "outputs": [],
      "payable": false,
      "stateMutability": "nonpayable",
      "type": "function"
    }
  ],
  "bytecode": "0x608060405260008055600060015534801561001957600080fd5b5060405161255c38038061255c8339818101604052602081101561003c57600080fd5b810190808051906020019092919050505080600260006101000a81548173ffffffffffffffffffffffffffffffffffffffff021916908373ffffffffffffffffffffffffffffffffffffffff160217905550600260009054906101000a900473ffffffffffffffffffffffffffffffffffffffff1673ffffffffffffffffffffffffffffffffffffffff1663bab462596040518163ffffffff1660e01b815260040160206040518083038186803b1580156100f657600080fd5b505afa15801561010a573d6000803e3d6000fd5b505050506040513d602081101561012057600080fd5b8101908080519060200190929190505050600360006101000a81548173ffffffffffffffffffffffffffffffffffffffff021916908373ffffffffffffffffffffffffffffffffffffffff160217905550506123db806101816000396000f3fe608060405234801561001057600080fd5b50600436106100b45760003560e01c8063a6418a1311610071578063a6418a131461021e578063b1357bf91461026c578063b6b55f251461029a578063bab46259146102c8578063ca0cdea814610312578063ea7e9daa1461036a576100b4565b80632e1a7d4d146100b9578063314a83c9146100e757806331835fb814610160578063623d9ac91461017e5780636d0a67de146101c85780638ea8f83c146101e6575b600080fd5b6100e5600480360360208110156100cf57600080fd5b81019080803590602001909291905050506103e3565b005b61015e600480360360208110156100fd57600080fd5b810190808035906020019064010000000081111561011a57600080fd5b82018360208201111561012c57600080fd5b8035906020019184602083028401116401000000008311171561014e57600080fd5b909192939192939050505061058b565b005b61016861083e565b6040518082815260200191505060405180910390f35b610186610844565b604051808273ffffffffffffffffffffffffffffffffffffffff1673ffffffffffffffffffffffffffffffffffffffff16815260200191505060405180910390f35b6101d061086a565b6040518082815260200191505060405180910390f35b61021c600480360360408110156101fc57600080fd5b810190808035906020019092919080359060200190929190505050610870565b005b61026a6004803603604081101561023457600080fd5b8101908080359060200190929190803573ffffffffffffffffffffffffffffffffffffffff169060200190929190505050610b1b565b005b6102986004803603602081101561028257600080fd5b8101908080359060200190929190505050610dda565b005b6102c6600480360360208110156102b057600080fd5b8101908080359060200190929190505050611316565b005b6102d0611738565b604051808273ffffffffffffffffffffffffffffffffffffffff1673ffffffffffffffffffffffffffffffffffffffff16815260200191505060405180910390f35b6103546004803603602081101561032857600080fd5b81019080803573ffffffffffffffffffffffffffffffffffffffff16906020019092919050505061175e565b6040518082815260200191505060405180910390f35b6103e16004803603602081101561038057600080fd5b810190808035906020019064010000000081111561039d57600080fd5b8201836020820111156103af57600080fd5b803590602001918460208302840111640100000000831117156103d157600080fd5b909192939192939050505061177c565b005b600080541161045a576040517f08c379a00000000000000000000000000000000000000000000000000000000081526004018080602001828103825260168152602001807f4d6f6c6f6368506f6f6c3a204e6f74206163746976650000000000000000000081525060200191505060405180910390fd5b600360149054906101000a900460ff16156104dd576040517f08c379a000000000000000000000000000000000000000000000000000000000815260040180806020018281038252601a8152602001807f4d6f6c6f6368506f6f6c3a205265656e7472616e742063616c6c00000000000081525060200191505060405180910390fd5b6001600360146101000a81548160ff0219169083151502179055506105023382611a2f565b7f884edad9ce6fa2440d8a54cc123490eb96d2768479d49ff9c7366125a94243643382604051808373ffffffffffffffffffffffffffffffffffffffff1673ffffffffffffffffffffffffffffffffffffffff1681526020018281526020019250505060405180910390a16000600360146101000a81548160ff02191690831515021790555050565b6000805411610602576040517f08c379a00000000000000000000000000000000000000000000000000000000081526004018080602001828103825260168152602001807f4d6f6c6f6368506f6f6c3a204e6f74206163746976650000000000000000000081525060200191505060405180910390fd5b600360149054906101000a900460ff1615610685576040517f08c379a000000000000000000000000000000000000000000000000000000000815260040180806020018281038252601a8152602001807f4d6f6c6f6368506f6f6c3a205265656e7472616e742063616c6c00000000000081525060200191505060405180910390fd5b6001600360146101000a81548160ff0219169083151502179055506000600460003373ffffffffffffffffffffffffffffffffffffffff1673ffffffffffffffffffffffffffffffffffffffff168152602001908152602001600020905060008090505b8383905081101561078357600182600101600086868581811061070857fe5b9050602002013573ffffffffffffffffffffffffffffffffffffffff1673ffffffffffffffffffffffffffffffffffffffff1673ffffffffffffffffffffffffffffffffffffffff16815260200190815260200160002060006101000a81548160ff02191690831515021790555080806001019150506106e9565b507f4828028875d55b3eee8f0792f7db619443d485cdf943daabb66aa69b59943d60338484604051808473ffffffffffffffffffffffffffffffffffffffff1673ffffffffffffffffffffffffffffffffffffffff168152602001806020018281038252848482818152602001925060200280828437600081840152601f19601f82011690508083019250505094505050505060405180910390a1506000600360146101000a81548160ff0219169083151502179055505050565b60015481565b600260009054906101000a900473ffffffffffffffffffffffffffffffffffffffff1681565b60005481565b600360149054906101000a900460ff16156108f3576040517f08c379a000000000000000000000000000000000000000000000000000000000815260040180806020018281038252601a8152602001807f4d6f6c6f6368506f6f6c3a205265656e7472616e742063616c6c00000000000081525060200191505060405180910390fd5b6001600360146101000a81548160ff0219169083151502179055506000805414610985576040517f08c379a000000000000000000000000000000000000000000000000000000000815260040180806020018281038252601a8152602001807f4d6f6c6f6368506f6f6c3a20416c72656164792061637469766500000000000081525060200191505060405180910390fd5b600360009054906101000a900473ffffffffffffffffffffffffffffffffffffffff1673ffffffffffffffffffffffffffffffffffffffff166323b872dd3330856040518463ffffffff1660e01b8152600401808473ffffffffffffffffffffffffffffffffffffffff1673ffffffffffffffffffffffffffffffffffffffff1681526020018373ffffffffffffffffffffffffffffffffffffffff1673ffffffffffffffffffffffffffffffffffffffff1681526020018281526020019350505050602060405180830381600087803b158015610a6257600080fd5b505af1158015610a76573d6000803e3d6000fd5b505050506040513d6020811015610a8c57600080fd5b8101908080519060200190929190505050610af2576040517f08c379a000000000000000000000000000000000000000000000000000000000815260040180806020018281038252602a81526020018061237d602a913960400191505060405180910390fd5b610afc8133611dc0565b6000600360146101000a81548160ff0219169083151502179055505050565b6000805411610b92576040517f08c379a00000000000000000000000000000000000000000000000000000000081526004018080602001828103825260168152602001807f4d6f6c6f6368506f6f6c3a204e6f74206163746976650000000000000000000081525060200191505060405180910390fd5b600360149054906101000a900460ff1615610c15576040517f08c379a000000000000000000000000000000000000000000000000000000000815260040180806020018281038252601a8152602001807f4d6f6c6f6368506f6f6c3a205265656e7472616e742063616c6c00000000000081525060200191505060405180910390fd5b6001600360146101000a81548160ff021916908315150217905550600460008273ffffffffffffffffffffffffffffffffffffffff1673ffffffffffffffffffffffffffffffffffffffff16815260200190815260200160002060010160003373ffffffffffffffffffffffffffffffffffffffff1673ffffffffffffffffffffffffffffffffffffffff16815260200190815260200160002060009054906101000a900460ff16610d12576040517f08c379a00000000000000000000000000000000000000000000000000000000081526004018080602001828103825260228152602001806123136022913960400191505060405180910390fd5b610d1c8183611a2f565b7fe6d4ab392c714fc866267ada751d7f5b949aa6afa62a6cf2df0d89f7e3112b49818333604051808473ffffffffffffffffffffffffffffffffffffffff1673ffffffffffffffffffffffffffffffffffffffff1681526020018381526020018273ffffffffffffffffffffffffffffffffffffffff1673ffffffffffffffffffffffffffffffffffffffff168152602001935050505060405180910390a16000600360146101000a81548160ff0219169083151502179055505050565b6000805411610e51576040517f08c379a00000000000000000000000000000000000000000000000000000000081526004018080602001828103825260168152602001807f4d6f6c6f6368506f6f6c3a204e6f74206163746976650000000000000000000081525060200191505060405180910390fd5b600360149054906101000a900460ff1615610ed4576040517f08c379a000000000000000000000000000000000000000000000000000000000815260040180806020018281038252601a8152602001807f4d6f6c6f6368506f6f6c3a205265656e7472616e742063616c6c00000000000081525060200191505060405180910390fd5b6001600360146101000a81548160ff021916908315150217905550600260009054906101000a900473ffffffffffffffffffffffffffffffffffffffff1673ffffffffffffffffffffffffffffffffffffffff1663797daf706040518163ffffffff1660e01b815260040160206040518083038186803b158015610f5757600080fd5b505afa158015610f6b573d6000803e3d6000fd5b505050506040513d6020811015610f8157600080fd5b8101908080519060200190929190505050811115610fea576040517f08c379a000000000000000000000000000000000000000000000000000000000815260040180806020018281038252602381526020018061235a6023913960400191505060405180910390fd5b60008060008060008060008060015490505b888110156112b057600260009054906101000a900473ffffffffffffffffffffffffffffffffffffffff1673ffffffffffffffffffffffffffffffffffffffff16633b214a74826040518263ffffffff1660e01b81526004018082815260200191505060006040518083038186803b15801561107757600080fd5b505afa15801561108b573d6000803e3d6000fd5b505050506040513d6000823e3d601f19601f820116820180604052506101a08110156110b657600080fd5b8101908080519060200190929190805190602001909291908051906020019092919080519060200190929190805190602001909291908051906020019092919080519060200190929190805190602001909291908051906020019092919080519060200190929190805190602001909291908051604051939291908464010000000082111561114457600080fd5b8382019150602082018581111561115a57600080fd5b825186600182028301116401000000008211171561117757600080fd5b8083526020830192505050908051906020019080838360005b838110156111ab578082015181840152602081019050611190565b50505050905090810190601f1680156111d85780820380516001836020036101000a031916815260200191505b5060405260200180519060200190929190505050909192939495969798999a9b5090919293949596979899509091929394959697509091929394959650909192939495509050809850819950829a50839b50849c50859d50869e505050505050505085611244576112b0565b8315801561124f5750845b801561125b5750600083145b80156112675750600087115b156112a3576000611295836112878a600054611f5790919063ffffffff16565b611fdd90919063ffffffff16565b90506112a1818a611dc0565b505b8080600101915050610ffc565b806001819055507f8a0df8ef054fae2c3d2d19a7b322e864870cc9fd3cb07fb9526309c596244bf46001546040518082815260200191505060405180910390a150505050505050506000600360146101000a81548160ff02191690831515021790555050565b600080541161138d576040517f08c379a00000000000000000000000000000000000000000000000000000000081526004018080602001828103825260168152602001807f4d6f6c6f6368506f6f6c3a204e6f74206163746976650000000000000000000081525060200191505060405180910390fd5b600360149054906101000a900460ff1615611410576040517f08c379a000000000000000000000000000000000000000000000000000000000815260040180806020018281038252601a8152602001807f4d6f6c6f6368506f6f6c3a205265656e7472616e742063616c6c00000000000081525060200191505060405180910390fd5b6001600360146101000a81548160ff021916908315150217905550600061152d600360009054906101000a900473ffffffffffffffffffffffffffffffffffffffff1673ffffffffffffffffffffffffffffffffffffffff166370a08231306040518263ffffffff1660e01b8152600401808273ffffffffffffffffffffffffffffffffffffffff1673ffffffffffffffffffffffffffffffffffffffff16815260200191505060206040518083038186803b1580156114cf57600080fd5b505afa1580156114e3573d6000803e3d6000fd5b505050506040513d60208110156114f957600080fd5b810190808051906020019092919050505061151f84600054611f5790919063ffffffff16565b611fdd90919063ffffffff16565b9050600360009054906101000a900473ffffffffffffffffffffffffffffffffffffffff1673ffffffffffffffffffffffffffffffffffffffff166323b872dd3330856040518463ffffffff1660e01b8152600401808473ffffffffffffffffffffffffffffffffffffffff1673ffffffffffffffffffffffffffffffffffffffff1681526020018373ffffffffffffffffffffffffffffffffffffffff1673ffffffffffffffffffffffffffffffffffffffff1681526020018281526020019350505050602060405180830381600087803b15801561160c57600080fd5b505af1158015611620573d6000803e3d6000fd5b505050506040513d602081101561163657600080fd5b810190808051906020019092919050505061169c576040517f08c379a00000000000000000000000000000000000000000000000000000000081526004018080602001828103825260238152602001806122806023913960400191505060405180910390fd5b6116a68133611dc0565b7f90890809c654f11d6e72a28fa60149770a0d11ec6c92319d6ceb2bb0a4ea1a15338284604051808473ffffffffffffffffffffffffffffffffffffffff1673ffffffffffffffffffffffffffffffffffffffff168152602001838152602001828152602001935050505060405180910390a1506000600360146101000a81548160ff02191690831515021790555050565b600360009054906101000a900473ffffffffffffffffffffffffffffffffffffffff1681565b60046020528060005260406000206000915090508060000154905081565b60008054116117f3576040517f08c379a00000000000000000000000000000000000000000000000000000000081526004018080602001828103825260168152602001807f4d6f6c6f6368506f6f6c3a204e6f74206163746976650000000000000000000081525060200191505060405180910390fd5b600360149054906101000a900460ff1615611876576040517f08c379a000000000000000000000000000000000000000000000000000000000815260040180806020018281038252601a8152602001807f4d6f6c6f6368506f6f6c3a205265656e7472616e742063616c6c00000000000081525060200191505060405180910390fd5b6001600360146101000a81548160ff0219169083151502179055506000600460003373ffffffffffffffffffffffffffffffffffffffff1673ffffffffffffffffffffffffffffffffffffffff168152602001908152602001600020905060008090505b838390508110156119745760008260010160008686858181106118f957fe5b9050602002013573ffffffffffffffffffffffffffffffffffffffff1673ffffffffffffffffffffffffffffffffffffffff1673ffffffffffffffffffffffffffffffffffffffff16815260200190815260200160002060006101000a81548160ff02191690831515021790555080806001019150506118da565b507fedfff599186e5df9f7c27e1a4c7ccace9b82f62bf814d7e98b10e07b80d677ce338484604051808473ffffffffffffffffffffffffffffffffffffffff1673ffffffffffffffffffffffffffffffffffffffff168152602001806020018281038252848482818152602001925060200280828437600081840152601f19601f82011690508083019250505094505050505060405180910390a1506000600360146101000a81548160ff0219169083151502179055505050565b6000600460008473ffffffffffffffffffffffffffffffffffffffff1673ffffffffffffffffffffffffffffffffffffffff16815260200190815260200160002090508181600001541015611acf576040517f08c379a00000000000000000000000000000000000000000000000000000000081526004018080602001828103825260258152602001806123356025913960400191505060405180910390fd5b6000611bd1600054611bc385600360009054906101000a900473ffffffffffffffffffffffffffffffffffffffff1673ffffffffffffffffffffffffffffffffffffffff166370a08231306040518263ffffffff1660e01b8152600401808273ffffffffffffffffffffffffffffffffffffffff1673ffffffffffffffffffffffffffffffffffffffff16815260200191505060206040518083038186803b158015611b7a57600080fd5b505afa158015611b8e573d6000803e3d6000fd5b505050506040513d6020811015611ba457600080fd5b8101908080519060200190929190505050611f5790919063ffffffff16565b611fdd90919063ffffffff16565b9050611be88360005461202790919063ffffffff16565b600081905550611c0583836000015461202790919063ffffffff16565b8260000181905550600360009054906101000a900473ffffffffffffffffffffffffffffffffffffffff1673ffffffffffffffffffffffffffffffffffffffff1663a9059cbb85836040518363ffffffff1660e01b8152600401808373ffffffffffffffffffffffffffffffffffffffff1673ffffffffffffffffffffffffffffffffffffffff16815260200182815260200192505050602060405180830381600087803b158015611cb657600080fd5b505af1158015611cca573d6000803e3d6000fd5b505050506040513d6020811015611ce057600080fd5b8101908080519060200190929190505050611d46576040517f08c379a00000000000000000000000000000000000000000000000000000000081526004018080602001828103825260268152602001806122cc6026913960400191505060405180910390fd5b7e3195cc3cce6bd8cab724dba36b9fcdbd8b093db6771402b7b0ff3637f790708385600054604051808481526020018373ffffffffffffffffffffffffffffffffffffffff1673ffffffffffffffffffffffffffffffffffffffff168152602001828152602001935050505060405180910390a150505050565b611dd58260005461207190919063ffffffff16565b600081905550611e3082600460008473ffffffffffffffffffffffffffffffffffffffff1673ffffffffffffffffffffffffffffffffffffffff1681526020019081526020016000206000015461207190919063ffffffff16565b600460008373ffffffffffffffffffffffffffffffffffffffff1673ffffffffffffffffffffffffffffffffffffffff168152602001908152602001600020600001819055506c0c9f2c9cd04674edea400000006000541115611ede576040517f08c379a00000000000000000000000000000000000000000000000000000000081526004018080602001828103825260298152602001806122a36029913960400191505060405180910390fd5b7fb2b3cbe033aa38e93c0eb1ceee79d790e60008cbc021b10eed86e2fa214ae6458282600054604051808481526020018373ffffffffffffffffffffffffffffffffffffffff1673ffffffffffffffffffffffffffffffffffffffff168152602001828152602001935050505060405180910390a15050565b600080831415611f6a5760009050611fd7565b6000828402905082848281611f7b57fe5b0414611fd2576040517f08c379a00000000000000000000000000000000000000000000000000000000081526004018080602001828103825260218152602001806122f26021913960400191505060405180910390fd5b809150505b92915050565b600061201f83836040518060400160405280601a81526020017f536166654d6174683a206469766973696f6e206279207a65726f0000000000008152506120f9565b905092915050565b600061206983836040518060400160405280601e81526020017f536166654d6174683a207375627472616374696f6e206f766572666c6f7700008152506121bf565b905092915050565b6000808284019050838110156120ef576040517f08c379a000000000000000000000000000000000000000000000000000000000815260040180806020018281038252601b8152602001807f536166654d6174683a206164646974696f6e206f766572666c6f77000000000081525060200191505060405180910390fd5b8091505092915050565b600080831182906121a5576040517f08c379a00000000000000000000000000000000000000000000000000000000081526004018080602001828103825283818151815260200191508051906020019080838360005b8381101561216a57808201518184015260208101905061214f565b50505050905090810190601f1680156121975780820380516001836020036101000a031916815260200191505b509250505060405180910390fd5b5060008385816121b157fe5b049050809150509392505050565b600083831115829061226c576040517f08c379a00000000000000000000000000000000000000000000000000000000081526004018080602001828103825283818151815260200191508051906020019080838360005b83811015612231578082015181840152602081019050612216565b50505050905090810190601f16801561225e5780820380516001836020036101000a031916815260200191505b509250505060405180910390fd5b506000838503905080915050939250505056fe4d6f6c6f6368506f6f6c3a204465706f736974207472616e73666572206661696c65644d6f6c6f6368506f6f6c3a204d6178206e756d626572206f66207368617265732065786365656465644d6f6c6f6368506f6f6c3a205769746864726177616c207472616e73666572206661696c6564536166654d6174683a206d756c7469706c69636174696f6e206f766572666c6f774d6f6c6f6368506f6f6c3a2053656e646572206973206e6f742061206b65657065724d6f6c6f6368506f6f6c3a204e6f7420656e6f7567682073686172657320746f206275726e4d6f6c6f6368506f6f6c3a2050726f706f73616c20696e64657820746f6f20686967684d6f6c6f6368506f6f6c3a20496e697469616c20746f6b656e73207472616e73666572206661696c6564a265627a7a7231582047fbe43cb72e4b02dcbbacce6cea1c0a72e8cd83b1492f485afda58e38cdfae664736f6c63430005100032",
  "source": "// Pool.sol\n// - mints a pool share when someone donates tokens\n// - syncs with Moloch proposal queue to mint shares for grantees\n// - allows donors to withdraw tokens at any time\n\npragma solidity ^0.5.0;\n\nimport \"./Moloch.sol\";\nimport \"@openzeppelin/contracts-ethereum-package/contracts/math/SafeMath.sol\";\nimport \"@openzeppelin/contracts-ethereum-package/contracts/token/ERC20/IERC20.sol\";\n\ncontract MolochPool {\n    using SafeMath for uint256;\n\n    event Sync (\n        uint256 currentProposalIndex\n    );\n\n    event Deposit (\n        address donor,\n        uint256 sharesMinted,\n        uint256 tokensDeposited\n    );\n\n    event Withdraw (\n        address donor,\n        uint256 sharesBurned\n    );\n\n    event KeeperWithdraw (\n        address donor,\n        uint256 sharesBurned,\n        address keeper\n    );\n\n    event AddKeepers (\n        address donor,\n        address[] addedKeepers\n    );\n\n    event RemoveKeepers (\n        address donor,\n        address[] removedKeepers\n    );\n\n    event SharesMinted (\n        uint256 sharesToMint,\n        address recipient,\n        uint256 totalPoolShares\n    );\n\n    event SharesBurned (\n        uint256 sharesToBurn,\n        address recipient,\n        uint256 totalPoolShares\n    );\n\n    uint256 public totalPoolShares = 0; // the total shares outstanding of the pool\n    uint256 public currentProposalIndex = 0; // the moloch proposal index that this pool has been synced to\n\n    Moloch public moloch; // moloch contract reference\n    IERC20 public approvedToken; // approved token contract reference (copied from moloch contract)\n\n    bool locked; // prevent re-entrancy\n\n    uint256 constant MAX_NUMBER_OF_SHARES = 10**30; // maximum number of shares that can be minted\n\n    struct Donor {\n        uint256 shares;\n        mapping (address => bool) keepers;\n    }\n\n    // the amount of shares each pool shareholder has\n    mapping (address => Donor) public donors;\n\n    modifier active {\n        require(totalPoolShares > 0, \"MolochPool: Not active\");\n        _;\n    }\n\n    modifier noReentrancy() {\n        require(!locked, \"MolochPool: Reentrant call\");\n        locked = true;\n        _;\n        locked = false;\n    }\n\n    constructor(address _moloch) public {\n        moloch = Moloch(_moloch);\n        approvedToken = IERC20(moloch.approvedToken());\n    }\n\n    function activate(uint256 initialTokens, uint256 initialPoolShares) public noReentrancy {\n        require(totalPoolShares == 0, \"MolochPool: Already active\");\n\n        require(\n            approvedToken.transferFrom(msg.sender, address(this), initialTokens),\n            \"MolochPool: Initial tokens transfer failed\"\n        );\n        _mintSharesForAddress(initialPoolShares, msg.sender);\n    }\n\n    // updates Pool state based on Moloch proposal queue\n    // - we only want to mint shares for grants, which are 0 tribute\n    // - mints pool shares to applicants based on sharesRequested / maxTotalSharesAtYesVote\n    // - use maxTotalSharesAtYesVote because:\n    //   - cant read shares at the time of proposal processing (womp womp)\n    //   - should be close enough if grant shares are small relative to total shares, which they should be\n    //   - protects pool contributors if many Moloch members ragequit before the proposal is processed by reducing follow on funding\n    //   - e.g. if 50% of Moloch shares ragequit after someone voted yes, the grant proposal would get 50% less follow-on from the pool\n    function sync(uint256 toIndex) public active noReentrancy {\n        require(\n            toIndex <= moloch.getProposalQueueLength(),\n            \"MolochPool: Proposal index too high\"\n        );\n\n        // declare proposal params\n        address applicant;\n        uint256 sharesRequested;\n        bool processed;\n        bool didPass;\n        bool aborted;\n        uint256 tokenTribute;\n        uint256 maxTotalSharesAtYesVote;\n\n        uint256 i = currentProposalIndex;\n\n        while (i < toIndex) {\n\n            (, applicant, , sharesRequested, , , , processed, didPass, aborted, tokenTribute, , maxTotalSharesAtYesVote) = moloch.proposalQueue(i);\n\n            if (!processed) { break; }\n\n            // passing grant proposal, mint pool shares proportionally on behalf of the applicant\n            if (!aborted && didPass && tokenTribute == 0 && sharesRequested > 0) {\n                // This can't revert:\n                //   1. maxTotalSharesAtYesVote > 0, otherwise nobody could have voted.\n                //   2. sharesRequested is <= 10**18 (see Moloch.sol:172), and\n                //      totalPoolShares <= 10**30, so multiplying them is <= 10**48 and < 2**160\n                uint256 sharesToMint = totalPoolShares.mul(sharesRequested).div(maxTotalSharesAtYesVote); // for a passing proposal, maxTotalSharesAtYesVote is > 0\n                _mintSharesForAddress(sharesToMint, applicant);\n            }\n\n            i++;\n        }\n\n        currentProposalIndex = i;\n\n        emit Sync(currentProposalIndex);\n    }\n\n    // add tokens to the pool, mint new shares proportionally\n    function deposit(uint256 tokenAmount) public active noReentrancy {\n\n        uint256 sharesToMint = totalPoolShares.mul(tokenAmount).div(approvedToken.balanceOf(address(this)));\n\n        require(\n            approvedToken.transferFrom(msg.sender, address(this), tokenAmount),\n            \"MolochPool: Deposit transfer failed\"\n        );\n\n        _mintSharesForAddress(sharesToMint, msg.sender);\n\n        emit Deposit(\n            msg.sender,\n            sharesToMint,\n            tokenAmount\n        );\n    }\n\n    // burn shares to proportionally withdraw tokens in pool\n    function withdraw(uint256 sharesToBurn) public active noReentrancy {\n        _withdraw(msg.sender, sharesToBurn);\n\n        emit Withdraw(\n            msg.sender,\n            sharesToBurn\n        );\n    }\n\n    // keeper burns shares to withdraw on behalf of the donor\n    function keeperWithdraw(uint256 sharesToBurn, address recipient) public active noReentrancy {\n        require(\n            donors[recipient].keepers[msg.sender],\n            \"MolochPool: Sender is not a keeper\"\n        );\n\n        _withdraw(recipient, sharesToBurn);\n\n        emit KeeperWithdraw(\n            recipient,\n            sharesToBurn,\n            msg.sender\n        );\n    }\n\n    function addKeepers(address[] calldata newKeepers) external active noReentrancy {\n        Donor storage donor = donors[msg.sender];\n\n        for (uint256 i = 0; i < newKeepers.length; i++) {\n            donor.keepers[newKeepers[i]] = true;\n        }\n\n        emit AddKeepers(msg.sender, newKeepers);\n    }\n\n    function removeKeepers(address[] calldata keepersToRemove) external active noReentrancy {\n        Donor storage donor = donors[msg.sender];\n\n        for (uint256 i = 0; i < keepersToRemove.length; i++) {\n            donor.keepers[keepersToRemove[i]] = false;\n        }\n\n        emit RemoveKeepers(msg.sender, keepersToRemove);\n    }\n\n    function _mintSharesForAddress(uint256 sharesToMint, address recipient) internal {\n        totalPoolShares = totalPoolShares.add(sharesToMint);\n        donors[recipient].shares = donors[recipient].shares.add(sharesToMint);\n\n        require(\n            totalPoolShares <= MAX_NUMBER_OF_SHARES,\n            \"MolochPool: Max number of shares exceeded\"\n        );\n\n        emit SharesMinted(\n            sharesToMint,\n            recipient,\n            totalPoolShares\n        );\n    }\n\n    function _withdraw(address recipient, uint256 sharesToBurn) internal {\n        Donor storage donor = donors[recipient];\n\n        require(\n            donor.shares >= sharesToBurn,\n            \"MolochPool: Not enough shares to burn\"\n        );\n\n        uint256 tokensToWithdraw = approvedToken.balanceOf(address(this)).mul(sharesToBurn).div(totalPoolShares);\n\n        totalPoolShares = totalPoolShares.sub(sharesToBurn);\n        donor.shares = donor.shares.sub(sharesToBurn);\n\n        require(\n            approvedToken.transfer(recipient, tokensToWithdraw),\n            \"MolochPool: Withdrawal transfer failed\"\n        );\n\n        emit SharesBurned(\n            sharesToBurn,\n            recipient,\n            totalPoolShares\n        );\n    }\n\n}",
  "sourcePath": "/Users/bendi/Development/endaoment/contracts/Pool.sol",
  "compiler": {
    "name": "solc",
    "version": "0.5.16+commit.9c3226ce.Emscripten.clang"
  },
  "schemaVersion": "3.0.23",
  "updatedAt": "2020-02-16T00:42:59.165Z",
  "devdoc": {
    "methods": {}
  },
  "userdoc": {
    "methods": {}
  }
}