{
  "contractName": "Moloch",
  "abi": [
    {
      "inputs": [
        {
          "internalType": "address",
          "name": "summoner",
          "type": "address"
        },
        {
          "internalType": "address",
          "name": "_approvedToken",
          "type": "address"
        },
        {
          "internalType": "uint256",
          "name": "_periodDuration",
          "type": "uint256"
        },
        {
          "internalType": "uint256",
          "name": "_votingPeriodLength",
          "type": "uint256"
        },
        {
          "internalType": "uint256",
          "name": "_gracePeriodLength",
          "type": "uint256"
        },
        {
          "internalType": "uint256",
          "name": "_abortWindow",
          "type": "uint256"
        },
        {
          "internalType": "uint256",
          "name": "_proposalDeposit",
          "type": "uint256"
        },
        {
          "internalType": "uint256",
          "name": "_dilutionBound",
          "type": "uint256"
        },
        {
          "internalType": "uint256",
          "name": "_processingReward",
          "type": "uint256"
        }
      ],
      "payable": false,
      "stateMutability": "nonpayable",
      "type": "constructor"
    },
    {
      "anonymous": false,
      "inputs": [
        {
          "indexed": true,
          "internalType": "uint256",
          "name": "proposalIndex",
          "type": "uint256"
        },
        {
          "indexed": false,
          "internalType": "address",
          "name": "applicantAddress",
          "type": "address"
        }
      ],
      "name": "Abort",
      "type": "event"
    },
    {
      "anonymous": false,
      "inputs": [
        {
          "indexed": true,
          "internalType": "uint256",
          "name": "proposalIndex",
          "type": "uint256"
        },
        {
          "indexed": true,
          "internalType": "address",
          "name": "applicant",
          "type": "address"
        },
        {
          "indexed": true,
          "internalType": "address",
          "name": "memberAddress",
          "type": "address"
        },
        {
          "indexed": false,
          "internalType": "uint256",
          "name": "tokenTribute",
          "type": "uint256"
        },
        {
          "indexed": false,
          "internalType": "uint256",
          "name": "sharesRequested",
          "type": "uint256"
        },
        {
          "indexed": false,
          "internalType": "bool",
          "name": "didPass",
          "type": "bool"
        }
      ],
      "name": "ProcessProposal",
      "type": "event"
    },
    {
      "anonymous": false,
      "inputs": [
        {
          "indexed": true,
          "internalType": "address",
          "name": "memberAddress",
          "type": "address"
        },
        {
          "indexed": false,
          "internalType": "uint256",
          "name": "sharesToBurn",
          "type": "uint256"
        }
      ],
      "name": "Ragequit",
      "type": "event"
    },
    {
      "anonymous": false,
      "inputs": [
        {
          "indexed": false,
          "internalType": "uint256",
          "name": "proposalIndex",
          "type": "uint256"
        },
        {
          "indexed": true,
          "internalType": "address",
          "name": "delegateKey",
          "type": "address"
        },
        {
          "indexed": true,
          "internalType": "address",
          "name": "memberAddress",
          "type": "address"
        },
        {
          "indexed": true,
          "internalType": "address",
          "name": "applicant",
          "type": "address"
        },
        {
          "indexed": false,
          "internalType": "uint256",
          "name": "tokenTribute",
          "type": "uint256"
        },
        {
          "indexed": false,
          "internalType": "uint256",
          "name": "sharesRequested",
          "type": "uint256"
        }
      ],
      "name": "SubmitProposal",
      "type": "event"
    },
    {
      "anonymous": false,
      "inputs": [
        {
          "indexed": true,
          "internalType": "uint256",
          "name": "proposalIndex",
          "type": "uint256"
        },
        {
          "indexed": true,
          "internalType": "address",
          "name": "delegateKey",
          "type": "address"
        },
        {
          "indexed": true,
          "internalType": "address",
          "name": "memberAddress",
          "type": "address"
        },
        {
          "indexed": false,
          "internalType": "uint8",
          "name": "uintVote",
          "type": "uint8"
        }
      ],
      "name": "SubmitVote",
      "type": "event"
    },
    {
      "anonymous": false,
      "inputs": [
        {
          "indexed": true,
          "internalType": "address",
          "name": "summoner",
          "type": "address"
        },
        {
          "indexed": false,
          "internalType": "uint256",
          "name": "shares",
          "type": "uint256"
        }
      ],
      "name": "SummonComplete",
      "type": "event"
    },
    {
      "anonymous": false,
      "inputs": [
        {
          "indexed": true,
          "internalType": "address",
          "name": "memberAddress",
          "type": "address"
        },
        {
          "indexed": false,
          "internalType": "address",
          "name": "newDelegateKey",
          "type": "address"
        }
      ],
      "name": "UpdateDelegateKey",
      "type": "event"
    },
    {
      "constant": true,
      "inputs": [],
      "name": "abortWindow",
      "outputs": [
        {
          "internalType": "uint256",
          "name": "",
          "type": "uint256"
        }
      ],
      "payable": false,
      "stateMutability": "view",
      "type": "function"
    },
    {
      "constant": true,
      "inputs": [],
      "name": "approvedToken",
      "outputs": [
        {
          "internalType": "contract IERC20",
          "name": "",
          "type": "address"
        }
      ],
      "payable": false,
      "stateMutability": "view",
      "type": "function"
    },
    {
      "constant": true,
      "inputs": [],
      "name": "dilutionBound",
      "outputs": [
        {
          "internalType": "uint256",
          "name": "",
          "type": "uint256"
        }
      ],
      "payable": false,
      "stateMutability": "view",
      "type": "function"
    },
    {
      "constant": true,
      "inputs": [],
      "name": "gracePeriodLength",
      "outputs": [
        {
          "internalType": "uint256",
          "name": "",
          "type": "uint256"
        }
      ],
      "payable": false,
      "stateMutability": "view",
      "type": "function"
    },
    {
      "constant": true,
      "inputs": [],
      "name": "guildBank",
      "outputs": [
        {
          "internalType": "contract GuildBank",
          "name": "",
          "type": "address"
        }
      ],
      "payable": false,
      "stateMutability": "view",
      "type": "function"
    },
    {
      "constant": true,
      "inputs": [
        {
          "internalType": "address",
          "name": "",
          "type": "address"
        }
      ],
      "name": "memberAddressByDelegateKey",
      "outputs": [
        {
          "internalType": "address",
          "name": "",
          "type": "address"
        }
      ],
      "payable": false,
      "stateMutability": "view",
      "type": "function"
    },
    {
      "constant": true,
      "inputs": [
        {
          "internalType": "address",
          "name": "",
          "type": "address"
        }
      ],
      "name": "members",
      "outputs": [
        {
          "internalType": "address",
          "name": "delegateKey",
          "type": "address"
        },
        {
          "internalType": "uint256",
          "name": "shares",
          "type": "uint256"
        },
        {
          "internalType": "bool",
          "name": "exists",
          "type": "bool"
        },
        {
          "internalType": "uint256",
          "name": "highestIndexYesVote",
          "type": "uint256"
        }
      ],
      "payable": false,
      "stateMutability": "view",
      "type": "function"
    },
    {
      "constant": true,
      "inputs": [],
      "name": "periodDuration",
      "outputs": [
        {
          "internalType": "uint256",
          "name": "",
          "type": "uint256"
        }
      ],
      "payable": false,
      "stateMutability": "view",
      "type": "function"
    },
    {
      "constant": true,
      "inputs": [],
      "name": "processingReward",
      "outputs": [
        {
          "internalType": "uint256",
          "name": "",
          "type": "uint256"
        }
      ],
      "payable": false,
      "stateMutability": "view",
      "type": "function"
    },
    {
      "constant": true,
      "inputs": [],
      "name": "proposalDeposit",
      "outputs": [
        {
          "internalType": "uint256",
          "name": "",
          "type": "uint256"
        }
      ],
      "payable": false,
      "stateMutability": "view",
      "type": "function"
    },
    {
      "constant": true,
      "inputs": [
        {
          "internalType": "uint256",
          "name": "",
          "type": "uint256"
        }
      ],
      "name": "proposalQueue",
      "outputs": [
        {
          "internalType": "address",
          "name": "proposer",
          "type": "address"
        },
        {
          "internalType": "address",
          "name": "applicant",
          "type": "address"
        },
        {
          "internalType": "bool",
          "name": "isRecipientProposal",
          "type": "bool"
        },
        {
          "internalType": "uint256",
          "name": "sharesRequested",
          "type": "uint256"
        },
        {
          "internalType": "uint256",
          "name": "startingPeriod",
          "type": "uint256"
        },
        {
          "internalType": "uint256",
          "name": "yesVotes",
          "type": "uint256"
        },
        {
          "internalType": "uint256",
          "name": "noVotes",
          "type": "uint256"
        },
        {
          "internalType": "bool",
          "name": "processed",
          "type": "bool"
        },
        {
          "internalType": "bool",
          "name": "didPass",
          "type": "bool"
        },
        {
          "internalType": "bool",
          "name": "aborted",
          "type": "bool"
        },
        {
          "internalType": "uint256",
          "name": "tokenTribute",
          "type": "uint256"
        },
        {
          "internalType": "string",
          "name": "details",
          "type": "string"
        },
        {
          "internalType": "uint256",
          "name": "maxTotalSharesAtYesVote",
          "type": "uint256"
        }
      ],
      "payable": false,
      "stateMutability": "view",
      "type": "function"
    },
    {
      "constant": true,
      "inputs": [],
      "name": "recipient",
      "outputs": [
        {
          "internalType": "address",
          "name": "",
          "type": "address"
        }
      ],
      "payable": false,
      "stateMutability": "view",
      "type": "function"
    },
    {
      "constant": true,
      "inputs": [],
      "name": "summoningTime",
      "outputs": [
        {
          "internalType": "uint256",
          "name": "",
          "type": "uint256"
        }
      ],
      "payable": false,
      "stateMutability": "view",
      "type": "function"
    },
    {
      "constant": true,
      "inputs": [],
      "name": "totalShares",
      "outputs": [
        {
          "internalType": "uint256",
          "name": "",
          "type": "uint256"
        }
      ],
      "payable": false,
      "stateMutability": "view",
      "type": "function"
    },
    {
      "constant": true,
      "inputs": [],
      "name": "totalSharesRequested",
      "outputs": [
        {
          "internalType": "uint256",
          "name": "",
          "type": "uint256"
        }
      ],
      "payable": false,
      "stateMutability": "view",
      "type": "function"
    },
    {
      "constant": true,
      "inputs": [],
      "name": "votingPeriodLength",
      "outputs": [
        {
          "internalType": "uint256",
          "name": "",
          "type": "uint256"
        }
      ],
      "payable": false,
      "stateMutability": "view",
      "type": "function"
    },
    {
      "constant": false,
      "inputs": [
        {
          "internalType": "address",
          "name": "applicant",
          "type": "address"
        },
        {
          "internalType": "uint256",
          "name": "tokenTribute",
          "type": "uint256"
        },
        {
          "internalType": "uint256",
          "name": "sharesRequested",
          "type": "uint256"
        },
        {
          "internalType": "string",
          "name": "details",
          "type": "string"
        }
      ],
      "name": "submitProposal",
      "outputs": [],
      "payable": false,
      "stateMutability": "nonpayable",
      "type": "function"
    },
    {
      "constant": false,
      "inputs": [
        {
          "internalType": "address",
          "name": "_recipient",
          "type": "address"
        },
        {
          "internalType": "string",
          "name": "details",
          "type": "string"
        }
      ],
      "name": "submitRecipientProposal",
      "outputs": [],
      "payable": false,
      "stateMutability": "nonpayable",
      "type": "function"
    },
    {
      "constant": false,
      "inputs": [
        {
          "internalType": "uint256",
          "name": "proposalIndex",
          "type": "uint256"
        },
        {
          "internalType": "uint8",
          "name": "uintVote",
          "type": "uint8"
        }
      ],
      "name": "submitVote",
      "outputs": [],
      "payable": false,
      "stateMutability": "nonpayable",
      "type": "function"
    },
    {
      "constant": false,
      "inputs": [
        {
          "internalType": "uint256",
          "name": "proposalIndex",
          "type": "uint256"
        }
      ],
      "name": "processProposal",
      "outputs": [],
      "payable": false,
      "stateMutability": "nonpayable",
      "type": "function"
    },
    {
      "constant": false,
      "inputs": [
        {
          "internalType": "uint256",
          "name": "proposalIndex",
          "type": "uint256"
        }
      ],
      "name": "processRecipientProposal",
      "outputs": [],
      "payable": false,
      "stateMutability": "nonpayable",
      "type": "function"
    },
    {
      "constant": false,
      "inputs": [
        {
          "internalType": "uint256",
          "name": "sharesToBurn",
          "type": "uint256"
        }
      ],
      "name": "ragequit",
      "outputs": [],
      "payable": false,
      "stateMutability": "nonpayable",
      "type": "function"
    },
    {
      "constant": false,
      "inputs": [
        {
          "internalType": "uint256",
          "name": "proposalIndex",
          "type": "uint256"
        }
      ],
      "name": "abort",
      "outputs": [],
      "payable": false,
      "stateMutability": "nonpayable",
      "type": "function"
    },
    {
      "constant": false,
      "inputs": [
        {
          "internalType": "address",
          "name": "newDelegateKey",
          "type": "address"
        }
      ],
      "name": "updateDelegateKey",
      "outputs": [],
      "payable": false,
      "stateMutability": "nonpayable",
      "type": "function"
    },
    {
      "constant": true,
      "inputs": [],
      "name": "getCurrentPeriod",
      "outputs": [
        {
          "internalType": "uint256",
          "name": "",
          "type": "uint256"
        }
      ],
      "payable": false,
      "stateMutability": "view",
      "type": "function"
    },
    {
      "constant": true,
      "inputs": [],
      "name": "getProposalQueueLength",
      "outputs": [
        {
          "internalType": "uint256",
          "name": "",
          "type": "uint256"
        }
      ],
      "payable": false,
      "stateMutability": "view",
      "type": "function"
    },
    {
      "constant": true,
      "inputs": [
        {
          "internalType": "uint256",
          "name": "highestIndexYesVote",
          "type": "uint256"
        }
      ],
      "name": "canRagequit",
      "outputs": [
        {
          "internalType": "bool",
          "name": "",
          "type": "bool"
        }
      ],
      "payable": false,
      "stateMutability": "view",
      "type": "function"
    },
    {
      "constant": true,
      "inputs": [
        {
          "internalType": "uint256",
          "name": "startingPeriod",
          "type": "uint256"
        }
      ],
      "name": "hasVotingPeriodExpired",
      "outputs": [
        {
          "internalType": "bool",
          "name": "",
          "type": "bool"
        }
      ],
      "payable": false,
      "stateMutability": "view",
      "type": "function"
    },
    {
      "constant": true,
      "inputs": [
        {
          "internalType": "address",
          "name": "memberAddress",
          "type": "address"
        },
        {
          "internalType": "uint256",
          "name": "proposalIndex",
          "type": "uint256"
        }
      ],
      "name": "getMemberProposalVote",
      "outputs": [
        {
          "internalType": "enum Moloch.Vote",
          "name": "",
          "type": "uint8"
        }
      ],
      "payable": false,
      "stateMutability": "view",
      "type": "function"
    }
  ],
  "bytecode": "0x60806040526000600a556000600b553480156200001b57600080fd5b5060405162007dda38038062007dda83398181016040526101208110156200004257600080fd5b81019080805190602001909291908051906020019092919080519060200190929190805190602001909291908051906020019092919080519060200190929190805190602001909291908051906020019092919080519060200190929190505050600073ffffffffffffffffffffffffffffffffffffffff168973ffffffffffffffffffffffffffffffffffffffff1614156200012b576040517f08c379a000000000000000000000000000000000000000000000000000000000815260040180806020018281038252602a81526020018062007ba5602a913960400191505060405180910390fd5b600073ffffffffffffffffffffffffffffffffffffffff168873ffffffffffffffffffffffffffffffffffffffff161415620001b3576040517f08c379a000000000000000000000000000000000000000000000000000000000815260040180806020018281038252603081526020018062007d7a6030913960400191505060405180910390fd5b600087116200020e576040517f08c379a000000000000000000000000000000000000000000000000000000000815260040180806020018281038252603181526020018062007d496031913960400191505060405180910390fd5b6000861162000269576040517f08c379a000000000000000000000000000000000000000000000000000000000815260040180806020018281038252603581526020018062007d146035913960400191505060405180910390fd5b670de0b6b3a7640000861115620002cc576040517f08c379a000000000000000000000000000000000000000000000000000000000815260040180806020018281038252603781526020018062007bcf6037913960400191505060405180910390fd5b670de0b6b3a76400008511156200032f576040517f08c379a000000000000000000000000000000000000000000000000000000000815260040180806020018281038252603681526020018062007cde6036913960400191505060405180910390fd5b600084116200038a576040517f08c379a000000000000000000000000000000000000000000000000000000000815260040180806020018281038252602e81526020018062007b77602e913960400191505060405180910390fd5b85841115620003e5576040517f08c379a000000000000000000000000000000000000000000000000000000000815260040180806020018281038252605781526020018062007c876057913960600191505060405180910390fd5b6000821162000440576040517f08c379a000000000000000000000000000000000000000000000000000000000815260040180806020018281038252603081526020018062007daa6030913960400191505060405180910390fd5b670de0b6b3a7640000821115620004a3576040517f08c379a000000000000000000000000000000000000000000000000000000000815260040180806020018281038252603281526020018062007c556032913960400191505060405180910390fd5b80831015620004fe576040517f08c379a000000000000000000000000000000000000000000000000000000000815260040180806020018281038252604f81526020018062007c06604f913960600191505060405180910390fd5b87600860006101000a81548173ffffffffffffffffffffffffffffffffffffffff021916908373ffffffffffffffffffffffffffffffffffffffff160217905550876040516200054e906200085a565b808273ffffffffffffffffffffffffffffffffffffffff1673ffffffffffffffffffffffffffffffffffffffff168152602001915050604051809103906000f080158015620005a1573d6000803e3d6000fd5b50600960006101000a81548173ffffffffffffffffffffffffffffffffffffffff021916908373ffffffffffffffffffffffffffffffffffffffff160217905550600960009054906101000a900473ffffffffffffffffffffffffffffffffffffffff16600f60006101000a81548173ffffffffffffffffffffffffffffffffffffffff021916908373ffffffffffffffffffffffffffffffffffffffff160217905550866000819055508560018190555084600281905550836003819055508260048190555081600581905550806006819055504260078190555060405180608001604052808a73ffffffffffffffffffffffffffffffffffffffff168152602001600181526020016001151581526020016000815250600c60008b73ffffffffffffffffffffffffffffffffffffffff1673ffffffffffffffffffffffffffffffffffffffff16815260200190815260200160002060008201518160000160006101000a81548173ffffffffffffffffffffffffffffffffffffffff021916908373ffffffffffffffffffffffffffffffffffffffff1602179055506020820151816001015560408201518160020160006101000a81548160ff0219169083151502179055506060820151816003015590505088600d60008b73ffffffffffffffffffffffffffffffffffffffff1673ffffffffffffffffffffffffffffffffffffffff16815260200190815260200160002060006101000a81548173ffffffffffffffffffffffffffffffffffffffff021916908373ffffffffffffffffffffffffffffffffffffffff1602179055506001600a819055508873ffffffffffffffffffffffffffffffffffffffff167f03995a801b13c36325306deef859ef977ce61c6e15a794281bf969d20482522760016040518082815260200191505060405180910390a250505050505050505062000868565b6119a180620061d683390190565b61595e80620008786000396000f3fe608060405234801561001057600080fd5b50600436106101cf5760003560e01c8063797daf701161010457806399653fbe116100a2578063b470aade11610071578063b470aade146109d7578063bab46259146109f5578063e50701f414610a3f578063e63bc62d14610a6d576101cf565b806399653fbe146108ee578063a3dc380014610929578063a42afd291461096f578063afe5475f146109b9576101cf565b80638436593f116100de5780638436593f1461076d5780638b15a6051461079b5780639425a476146107b9578063962006c3146107ff576101cf565b8063797daf70146107135780637d5b6c72146107315780638340bbce1461074f576101cf565b80633b214a74116101715780636320c7f71161014b5780636320c7f71461065f57806363858f2d1461068d57806366d003ac146106ab5780637896ddaf146106f5576101cf565b80633b214a741461039d578063402c1794146105005780634b79b20714610584576101cf565b806308ae4b0c116101ad57806308ae4b0c146102805780631a396a4a1461031d5780632582bf2a1461033b5780633a98ef391461037f576101cf565b806303e32fa1146101d4578063044a0ca8146101f2578063086146d214610262575b600080fd5b6101dc610a9b565b6040518082815260200191505060405180910390f35b61023e6004803603604081101561020857600080fd5b81019080803573ffffffffffffffffffffffffffffffffffffffff16906020019092919080359060200190929190505050610aa1565b6040518082600281111561024e57fe5b60ff16815260200191505060405180910390f35b61026a610c16565b6040518082815260200191505060405180910390f35b6102c26004803603602081101561029657600080fd5b81019080803573ffffffffffffffffffffffffffffffffffffffff169060200190929190505050610c46565b604051808573ffffffffffffffffffffffffffffffffffffffff1673ffffffffffffffffffffffffffffffffffffffff1681526020018481526020018315151515815260200182815260200194505050505060405180910390f35b610325610ca3565b6040518082815260200191505060405180910390f35b61037d6004803603602081101561035157600080fd5b81019080803573ffffffffffffffffffffffffffffffffffffffff169060200190929190505050610ca9565b005b6103876111ce565b6040518082815260200191505060405180910390f35b6103c9600480360360208110156103b357600080fd5b81019080803590602001909291905050506111d4565b604051808e73ffffffffffffffffffffffffffffffffffffffff1673ffffffffffffffffffffffffffffffffffffffff1681526020018d73ffffffffffffffffffffffffffffffffffffffff1673ffffffffffffffffffffffffffffffffffffffff1681526020018c1515151581526020018b81526020018a815260200189815260200188815260200187151515158152602001861515151581526020018515151515815260200184815260200180602001838152602001828103825284818151815260200191508051906020019080838360005b838110156104b957808201518184015260208101905061049e565b50505050905090810190601f1680156104e65780820380516001836020036101000a031916815260200191505b509e50505050505050505050505050505060405180910390f35b6105426004803603602081101561051657600080fd5b81019080803573ffffffffffffffffffffffffffffffffffffffff169060200190929190505050611353565b604051808273ffffffffffffffffffffffffffffffffffffffff1673ffffffffffffffffffffffffffffffffffffffff16815260200191505060405180910390f35b61065d6004803603604081101561059a57600080fd5b81019080803573ffffffffffffffffffffffffffffffffffffffff169060200190929190803590602001906401000000008111156105d757600080fd5b8201836020820111156105e957600080fd5b8035906020019184600183028401116401000000008311171561060b57600080fd5b91908080601f016020809104026020016040519081016040528093929190818152602001838380828437600081840152601f19601f820116905080830192505050505050509192919290505050611386565b005b61068b6004803603602081101561067557600080fd5b8101908080359060200190929190505050611bb5565b005b610695612347565b6040518082815260200191505060405180910390f35b6106b361234d565b604051808273ffffffffffffffffffffffffffffffffffffffff1673ffffffffffffffffffffffffffffffffffffffff16815260200191505060405180910390f35b6106fd612373565b6040518082815260200191505060405180910390f35b61071b612379565b6040518082815260200191505060405180910390f35b610739612386565b6040518082815260200191505060405180910390f35b61075761238c565b6040518082815260200191505060405180910390f35b6107996004803603602081101561078357600080fd5b8101908080359060200190929190505050612392565b005b6107a36126f4565b6040518082815260200191505060405180910390f35b6107e5600480360360208110156107cf57600080fd5b81019080803590602001909291905050506126fa565b604051808215151515815260200191505060405180910390f35b6108ec6004803603608081101561081557600080fd5b81019080803573ffffffffffffffffffffffffffffffffffffffff16906020019092919080359060200190929190803590602001909291908035906020019064010000000081111561086657600080fd5b82018360208201111561087857600080fd5b8035906020019184600183028401116401000000008311171561089a57600080fd5b91908080601f016020809104026020016040519081016040528093929190818152602001838380828437600081840152601f19601f820116905080830192505050505050509192919290505050612722565b005b6109276004803603604081101561090457600080fd5b8101908080359060200190929190803560ff16906020019092919050505061303e565b005b6109556004803603602081101561093f57600080fd5b81019080803590602001909291905050506136d5565b604051808215151515815260200191505060405180910390f35b610977613767565b604051808273ffffffffffffffffffffffffffffffffffffffff1673ffffffffffffffffffffffffffffffffffffffff16815260200191505060405180910390f35b6109c161378d565b6040518082815260200191505060405180910390f35b6109df613793565b6040518082815260200191505060405180910390f35b6109fd613799565b604051808273ffffffffffffffffffffffffffffffffffffffff1673ffffffffffffffffffffffffffffffffffffffff16815260200191505060405180910390f35b610a6b60048036036020811015610a5557600080fd5b81019080803590602001909291905050506137bf565b005b610a9960048036036020811015610a8357600080fd5b8101908080359060200190929190505050613bb8565b005b60065481565b6000600c60008473ffffffffffffffffffffffffffffffffffffffff1673ffffffffffffffffffffffffffffffffffffffff16815260200190815260200160002060020160009054906101000a900460ff16610b48576040517f08c379a000000000000000000000000000000000000000000000000000000000815260040180806020018281038252603481526020018061558b6034913960400191505060405180910390fd5b600e805490508210610ba5576040517f08c379a00000000000000000000000000000000000000000000000000000000081526004018080602001828103825260368152602001806152fc6036913960400191505060405180910390fd5b600e8281548110610bb257fe5b90600052602060002090600b0201600a0160008473ffffffffffffffffffffffffffffffffffffffff1673ffffffffffffffffffffffffffffffffffffffff16815260200190815260200160002060009054906101000a900460ff16905092915050565b6000610c41600054610c3360075442614b9a90919063ffffffff16565b614be490919063ffffffff16565b905090565b600c6020528060005260406000206000915090508060000160009054906101000a900473ffffffffffffffffffffffffffffffffffffffff16908060010154908060020160009054906101000a900460ff16908060030154905084565b600b5481565b6000600c60003373ffffffffffffffffffffffffffffffffffffffff1673ffffffffffffffffffffffffffffffffffffffff1681526020019081526020016000206001015411610d44576040517f08c379a000000000000000000000000000000000000000000000000000000000815260040180806020018281038252602181526020018061519b6021913960400191505060405180910390fd5b600073ffffffffffffffffffffffffffffffffffffffff168173ffffffffffffffffffffffffffffffffffffffff161415610dca576040517f08c379a000000000000000000000000000000000000000000000000000000000815260040180806020018281038252603681526020018061581e6036913960400191505060405180910390fd5b3373ffffffffffffffffffffffffffffffffffffffff168173ffffffffffffffffffffffffffffffffffffffff1614610fa957600c60008273ffffffffffffffffffffffffffffffffffffffff1673ffffffffffffffffffffffffffffffffffffffff16815260200190815260200160002060020160009054906101000a900460ff1615610ea3576040517f08c379a000000000000000000000000000000000000000000000000000000000815260040180806020018281038252603b815260200180615160603b913960400191505060405180910390fd5b600c6000600d60008473ffffffffffffffffffffffffffffffffffffffff1673ffffffffffffffffffffffffffffffffffffffff16815260200190815260200160002060009054906101000a900473ffffffffffffffffffffffffffffffffffffffff1673ffffffffffffffffffffffffffffffffffffffff1673ffffffffffffffffffffffffffffffffffffffff16815260200190815260200160002060020160009054906101000a900460ff1615610fa8576040517f08c379a00000000000000000000000000000000000000000000000000000000081526004018080602001828103825260418152602001806156b66041913960600191505060405180910390fd5b5b6000600c60003373ffffffffffffffffffffffffffffffffffffffff1673ffffffffffffffffffffffffffffffffffffffff16815260200190815260200160002090506000600d60008360000160009054906101000a900473ffffffffffffffffffffffffffffffffffffffff1673ffffffffffffffffffffffffffffffffffffffff1673ffffffffffffffffffffffffffffffffffffffff16815260200190815260200160002060006101000a81548173ffffffffffffffffffffffffffffffffffffffff021916908373ffffffffffffffffffffffffffffffffffffffff16021790555033600d60008473ffffffffffffffffffffffffffffffffffffffff1673ffffffffffffffffffffffffffffffffffffffff16815260200190815260200160002060006101000a81548173ffffffffffffffffffffffffffffffffffffffff021916908373ffffffffffffffffffffffffffffffffffffffff160217905550818160000160006101000a81548173ffffffffffffffffffffffffffffffffffffffff021916908373ffffffffffffffffffffffffffffffffffffffff1602179055503373ffffffffffffffffffffffffffffffffffffffff167fde7b64a369e10562cc2e71f0f1f944eaf144b75fead6ecb51fac9c4dd693488583604051808273ffffffffffffffffffffffffffffffffffffffff1673ffffffffffffffffffffffffffffffffffffffff16815260200191505060405180910390a25050565b600a5481565b600e81815481106111e157fe5b90600052602060002090600b02016000915090508060000160009054906101000a900473ffffffffffffffffffffffffffffffffffffffff16908060010160009054906101000a900473ffffffffffffffffffffffffffffffffffffffff16908060010160149054906101000a900460ff16908060020154908060030154908060040154908060050154908060060160009054906101000a900460ff16908060060160019054906101000a900460ff16908060060160029054906101000a900460ff1690806007015490806008018054600181600116156101000203166002900480601f0160208091040260200160405190810160405280929190818152602001828054600181600116156101000203166002900480156113435780601f1061131857610100808354040283529160200191611343565b820191906000526020600020905b81548152906001019060200180831161132657829003601f168201915b505050505090806009015490508d565b600d6020528060005260406000206000915054906101000a900473ffffffffffffffffffffffffffffffffffffffff1681565b6000600c6000600d60003373ffffffffffffffffffffffffffffffffffffffff1673ffffffffffffffffffffffffffffffffffffffff16815260200190815260200160002060009054906101000a900473ffffffffffffffffffffffffffffffffffffffff1673ffffffffffffffffffffffffffffffffffffffff1673ffffffffffffffffffffffffffffffffffffffff1681526020019081526020016000206001015411611480576040517f08c379a00000000000000000000000000000000000000000000000000000000081526004018080602001828103825260258152602001806152366025913960400191505060405180910390fd5b600073ffffffffffffffffffffffffffffffffffffffff16600f60009054906101000a900473ffffffffffffffffffffffffffffffffffffffff1673ffffffffffffffffffffffffffffffffffffffff161415611528576040517f08c379a00000000000000000000000000000000000000000000000000000000081526004018080602001828103825260378152602001806158f36037913960400191505060405180910390fd5b8173ffffffffffffffffffffffffffffffffffffffff16600f60009054906101000a900473ffffffffffffffffffffffffffffffffffffffff1673ffffffffffffffffffffffffffffffffffffffff1614156115cf576040517f08c379a000000000000000000000000000000000000000000000000000000000815260040180806020018281038252603d815260200180615794603d913960400191505060405180910390fd5b3073ffffffffffffffffffffffffffffffffffffffff16600f60009054906101000a900473ffffffffffffffffffffffffffffffffffffffff1673ffffffffffffffffffffffffffffffffffffffff161415611676576040517f08c379a00000000000000000000000000000000000000000000000000000000081526004018080602001828103825260438152602001806150a66043913960600191505060405180910390fd5b6000600d60003373ffffffffffffffffffffffffffffffffffffffff1673ffffffffffffffffffffffffffffffffffffffff16815260200190815260200160002060009054906101000a900473ffffffffffffffffffffffffffffffffffffffff169050600860009054906101000a900473ffffffffffffffffffffffffffffffffffffffff1673ffffffffffffffffffffffffffffffffffffffff166323b872dd33306004546040518463ffffffff1660e01b8152600401808473ffffffffffffffffffffffffffffffffffffffff1673ffffffffffffffffffffffffffffffffffffffff1681526020018373ffffffffffffffffffffffffffffffffffffffff1673ffffffffffffffffffffffffffffffffffffffff1681526020018281526020019350505050602060405180830381600087803b1580156117b957600080fd5b505af11580156117cd573d6000803e3d6000fd5b505050506040513d60208110156117e357600080fd5b8101908080519060200190929190505050611849576040517f08c379a000000000000000000000000000000000000000000000000000000000815260040180806020018281038252603f815260200180615067603f913960400191505060405180910390fd5b60006118ba60016118ac61185b610c16565b6000600e80549050146118a457600e6118836001600e80549050614b9a90919063ffffffff16565b8154811061188d57fe5b90600052602060002090600b0201600301546118a7565b60005b614c2e565b614c4890919063ffffffff16565b90506118c4614edc565b604051806101a001604052808473ffffffffffffffffffffffffffffffffffffffff1681526020018673ffffffffffffffffffffffffffffffffffffffff1681526020016001151581526020016000815260200183815260200160008152602001600081526020016000151581526020016000151581526020016000151581526020016000815260200185815260200160008152509050600e819080600181540180825580915050906001820390600052602060002090600b02016000909192909190915060008201518160000160006101000a81548173ffffffffffffffffffffffffffffffffffffffff021916908373ffffffffffffffffffffffffffffffffffffffff16021790555060208201518160010160006101000a81548173ffffffffffffffffffffffffffffffffffffffff021916908373ffffffffffffffffffffffffffffffffffffffff16021790555060408201518160010160146101000a81548160ff021916908315150217905550606082015181600201556080820151816003015560a0820151816004015560c0820151816005015560e08201518160060160006101000a81548160ff0219169083151502179055506101008201518160060160016101000a81548160ff0219169083151502179055506101208201518160060160026101000a81548160ff0219169083151502179055506101408201518160070155610160820151816008019080519060200190611ae9929190614f78565b5061018082015181600901555050506000611b136001600e80549050614b9a90919063ffffffff16565b9050600080905060008090508773ffffffffffffffffffffffffffffffffffffffff168673ffffffffffffffffffffffffffffffffffffffff163373ffffffffffffffffffffffffffffffffffffffff167f2d105ebbc222c190059b3979356e13469f6a29a350add74ac3bf4f22f16301d686868660405180848152602001838152602001828152602001935050505060405180910390a45050505050505050565b600e805490508110611c12576040517f08c379a00000000000000000000000000000000000000000000000000000000081526004018080602001828103825260318152602001806158c26031913960400191505060405180910390fd5b6000600e8281548110611c2157fe5b90600052602060002090600b020190508060010160149054906101000a900460ff16611c98576040517f08c379a000000000000000000000000000000000000000000000000000000000815260040180806020018281038252604981526020018061501e6049913960600191505060405180910390fd5b611cc5600254611cb76001548460030154614c4890919063ffffffff16565b614c4890919063ffffffff16565b611ccd610c16565b1015611d24576040517f08c379a000000000000000000000000000000000000000000000000000000000815260040180806020018281038252603f815260200180615291603f913960400191505060405180910390fd5b600015158160060160009054906101000a900460ff16151514611d92576040517f08c379a000000000000000000000000000000000000000000000000000000000815260040180806020018281038252603d815260200180615885603d913960400191505060405180910390fd5b6000821480611ddc5750600e611db2600184614b9a90919063ffffffff16565b81548110611dbc57fe5b90600052602060002090600b020160060160009054906101000a900460ff165b611e31576040517f08c379a000000000000000000000000000000000000000000000000000000000815260040180806020018281038252603d8152602001806154f8603d913960400191505060405180910390fd5b60018160060160006101000a81548160ff021916908315150217905550600081600501548260040154119050808015611e7957508160060160029054906101000a900460ff16155b15611fca5760018260060160016101000a81548160ff02191690831515021790555060008260010160009054906101000a900473ffffffffffffffffffffffffffffffffffffffff16905080600f60006101000a81548173ffffffffffffffffffffffffffffffffffffffff021916908373ffffffffffffffffffffffffffffffffffffffff160217905550600960009054906101000a900473ffffffffffffffffffffffffffffffffffffffff1673ffffffffffffffffffffffffffffffffffffffff16630efaa4de82600a546040518363ffffffff1660e01b8152600401808373ffffffffffffffffffffffffffffffffffffffff1673ffffffffffffffffffffffffffffffffffffffff16815260200182815260200192505050600060405180830381600087803b158015611fb057600080fd5b505af1158015611fc4573d6000803e3d6000fd5b50505050505b600860009054906101000a900473ffffffffffffffffffffffffffffffffffffffff1673ffffffffffffffffffffffffffffffffffffffff1663a9059cbb336006546040518363ffffffff1660e01b8152600401808373ffffffffffffffffffffffffffffffffffffffff1673ffffffffffffffffffffffffffffffffffffffff16815260200182815260200192505050602060405180830381600087803b15801561207557600080fd5b505af1158015612089573d6000803e3d6000fd5b505050506040513d602081101561209f57600080fd5b8101908080519060200190929190505050612105576040517f08c379a00000000000000000000000000000000000000000000000000000000081526004018080602001828103825260488152602001806156306048913960600191505060405180910390fd5b600860009054906101000a900473ffffffffffffffffffffffffffffffffffffffff1673ffffffffffffffffffffffffffffffffffffffff1663a9059cbb8360000160009054906101000a900473ffffffffffffffffffffffffffffffffffffffff1661217f600654600454614b9a90919063ffffffff16565b6040518363ffffffff1660e01b8152600401808373ffffffffffffffffffffffffffffffffffffffff1673ffffffffffffffffffffffffffffffffffffffff16815260200182815260200192505050602060405180830381600087803b1580156121e857600080fd5b505af11580156121fc573d6000803e3d6000fd5b505050506040513d602081101561221257600080fd5b8101908080519060200190929190505050612278576040517f08c379a00000000000000000000000000000000000000000000000000000000081526004018080602001828103825260478152602001806154276047913960600191505060405180910390fd5b8160000160009054906101000a900473ffffffffffffffffffffffffffffffffffffffff1673ffffffffffffffffffffffffffffffffffffffff168260010160009054906101000a900473ffffffffffffffffffffffffffffffffffffffff1673ffffffffffffffffffffffffffffffffffffffff16847f3f6fc303a82367bb4947244ba21c569a5ed2e870610f1a693366142309d7cbea85600701548660020154866040518084815260200183815260200182151515158152602001935050505060405180910390a4505050565b60025481565b600f60009054906101000a900473ffffffffffffffffffffffffffffffffffffffff1681565b60035481565b6000600e80549050905090565b60075481565b60015481565b6000600c60003373ffffffffffffffffffffffffffffffffffffffff1673ffffffffffffffffffffffffffffffffffffffff168152602001908152602001600020600101541161242d576040517f08c379a000000000000000000000000000000000000000000000000000000000815260040180806020018281038252602181526020018061519b6021913960400191505060405180910390fd5b6000600c60003373ffffffffffffffffffffffffffffffffffffffff1673ffffffffffffffffffffffffffffffffffffffff168152602001908152602001600020905081816001015410156124cd576040517f08c379a00000000000000000000000000000000000000000000000000000000081526004018080602001828103825260268152602001806157d16026913960400191505060405180910390fd5b6124da81600301546136d5565b61252f576040517f08c379a000000000000000000000000000000000000000000000000000000000815260040180806020018281038252605e81526020018061546e605e913960600191505060405180910390fd5b612546828260010154614b9a90919063ffffffff16565b816001018190555061256382600a54614b9a90919063ffffffff16565b600a81905550600960009054906101000a900473ffffffffffffffffffffffffffffffffffffffff1673ffffffffffffffffffffffffffffffffffffffff1663f3fef3a333846040518363ffffffff1660e01b8152600401808373ffffffffffffffffffffffffffffffffffffffff1673ffffffffffffffffffffffffffffffffffffffff16815260200182815260200192505050602060405180830381600087803b15801561261257600080fd5b505af1158015612626573d6000803e3d6000fd5b505050506040513d602081101561263c57600080fd5b81019080805190602001909291905050506126a2576040517f08c379a000000000000000000000000000000000000000000000000000000000815260040180806020018281038252603d8152602001806151bc603d913960400191505060405180910390fd5b3373ffffffffffffffffffffffffffffffffffffffff167f667cb7a1818eacd2e3a421e734429ba9c4c7dec85e578e098b6d72cd2bfbf2f6836040518082815260200191505060405180910390a25050565b60045481565b600061271160015483614c4890919063ffffffff16565b612719610c16565b10159050919050565b6000600c6000600d60003373ffffffffffffffffffffffffffffffffffffffff1673ffffffffffffffffffffffffffffffffffffffff16815260200190815260200160002060009054906101000a900473ffffffffffffffffffffffffffffffffffffffff1673ffffffffffffffffffffffffffffffffffffffff1673ffffffffffffffffffffffffffffffffffffffff168152602001908152602001600020600101541161281c576040517f08c379a00000000000000000000000000000000000000000000000000000000081526004018080602001828103825260258152602001806152366025913960400191505060405180910390fd5b600073ffffffffffffffffffffffffffffffffffffffff168473ffffffffffffffffffffffffffffffffffffffff1614156128a2576040517f08c379a000000000000000000000000000000000000000000000000000000000815260040180806020018281038252602e815260200180615395602e913960400191505060405180910390fd5b8282146128fa576040517f08c379a00000000000000000000000000000000000000000000000000000000081526004018080602001828103825260358152602001806155566035913960400191505060405180910390fd5b670de0b6b3a764000061292c8361291e600b54600a54614c4890919063ffffffff16565b614c4890919063ffffffff16565b1115612983576040517f08c379a00000000000000000000000000000000000000000000000000000000081526004018080602001828103825260328152602001806155fe6032913960400191505060405180910390fd5b61299882600b54614c4890919063ffffffff16565b600b819055506000600d60003373ffffffffffffffffffffffffffffffffffffffff1673ffffffffffffffffffffffffffffffffffffffff16815260200190815260200160002060009054906101000a900473ffffffffffffffffffffffffffffffffffffffff169050600860009054906101000a900473ffffffffffffffffffffffffffffffffffffffff1673ffffffffffffffffffffffffffffffffffffffff166323b872dd33306004546040518463ffffffff1660e01b8152600401808473ffffffffffffffffffffffffffffffffffffffff1673ffffffffffffffffffffffffffffffffffffffff1681526020018373ffffffffffffffffffffffffffffffffffffffff1673ffffffffffffffffffffffffffffffffffffffff1681526020018281526020019350505050602060405180830381600087803b158015612ae157600080fd5b505af1158015612af5573d6000803e3d6000fd5b505050506040513d6020811015612b0b57600080fd5b8101908080519060200190929190505050612b71576040517f08c379a000000000000000000000000000000000000000000000000000000000815260040180806020018281038252603f815260200180615067603f913960400191505060405180910390fd5b600860009054906101000a900473ffffffffffffffffffffffffffffffffffffffff1673ffffffffffffffffffffffffffffffffffffffff166323b872dd8630876040518463ffffffff1660e01b8152600401808473ffffffffffffffffffffffffffffffffffffffff1673ffffffffffffffffffffffffffffffffffffffff1681526020018373ffffffffffffffffffffffffffffffffffffffff1673ffffffffffffffffffffffffffffffffffffffff1681526020018281526020019350505050602060405180830381600087803b158015612c4e57600080fd5b505af1158015612c62573d6000803e3d6000fd5b505050506040513d6020811015612c7857600080fd5b8101908080519060200190929190505050612cde576040517f08c379a000000000000000000000000000000000000000000000000000000000815260040180806020018281038252603681526020018061525b6036913960400191505060405180910390fd5b6000612d4f6001612d41612cf0610c16565b6000600e8054905014612d3957600e612d186001600e80549050614b9a90919063ffffffff16565b81548110612d2257fe5b90600052602060002090600b020160030154612d3c565b60005b614c2e565b614c4890919063ffffffff16565b9050612d59614edc565b604051806101a001604052808473ffffffffffffffffffffffffffffffffffffffff1681526020018873ffffffffffffffffffffffffffffffffffffffff168152602001600015158152602001868152602001838152602001600081526020016000815260200160001515815260200160001515815260200160001515815260200187815260200185815260200160008152509050600e819080600181540180825580915050906001820390600052602060002090600b02016000909192909190915060008201518160000160006101000a81548173ffffffffffffffffffffffffffffffffffffffff021916908373ffffffffffffffffffffffffffffffffffffffff16021790555060208201518160010160006101000a81548173ffffffffffffffffffffffffffffffffffffffff021916908373ffffffffffffffffffffffffffffffffffffffff16021790555060408201518160010160146101000a81548160ff021916908315150217905550606082015181600201556080820151816003015560a0820151816004015560c0820151816005015560e08201518160060160006101000a81548160ff0219169083151502179055506101008201518160060160016101000a81548160ff0219169083151502179055506101208201518160060160026101000a81548160ff0219169083151502179055506101408201518160070155610160820151816008019080519060200190612f7c929190614f78565b5061018082015181600901555050506000612fa66001600e80549050614b9a90919063ffffffff16565b90508773ffffffffffffffffffffffffffffffffffffffff168473ffffffffffffffffffffffffffffffffffffffff163373ffffffffffffffffffffffffffffffffffffffff167f2d105ebbc222c190059b3979356e13469f6a29a350add74ac3bf4f22f16301d6848b8b60405180848152602001838152602001828152602001935050505060405180910390a45050505050505050565b6000600c6000600d60003373ffffffffffffffffffffffffffffffffffffffff1673ffffffffffffffffffffffffffffffffffffffff16815260200190815260200160002060009054906101000a900473ffffffffffffffffffffffffffffffffffffffff1673ffffffffffffffffffffffffffffffffffffffff1673ffffffffffffffffffffffffffffffffffffffff1681526020019081526020016000206001015411613138576040517f08c379a00000000000000000000000000000000000000000000000000000000081526004018080602001828103825260258152602001806152366025913960400191505060405180910390fd5b6000600d60003373ffffffffffffffffffffffffffffffffffffffff1673ffffffffffffffffffffffffffffffffffffffff16815260200190815260200160002060009054906101000a900473ffffffffffffffffffffffffffffffffffffffff1690506000600c60008373ffffffffffffffffffffffffffffffffffffffff1673ffffffffffffffffffffffffffffffffffffffff1681526020019081526020016000209050600e80549050841061323c576040517f08c379a000000000000000000000000000000000000000000000000000000000815260040180806020018281038252602c8152602001806154cc602c913960400191505060405180910390fd5b6000600e858154811061324b57fe5b90600052602060002090600b0201905060038460ff16106132b7576040517f08c379a00000000000000000000000000000000000000000000000000000000081526004018080602001828103825260318152602001806158546031913960400191505060405180910390fd5b60008460ff1660028111156132c857fe5b905081600301546132d7610c16565b101561332e576040517f08c379a00000000000000000000000000000000000000000000000000000000081526004018080602001828103825260328152602001806156f76032913960400191505060405180910390fd5b61333b82600301546126fa565b15613391576040517f08c379a00000000000000000000000000000000000000000000000000000000081526004018080602001828103825260378152602001806153f06037913960400191505060405180910390fd5b6000600281111561339e57fe5b82600a0160008673ffffffffffffffffffffffffffffffffffffffff1673ffffffffffffffffffffffffffffffffffffffff16815260200190815260200160002060009054906101000a900460ff1660028111156133f857fe5b1461344e576040517f08c379a000000000000000000000000000000000000000000000000000000000815260040180806020018281038252603e815260200180615678603e913960400191505060405180910390fd5b6001600281111561345b57fe5b81600281111561346757fe5b1480613488575060028081111561347a57fe5b81600281111561348657fe5b145b6134dd576040517f08c379a00000000000000000000000000000000000000000000000000000000081526004018080602001828103825260328152602001806153326032913960400191505060405180910390fd5b8160060160029054906101000a900460ff1615613545576040517f08c379a000000000000000000000000000000000000000000000000000000000815260040180806020018281038252602e815260200180615729602e913960400191505060405180910390fd5b8082600a0160008673ffffffffffffffffffffffffffffffffffffffff1673ffffffffffffffffffffffffffffffffffffffff16815260200190815260200160002060006101000a81548160ff021916908360028111156135a257fe5b0217905550600160028111156135b457fe5b8160028111156135c057fe5b141561361e576135e183600101548360040154614c4890919063ffffffff16565b826004018190555082600301548611156135ff578583600301819055505b8160090154600a54111561361957600a5482600901819055505b613661565b60028081111561362a57fe5b81600281111561363657fe5b14156136605761365783600101548360050154614c4890919063ffffffff16565b82600501819055505b5b8373ffffffffffffffffffffffffffffffffffffffff163373ffffffffffffffffffffffffffffffffffffffff16877f29bf0061f2faa9daa482f061b116195432d435536d8af4ae6b3c5dd78223679b88604051808260ff1660ff16815260200191505060405180910390a4505050505050565b6000600e805490508210613734576040517f08c379a000000000000000000000000000000000000000000000000000000000815260040180806020018281038252602d8152602001806153c3602d913960400191505060405180910390fd5b600e828154811061374157fe5b90600052602060002090600b020160060160009054906101000a900460ff169050919050565b600960009054906101000a900473ffffffffffffffffffffffffffffffffffffffff1681565b60055481565b60005481565b600860009054906101000a900473ffffffffffffffffffffffffffffffffffffffff1681565b600e80549050811061381c576040517f08c379a00000000000000000000000000000000000000000000000000000000081526004018080602001828103825260278152602001806157f76027913960400191505060405180910390fd5b6000600e828154811061382b57fe5b90600052602060002090600b020190508060010160009054906101000a900473ffffffffffffffffffffffffffffffffffffffff1673ffffffffffffffffffffffffffffffffffffffff163373ffffffffffffffffffffffffffffffffffffffff16146138e3576040517f08c379a000000000000000000000000000000000000000000000000000000000815260040180806020018281038252602c8152602001806152d0602c913960400191505060405180910390fd5b6138fc6003548260030154614c4890919063ffffffff16565b613904610c16565b1061395a576040517f08c379a00000000000000000000000000000000000000000000000000000000081526004018080602001828103825260318152602001806153646031913960400191505060405180910390fd5b8060060160029054906101000a900460ff16156139c2576040517f08c379a000000000000000000000000000000000000000000000000000000000815260040180806020018281038252603b815260200180615125603b913960400191505060405180910390fd5b6000816007015490506000826007018190555060018260060160026101000a81548160ff021916908315150217905550600860009054906101000a900473ffffffffffffffffffffffffffffffffffffffff1673ffffffffffffffffffffffffffffffffffffffff1663a9059cbb8360010160009054906101000a900473ffffffffffffffffffffffffffffffffffffffff16836040518363ffffffff1660e01b8152600401808373ffffffffffffffffffffffffffffffffffffffff1673ffffffffffffffffffffffffffffffffffffffff16815260200182815260200192505050602060405180830381600087803b158015613abf57600080fd5b505af1158015613ad3573d6000803e3d6000fd5b505050506040513d6020811015613ae957600080fd5b8101908080519060200190929190505050613b4f576040517f08c379a000000000000000000000000000000000000000000000000000000000815260040180806020018281038252603f8152602001806155bf603f913960400191505060405180910390fd5b827fa749dd3df92cae4d106b3eadf60c0dffd3698de09c67ce58ce6f5d02eb82131333604051808273ffffffffffffffffffffffffffffffffffffffff1673ffffffffffffffffffffffffffffffffffffffff16815260200191505060405180910390a2505050565b600e805490508110613c15576040517f08c379a00000000000000000000000000000000000000000000000000000000081526004018080602001828103825260318152602001806158c26031913960400191505060405180910390fd5b6000600e8281548110613c2457fe5b90600052602060002090600b020190508060010160149054906101000a900460ff1615613c9c576040517f08c379a000000000000000000000000000000000000000000000000000000000815260040180806020018281038252603d8152602001806151f9603d913960400191505060405180910390fd5b613cc9600254613cbb6001548460030154614c4890919063ffffffff16565b614c4890919063ffffffff16565b613cd1610c16565b1015613d28576040517f08c379a000000000000000000000000000000000000000000000000000000000815260040180806020018281038252603f815260200180615291603f913960400191505060405180910390fd5b600015158160060160009054906101000a900460ff16151514613d96576040517f08c379a000000000000000000000000000000000000000000000000000000000815260040180806020018281038252603d815260200180615885603d913960400191505060405180910390fd5b6000821480613de05750600e613db6600184614b9a90919063ffffffff16565b81548110613dc057fe5b90600052602060002090600b020160060160009054906101000a900460ff165b613e35576040517f08c379a000000000000000000000000000000000000000000000000000000000815260040180806020018281038252603d8152602001806154f8603d913960400191505060405180910390fd5b60018160060160006101000a81548160ff021916908315150217905550613e6b8160020154600b54614b9a90919063ffffffff16565b600b819055506000816005015482600401541190508160090154613e9c600554600a54614cd090919063ffffffff16565b1015613ea757600090505b808015613ec357508160060160029054906101000a900460ff16155b156146bb5760018260060160016101000a81548160ff021916908315150217905550600c60008360010160009054906101000a900473ffffffffffffffffffffffffffffffffffffffff1673ffffffffffffffffffffffffffffffffffffffff1673ffffffffffffffffffffffffffffffffffffffff16815260200190815260200160002060020160009054906101000a900460ff161561404a57613fdb8260020154600c60008560010160009054906101000a900473ffffffffffffffffffffffffffffffffffffffff1673ffffffffffffffffffffffffffffffffffffffff1673ffffffffffffffffffffffffffffffffffffffff16815260200190815260200160002060010154614c4890919063ffffffff16565b600c60008460010160009054906101000a900473ffffffffffffffffffffffffffffffffffffffff1673ffffffffffffffffffffffffffffffffffffffff1673ffffffffffffffffffffffffffffffffffffffff168152602001908152602001600020600101819055506144b6565b600c6000600d60008560010160009054906101000a900473ffffffffffffffffffffffffffffffffffffffff1673ffffffffffffffffffffffffffffffffffffffff1673ffffffffffffffffffffffffffffffffffffffff16815260200190815260200160002060009054906101000a900473ffffffffffffffffffffffffffffffffffffffff1673ffffffffffffffffffffffffffffffffffffffff1673ffffffffffffffffffffffffffffffffffffffff16815260200190815260200160002060020160009054906101000a900460ff16156142ab576000600d60008460010160009054906101000a900473ffffffffffffffffffffffffffffffffffffffff1673ffffffffffffffffffffffffffffffffffffffff1673ffffffffffffffffffffffffffffffffffffffff16815260200190815260200160002060009054906101000a900473ffffffffffffffffffffffffffffffffffffffff16905080600d60008373ffffffffffffffffffffffffffffffffffffffff1673ffffffffffffffffffffffffffffffffffffffff16815260200190815260200160002060006101000a81548173ffffffffffffffffffffffffffffffffffffffff021916908373ffffffffffffffffffffffffffffffffffffffff16021790555080600c60008373ffffffffffffffffffffffffffffffffffffffff1673ffffffffffffffffffffffffffffffffffffffff16815260200190815260200160002060000160006101000a81548173ffffffffffffffffffffffffffffffffffffffff021916908373ffffffffffffffffffffffffffffffffffffffff160217905550505b60405180608001604052808360010160009054906101000a900473ffffffffffffffffffffffffffffffffffffffff1673ffffffffffffffffffffffffffffffffffffffff168152602001836002015481526020016001151581526020016000815250600c60008460010160009054906101000a900473ffffffffffffffffffffffffffffffffffffffff1673ffffffffffffffffffffffffffffffffffffffff1673ffffffffffffffffffffffffffffffffffffffff16815260200190815260200160002060008201518160000160006101000a81548173ffffffffffffffffffffffffffffffffffffffff021916908373ffffffffffffffffffffffffffffffffffffffff1602179055506020820151816001015560408201518160020160006101000a81548160ff021916908315150217905550606082015181600301559050508160010160009054906101000a900473ffffffffffffffffffffffffffffffffffffffff16600d60008460010160009054906101000a900473ffffffffffffffffffffffffffffffffffffffff1673ffffffffffffffffffffffffffffffffffffffff1673ffffffffffffffffffffffffffffffffffffffff16815260200190815260200160002060006101000a81548173ffffffffffffffffffffffffffffffffffffffff021916908373ffffffffffffffffffffffffffffffffffffffff1602179055505b6144cf8260020154600a54614c4890919063ffffffff16565b600a81905550600860009054906101000a900473ffffffffffffffffffffffffffffffffffffffff1673ffffffffffffffffffffffffffffffffffffffff1663a9059cbb600960009054906101000a900473ffffffffffffffffffffffffffffffffffffffff1684600701546040518363ffffffff1660e01b8152600401808373ffffffffffffffffffffffffffffffffffffffff1673ffffffffffffffffffffffffffffffffffffffff16815260200182815260200192505050602060405180830381600087803b1580156145a457600080fd5b505af11580156145b8573d6000803e3d6000fd5b505050506040513d60208110156145ce57600080fd5b8101908080519060200190929190505050614634576040517f08c379a000000000000000000000000000000000000000000000000000000000815260040180806020018281038252603d815260200180615757603d913960400191505060405180910390fd5b600960009054906101000a900473ffffffffffffffffffffffffffffffffffffffff1673ffffffffffffffffffffffffffffffffffffffff16630d1710126040518163ffffffff1660e01b8152600401600060405180830381600087803b15801561469e57600080fd5b505af11580156146b2573d6000803e3d6000fd5b5050505061481d565b600860009054906101000a900473ffffffffffffffffffffffffffffffffffffffff1673ffffffffffffffffffffffffffffffffffffffff1663a9059cbb8360010160009054906101000a900473ffffffffffffffffffffffffffffffffffffffff1684600701546040518363ffffffff1660e01b8152600401808373ffffffffffffffffffffffffffffffffffffffff1673ffffffffffffffffffffffffffffffffffffffff16815260200182815260200192505050602060405180830381600087803b15801561478c57600080fd5b505af11580156147a0573d6000803e3d6000fd5b505050506040513d60208110156147b657600080fd5b810190808051906020019092919050505061481c576040517f08c379a000000000000000000000000000000000000000000000000000000000815260040180806020018281038252603c8152602001806150e9603c913960400191505060405180910390fd5b5b600860009054906101000a900473ffffffffffffffffffffffffffffffffffffffff1673ffffffffffffffffffffffffffffffffffffffff1663a9059cbb336006546040518363ffffffff1660e01b8152600401808373ffffffffffffffffffffffffffffffffffffffff1673ffffffffffffffffffffffffffffffffffffffff16815260200182815260200192505050602060405180830381600087803b1580156148c857600080fd5b505af11580156148dc573d6000803e3d6000fd5b505050506040513d60208110156148f257600080fd5b8101908080519060200190929190505050614958576040517f08c379a00000000000000000000000000000000000000000000000000000000081526004018080602001828103825260488152602001806156306048913960600191505060405180910390fd5b600860009054906101000a900473ffffffffffffffffffffffffffffffffffffffff1673ffffffffffffffffffffffffffffffffffffffff1663a9059cbb8360000160009054906101000a900473ffffffffffffffffffffffffffffffffffffffff166149d2600654600454614b9a90919063ffffffff16565b6040518363ffffffff1660e01b8152600401808373ffffffffffffffffffffffffffffffffffffffff1673ffffffffffffffffffffffffffffffffffffffff16815260200182815260200192505050602060405180830381600087803b158015614a3b57600080fd5b505af1158015614a4f573d6000803e3d6000fd5b505050506040513d6020811015614a6557600080fd5b8101908080519060200190929190505050614acb576040517f08c379a00000000000000000000000000000000000000000000000000000000081526004018080602001828103825260478152602001806154276047913960600191505060405180910390fd5b8160000160009054906101000a900473ffffffffffffffffffffffffffffffffffffffff1673ffffffffffffffffffffffffffffffffffffffff168260010160009054906101000a900473ffffffffffffffffffffffffffffffffffffffff1673ffffffffffffffffffffffffffffffffffffffff16847f3f6fc303a82367bb4947244ba21c569a5ed2e870610f1a693366142309d7cbea85600701548660020154866040518084815260200183815260200182151515158152602001935050505060405180910390a4505050565b6000614bdc83836040518060400160405280601e81526020017f536166654d6174683a207375627472616374696f6e206f766572666c6f770000815250614d56565b905092915050565b6000614c2683836040518060400160405280601a81526020017f536166654d6174683a206469766973696f6e206279207a65726f000000000000815250614e16565b905092915050565b600081831015614c3e5781614c40565b825b905092915050565b600080828401905083811015614cc6576040517f08c379a000000000000000000000000000000000000000000000000000000000815260040180806020018281038252601b8152602001807f536166654d6174683a206164646974696f6e206f766572666c6f77000000000081525060200191505060405180910390fd5b8091505092915050565b600080831415614ce35760009050614d50565b6000828402905082848281614cf457fe5b0414614d4b576040517f08c379a00000000000000000000000000000000000000000000000000000000081526004018080602001828103825260218152602001806155356021913960400191505060405180910390fd5b809150505b92915050565b6000838311158290614e03576040517f08c379a00000000000000000000000000000000000000000000000000000000081526004018080602001828103825283818151815260200191508051906020019080838360005b83811015614dc8578082015181840152602081019050614dad565b50505050905090810190601f168015614df55780820380516001836020036101000a031916815260200191505b509250505060405180910390fd5b5060008385039050809150509392505050565b60008083118290614ec2576040517f08c379a00000000000000000000000000000000000000000000000000000000081526004018080602001828103825283818151815260200191508051906020019080838360005b83811015614e87578082015181840152602081019050614e6c565b50505050905090810190601f168015614eb45780820380516001836020036101000a031916815260200191505b509250505060405180910390fd5b506000838581614ece57fe5b049050809150509392505050565b604051806101a00160405280600073ffffffffffffffffffffffffffffffffffffffff168152602001600073ffffffffffffffffffffffffffffffffffffffff168152602001600015158152602001600081526020016000815260200160008152602001600081526020016000151581526020016000151581526020016000151581526020016000815260200160608152602001600081525090565b828054600181600116156101000203166002900490600052602060002090601f016020900481019282601f10614fb957805160ff1916838001178555614fe7565b82800160010185558215614fe7579182015b82811115614fe6578251825591602001919060010190614fcb565b5b509050614ff49190614ff8565b5090565b61501a91905b80821115615016576000816000905550600101614ffe565b5090565b9056fe456e64616f6d656e743a70726f63657373526563697069656e7450726f706f73616c202d2070726f706f73616c206973206e6f74206120726563697069656e742070726f706f73616c4d6f6c6f63683a3a7375626d697450726f706f73616c202d2070726f706f73616c206465706f73697420746f6b656e207472616e73666572206661696c65644d6f6c6f63683a3a7375626d6974526563697069656e7450726f706f73616c202d20726563697069656e742063616e6e6f74206265207468697320636f6e74726163744d6f6c6f63683a3a70726f6365737350726f706f73616c202d206661696c696e6720766f746520746f6b656e207472616e73666572206661696c65644d6f6c6f63683a3a61626f7274202d2070726f706f73616c206d757374206e6f74206861766520616c7265616479206265656e2061626f727465644d6f6c6f63683a3a75706461746544656c65676174654b6579202d2063616e74206f7665727772697465206578697374696e67206d656d626572734d6f6c6f63683a3a6f6e6c794d656d626572202d206e6f742061206d656d6265724d6f6c6f63683a3a7261676571756974202d207769746864726177616c206f6620746f6b656e732066726f6d206775696c6442616e6b206661696c6564456e64616f6d656e743a70726f6365737350726f706f73616c202d2070726f706f73616c206973206e6f742061206d656d6265722070726f706f73616c4d6f6c6f63683a3a6f6e6c7944656c6567617465202d206e6f7420612064656c65676174654d6f6c6f63683a3a7375626d697450726f706f73616c202d207472696275746520746f6b656e207472616e73666572206661696c65644d6f6c6f63683a3a70726f6365737350726f706f73616c202d2070726f706f73616c206973206e6f7420726561647920746f2062652070726f6365737365644d6f6c6f63683a3a61626f7274202d206d73672e73656e646572206d757374206265206170706c6963616e744d6f6c6f63683a3a6765744d656d62657250726f706f73616c566f7465202d2070726f706f73616c20646f65736e27742065786973744d6f6c6f63683a3a7375626d6974566f7465202d20766f7465206d7573742062652065697468657220596573206f72204e6f4d6f6c6f63683a3a61626f7274202d2061626f72742077696e646f77206d757374206e6f742068617665207061737365644d6f6c6f63683a3a7375626d697450726f706f73616c202d206170706c6963616e742063616e6e6f7420626520304d6f6c6f63683a3a63616e5261676571756974202d2070726f706f73616c20646f6573206e6f742065786973744d6f6c6f63683a3a7375626d6974566f7465202d2070726f706f73616c20766f74696e6720706572696f642068617320657870697265644d6f6c6f63683a3a70726f6365737350726f706f73616c202d206661696c656420746f2072657475726e2070726f706f73616c206465706f73697420746f2070726f706f7365724d6f6c6f63683a3a7261676571756974202d2063616e7420726167657175697420756e74696c206869676865737420696e6465782070726f706f73616c206d656d62657220766f74656420594553206f6e2069732070726f6365737365644d6f6c6f63683a3a7375626d6974566f7465202d2070726f706f73616c20646f6573206e6f742065786973744d6f6c6f63683a3a70726f6365737350726f706f73616c202d2070726576696f75732070726f706f73616c206d7573742062652070726f636573736564536166654d6174683a206d756c7469706c69636174696f6e206f766572666c6f77456e64616f6d656e743a3a7375626d697450726f706f73616c202d20736861726573206d75737420657175616c20747269627574654d6f6c6f63683a3a6765744d656d62657250726f706f73616c566f7465202d206d656d62657220646f65736e27742065786973744d6f6c6f63683a3a70726f6365737350726f706f73616c202d206661696c656420746f2072657475726e207472696275746520746f206170706c6963616e744d6f6c6f63683a3a7375626d697450726f706f73616c202d20746f6f206d616e7920736861726573207265717565737465644d6f6c6f63683a3a70726f6365737350726f706f73616c202d206661696c656420746f2073656e642070726f63657373696e672072657761726420746f206d73672e73656e6465724d6f6c6f63683a3a7375626d6974566f7465202d206d656d6265722068617320616c726561647920766f746564206f6e20746869732070726f706f73616c4d6f6c6f63683a3a75706461746544656c65676174654b6579202d2063616e74206f7665727772697465206578697374696e672064656c6567617465206b6579734d6f6c6f63683a3a7375626d6974566f7465202d20766f74696e6720706572696f6420686173206e6f7420737461727465644d6f6c6f63683a3a7375626d6974566f7465202d2070726f706f73616c20686173206265656e2061626f727465644d6f6c6f63683a3a70726f6365737350726f706f73616c202d20746f6b656e207472616e7366657220746f206775696c642062616e6b206661696c65644d6f6c6f63683a3a7375626d6974526563697069656e7450726f706f73616c202d20726563697069656e74206d75737420626520646966666572656e744d6f6c6f63683a3a7261676571756974202d20696e73756666696369656e74207368617265734d6f6c6f63683a3a61626f7274202d2070726f706f73616c20646f6573206e6f742065786973744d6f6c6f63683a3a75706461746544656c65676174654b6579202d206e657744656c65676174654b65792063616e6e6f7420626520304d6f6c6f63683a3a7375626d6974566f7465202d2075696e74566f7465206d757374206265206c657373207468616e20334d6f6c6f63683a3a70726f6365737350726f706f73616c202d2070726f706f73616c2068617320616c7265616479206265656e2070726f6365737365644d6f6c6f63683a3a70726f6365737350726f706f73616c202d2070726f706f73616c20646f6573206e6f742065786973744d6f6c6f63683a3a7375626d6974526563697069656e7450726f706f73616c202d20726563697069656e742063616e6e6f742062652030a265627a7a7231582093fc3e312eb9f00c9036e1a15f01a1beba5ee0cf1928456ff7ee8aab4e36ceee64736f6c634300050c003260806040523480156200001157600080fd5b50604051620019a1380380620019a1833981810160405260208110156200003757600080fd5b810190808051906020019092919050505080606660006101000a81548173ffffffffffffffffffffffffffffffffffffffff021916908373ffffffffffffffffffffffffffffffffffffffff1602179055506200009f336200021a60201b62000b111760201c565b600073261b45d85ccfeabb11f022eba346ee8d1cd488c0905080606760006101000a81548173ffffffffffffffffffffffffffffffffffffffff021916908373ffffffffffffffffffffffffffffffffffffffff160217905550606760009054906101000a900473ffffffffffffffffffffffffffffffffffffffff1673ffffffffffffffffffffffffffffffffffffffff1663095ea7b3827fffffffffffffffffffffffffffffffffffffffffffffffffffffffffffffffff6040518363ffffffff1660e01b8152600401808373ffffffffffffffffffffffffffffffffffffffff1673ffffffffffffffffffffffffffffffffffffffff16815260200182815260200192505050602060405180830381600087803b158015620001c357600080fd5b505af1158015620001d8573d6000803e3d6000fd5b505050506040513d6020811015620001ef57600080fd5b8101908080519060200190929190505050506200021230620003e660201b60201c565b505062000636565b600060019054906101000a900460ff1680620002425750620002416200061f60201b60201c565b5b806200025a57506000809054906101000a900460ff16155b620002b1576040517f08c379a000000000000000000000000000000000000000000000000000000000815260040180806020018281038252602e81526020018062001973602e913960400191505060405180910390fd5b60008060019054906101000a900460ff16159050801562000302576001600060016101000a81548160ff02191690831515021790555060016000806101000a81548160ff0219169083151502179055505b81603360006101000a81548173ffffffffffffffffffffffffffffffffffffffff021916908373ffffffffffffffffffffffffffffffffffffffff160217905550603360009054906101000a900473ffffffffffffffffffffffffffffffffffffffff1673ffffffffffffffffffffffffffffffffffffffff16600073ffffffffffffffffffffffffffffffffffffffff167f8be0079c531659141344cd1fd0a4f28419497f9722a3daafe3b4186f6b6457e060405160405180910390a38015620003e25760008060016101000a81548160ff0219169083151502179055505b5050565b60606001604051908082528060200260200182016040528015620004195781602001602082028038833980820191505090505b50905081816000815181106200042b57fe5b602002602001019073ffffffffffffffffffffffffffffffffffffffff16908173ffffffffffffffffffffffffffffffffffffffff168152505060606001604051908082528060200260200182016040528015620004985781602001602082028038833980820191505090505b509050600181600081518110620004ab57fe5b602002602001019063ffffffff16908163ffffffff1681525050600060019050606760009054906101000a900473ffffffffffffffffffffffffffffffffffffffff1673ffffffffffffffffffffffffffffffffffffffff16635cde50558484846040518463ffffffff1660e01b815260040180806020018060200184151515158152602001838103835286818151815260200191508051906020019060200280838360005b838110156200056e57808201518184015260208101905062000551565b50505050905001838103825285818151815260200191508051906020019060200280838360005b83811015620005b257808201518184015260208101905062000595565b5050505090500195505050505050602060405180830381600087803b158015620005db57600080fd5b505af1158015620005f0573d6000803e3d6000fd5b505050506040513d60208110156200060757600080fd5b81019080805190602001909291905050505050505050565b6000803090506000813b9050600081149250505090565b61132d80620006466000396000f3fe608060405234801561001057600080fd5b506004361061009e5760003560e01c80638f32d59b116100665780638f32d59b14610199578063bab46259146101bb578063c4d66de814610205578063f2fde38b14610249578063f3fef3a31461028d5761009e565b80630d171012146100a35780630efaa4de146100ad57806340c65f72146100fb578063715018a6146101455780638da5cb5b1461014f575b600080fd5b6100ab6102f3565b005b6100f9600480360360408110156100c357600080fd5b81019080803573ffffffffffffffffffffffffffffffffffffffff169060200190929190803590602001909291905050506106a5565b005b610103610901565b604051808273ffffffffffffffffffffffffffffffffffffffff1673ffffffffffffffffffffffffffffffffffffffff16815260200191505060405180910390f35b61014d610927565b005b610157610a62565b604051808273ffffffffffffffffffffffffffffffffffffffff1673ffffffffffffffffffffffffffffffffffffffff16815260200191505060405180910390f35b6101a1610a8c565b604051808215151515815260200191505060405180910390f35b6101c3610aeb565b604051808273ffffffffffffffffffffffffffffffffffffffff1673ffffffffffffffffffffffffffffffffffffffff16815260200191505060405180910390f35b6102476004803603602081101561021b57600080fd5b81019080803573ffffffffffffffffffffffffffffffffffffffff169060200190929190505050610b11565b005b61028b6004803603602081101561025f57600080fd5b81019080803573ffffffffffffffffffffffffffffffffffffffff169060200190929190505050610ccf565b005b6102d9600480360360408110156102a357600080fd5b81019080803573ffffffffffffffffffffffffffffffffffffffff16906020019092919080359060200190929190505050610d55565b604051808215151515815260200191505060405180910390f35b6000606660009054906101000a900473ffffffffffffffffffffffffffffffffffffffff1673ffffffffffffffffffffffffffffffffffffffff166370a08231306040518263ffffffff1660e01b8152600401808273ffffffffffffffffffffffffffffffffffffffff1673ffffffffffffffffffffffffffffffffffffffff16815260200191505060206040518083038186803b15801561039457600080fd5b505afa1580156103a8573d6000803e3d6000fd5b505050506040513d60208110156103be57600080fd5b810190808051906020019092919050505090506000606760009054906101000a900473ffffffffffffffffffffffffffffffffffffffff1673ffffffffffffffffffffffffffffffffffffffff1663054ab01a306040518263ffffffff1660e01b8152600401808273ffffffffffffffffffffffffffffffffffffffff1673ffffffffffffffffffffffffffffffffffffffff16815260200191505060006040518083038186803b15801561047257600080fd5b505afa158015610486573d6000803e3d6000fd5b505050506040513d6000823e3d601f19601f8201168201806040525060608110156104b057600080fd5b8101908080519060200190929190805160405193929190846401000000008211156104da57600080fd5b838201915060208201858111156104f057600080fd5b825186602082028301116401000000008211171561050d57600080fd5b8083526020830192505050908051906020019060200280838360005b83811015610544578082015181840152602081019050610529565b505050509050016040526020018051604051939291908464010000000082111561056d57600080fd5b8382019150602082018581111561058357600080fd5b82518660208202830111640100000000821117156105a057600080fd5b8083526020830192505050908051906020019060200280838360005b838110156105d75780820151818401526020810190506105bc565b5050505090500160405250505050509050606760009054906101000a900473ffffffffffffffffffffffffffffffffffffffff1673ffffffffffffffffffffffffffffffffffffffff1663388c0b8c83836040518363ffffffff1660e01b81526004018083815260200182815260200192505050602060405180830381600087803b15801561066557600080fd5b505af1158015610679573d6000803e3d6000fd5b505050506040513d602081101561068f57600080fd5b8101908080519060200190929190505050505050565b6106ad610a8c565b61071f576040517f08c379a00000000000000000000000000000000000000000000000000000000081526004018080602001828103825260208152602001807f4f776e61626c653a2063616c6c6572206973206e6f7420746865206f776e657281525060200191505060405180910390fd5b61072882610f11565b6000606760009054906101000a900473ffffffffffffffffffffffffffffffffffffffff1673ffffffffffffffffffffffffffffffffffffffff166370a08231306040518263ffffffff1660e01b8152600401808273ffffffffffffffffffffffffffffffffffffffff1673ffffffffffffffffffffffffffffffffffffffff16815260200191505060206040518083038186803b1580156107c957600080fd5b505afa1580156107dd573d6000803e3d6000fd5b505050506040513d60208110156107f357600080fd5b81019080805190602001909291905050509050818111156108fc5760008183039050606760009054906101000a900473ffffffffffffffffffffffffffffffffffffffff1673ffffffffffffffffffffffffffffffffffffffff1663a9059cbb85836040518363ffffffff1660e01b8152600401808373ffffffffffffffffffffffffffffffffffffffff1673ffffffffffffffffffffffffffffffffffffffff16815260200182815260200192505050602060405180830381600087803b1580156108be57600080fd5b505af11580156108d2573d6000803e3d6000fd5b505050506040513d60208110156108e857600080fd5b810190808051906020019092919050505050505b505050565b606760009054906101000a900473ffffffffffffffffffffffffffffffffffffffff1681565b61092f610a8c565b6109a1576040517f08c379a00000000000000000000000000000000000000000000000000000000081526004018080602001828103825260208152602001807f4f776e61626c653a2063616c6c6572206973206e6f7420746865206f776e657281525060200191505060405180910390fd5b600073ffffffffffffffffffffffffffffffffffffffff16603360009054906101000a900473ffffffffffffffffffffffffffffffffffffffff1673ffffffffffffffffffffffffffffffffffffffff167f8be0079c531659141344cd1fd0a4f28419497f9722a3daafe3b4186f6b6457e060405160405180910390a36000603360006101000a81548173ffffffffffffffffffffffffffffffffffffffff021916908373ffffffffffffffffffffffffffffffffffffffff160217905550565b6000603360009054906101000a900473ffffffffffffffffffffffffffffffffffffffff16905090565b6000603360009054906101000a900473ffffffffffffffffffffffffffffffffffffffff1673ffffffffffffffffffffffffffffffffffffffff16610acf61113f565b73ffffffffffffffffffffffffffffffffffffffff1614905090565b606660009054906101000a900473ffffffffffffffffffffffffffffffffffffffff1681565b600060019054906101000a900460ff1680610b305750610b2f611147565b5b80610b4757506000809054906101000a900460ff16155b610b9c576040517f08c379a000000000000000000000000000000000000000000000000000000000815260040180806020018281038252602e8152602001806112cb602e913960400191505060405180910390fd5b60008060019054906101000a900460ff161590508015610bec576001600060016101000a81548160ff02191690831515021790555060016000806101000a81548160ff0219169083151502179055505b81603360006101000a81548173ffffffffffffffffffffffffffffffffffffffff021916908373ffffffffffffffffffffffffffffffffffffffff160217905550603360009054906101000a900473ffffffffffffffffffffffffffffffffffffffff1673ffffffffffffffffffffffffffffffffffffffff16600073ffffffffffffffffffffffffffffffffffffffff167f8be0079c531659141344cd1fd0a4f28419497f9722a3daafe3b4186f6b6457e060405160405180910390a38015610ccb5760008060016101000a81548160ff0219169083151502179055505b5050565b610cd7610a8c565b610d49576040517f08c379a00000000000000000000000000000000000000000000000000000000081526004018080602001828103825260208152602001807f4f776e61626c653a2063616c6c6572206973206e6f7420746865206f776e657281525060200191505060405180910390fd5b610d528161115e565b50565b6000610d5f610a8c565b610dd1576040517f08c379a00000000000000000000000000000000000000000000000000000000081526004018080602001828103825260208152602001807f4f776e61626c653a2063616c6c6572206973206e6f7420746865206f776e657281525060200191505060405180910390fd5b60008290508373ffffffffffffffffffffffffffffffffffffffff167f7fcf532c15f0a6db0bd6d0e038bea71d30d808c7d98cb3bf7268a95bf5081b65826040518082815260200191505060405180910390a2606760009054906101000a900473ffffffffffffffffffffffffffffffffffffffff1673ffffffffffffffffffffffffffffffffffffffff1663d271be3f85856040518363ffffffff1660e01b8152600401808373ffffffffffffffffffffffffffffffffffffffff1673ffffffffffffffffffffffffffffffffffffffff16815260200182815260200192505050602060405180830381600087803b158015610ecd57600080fd5b505af1158015610ee1573d6000803e3d6000fd5b505050506040513d6020811015610ef757600080fd5b810190808051906020019092919050505091505092915050565b60606001604051908082528060200260200182016040528015610f435781602001602082028038833980820191505090505b5090508181600081518110610f5457fe5b602002602001019073ffffffffffffffffffffffffffffffffffffffff16908173ffffffffffffffffffffffffffffffffffffffff168152505060606001604051908082528060200260200182016040528015610fc05781602001602082028038833980820191505090505b509050600181600081518110610fd257fe5b602002602001019063ffffffff16908163ffffffff1681525050600060019050606760009054906101000a900473ffffffffffffffffffffffffffffffffffffffff1673ffffffffffffffffffffffffffffffffffffffff16635cde50558484846040518463ffffffff1660e01b815260040180806020018060200184151515158152602001838103835286818151815260200191508051906020019060200280838360005b83811015611093578082015181840152602081019050611078565b50505050905001838103825285818151815260200191508051906020019060200280838360005b838110156110d55780820151818401526020810190506110ba565b5050505090500195505050505050602060405180830381600087803b1580156110fd57600080fd5b505af1158015611111573d6000803e3d6000fd5b505050506040513d602081101561112757600080fd5b81019080805190602001909291905050505050505050565b600033905090565b6000803090506000813b9050600081149250505090565b600073ffffffffffffffffffffffffffffffffffffffff168173ffffffffffffffffffffffffffffffffffffffff1614156111e4576040517f08c379a00000000000000000000000000000000000000000000000000000000081526004018080602001828103825260268152602001806112a56026913960400191505060405180910390fd5b8073ffffffffffffffffffffffffffffffffffffffff16603360009054906101000a900473ffffffffffffffffffffffffffffffffffffffff1673ffffffffffffffffffffffffffffffffffffffff167f8be0079c531659141344cd1fd0a4f28419497f9722a3daafe3b4186f6b6457e060405160405180910390a380603360006101000a81548173ffffffffffffffffffffffffffffffffffffffff021916908373ffffffffffffffffffffffffffffffffffffffff1602179055505056fe4f776e61626c653a206e6577206f776e657220697320746865207a65726f2061646472657373436f6e747261637420696e7374616e63652068617320616c7265616479206265656e20696e697469616c697a6564a265627a7a72315820309771143199c27ec70fd5b1da8d7275dd9d39eba2983fdd10af7c8ee05f5cb064736f6c634300050c0032436f6e747261637420696e7374616e63652068617320616c7265616479206265656e20696e697469616c697a65644d6f6c6f63683a3a636f6e7374727563746f72202d205f61626f727457696e646f772063616e6e6f7420626520304d6f6c6f63683a3a636f6e7374727563746f72202d2073756d6d6f6e65722063616e6e6f7420626520304d6f6c6f63683a3a636f6e7374727563746f72202d205f766f74696e67506572696f644c656e6774682065786365656473206c696d69744d6f6c6f63683a3a636f6e7374727563746f72202d205f70726f706f73616c4465706f7369742063616e6e6f7420626520736d616c6c6572207468616e205f70726f63657373696e675265776172644d6f6c6f63683a3a636f6e7374727563746f72202d205f64696c7574696f6e426f756e642065786365656473206c696d69744d6f6c6f63683a3a636f6e7374727563746f72202d205f61626f727457696e646f77206d75737420626520736d616c6c6572207468616e206f7220657175616c20746f205f766f74696e67506572696f644c656e6774684d6f6c6f63683a3a636f6e7374727563746f72202d205f6772616365506572696f644c656e6774682065786365656473206c696d69744d6f6c6f63683a3a636f6e7374727563746f72202d205f766f74696e67506572696f644c656e6774682063616e6e6f7420626520304d6f6c6f63683a3a636f6e7374727563746f72202d205f706572696f644475726174696f6e2063616e6e6f7420626520304d6f6c6f63683a3a636f6e7374727563746f72202d205f617070726f766564546f6b656e2063616e6e6f7420626520304d6f6c6f63683a3a636f6e7374727563746f72202d205f64696c7574696f6e426f756e642063616e6e6f742062652030",
  "source": "pragma solidity ^0.5.0;\n\nimport \"@openzeppelin/contracts-ethereum-package/contracts/math/SafeMath.sol\";\nimport \"@openzeppelin/contracts-ethereum-package/contracts/token/ERC20/IERC20.sol\";\nimport \"./GuildBank.sol\";\n\ncontract Moloch {\n    using SafeMath for uint256;\n\n    /***************\n    GLOBAL CONSTANTS\n    ***************/\n    uint256 public periodDuration; // default = 17280 = 4.8 hours in seconds (5 periods per day)\n    uint256 public votingPeriodLength; // default = 35 periods (7 days)\n    uint256 public gracePeriodLength; // default = 35 periods (7 days)\n    uint256 public abortWindow; // default = 5 periods (1 day)\n    uint256 public proposalDeposit; // default = 10 ETH (~$1,000 worth of ETH at contract deployment)\n    uint256 public dilutionBound; // default = 3 - maximum multiplier a YES voter will be obligated to pay in case of mass ragequit\n    uint256 public processingReward; // default = 0.1 - amount of ETH to give to whoever processes a proposal\n    uint256 public summoningTime; // needed to determine the current period\n\n    IERC20 public approvedToken; // approved token contract reference; default = wETH\n    GuildBank public guildBank; // guild bank contract reference\n\n    // HARD-CODED LIMITS\n    // These numbers are quite arbitrary; they are small enough to avoid overflows when doing calculations\n    // with periods or shares, yet big enough to not limit reasonable use cases.\n    uint256 constant MAX_VOTING_PERIOD_LENGTH = 10**18; // maximum length of voting period\n    uint256 constant MAX_GRACE_PERIOD_LENGTH = 10**18; // maximum length of grace period\n    uint256 constant MAX_DILUTION_BOUND = 10**18; // maximum dilution bound\n    uint256 constant MAX_NUMBER_OF_SHARES = 10**18; // maximum number of shares that can be minted\n\n    /***************\n    EVENTS\n    ***************/\n    event SubmitProposal(uint256 proposalIndex, address indexed delegateKey, address indexed memberAddress, address indexed applicant, uint256 tokenTribute, uint256 sharesRequested);\n    event SubmitVote(uint256 indexed proposalIndex, address indexed delegateKey, address indexed memberAddress, uint8 uintVote);\n    event ProcessProposal(uint256 indexed proposalIndex, address indexed applicant, address indexed memberAddress, uint256 tokenTribute, uint256 sharesRequested, bool didPass);\n    event Ragequit(address indexed memberAddress, uint256 sharesToBurn);\n    event Abort(uint256 indexed proposalIndex, address applicantAddress);\n    event UpdateDelegateKey(address indexed memberAddress, address newDelegateKey);\n    event SummonComplete(address indexed summoner, uint256 shares);\n\n    /******************\n    INTERNAL ACCOUNTING\n    ******************/\n    uint256 public totalShares = 0; // total shares across all members\n    uint256 public totalSharesRequested = 0; // total shares that have been requested in unprocessed proposals\n\n    enum Vote {\n        Null, // default value, counted as abstention\n        Yes,\n        No\n    }\n\n    struct Member {\n        address delegateKey; // the key responsible for submitting proposals and voting - defaults to member address unless updated\n        uint256 shares; // the # of shares assigned to this member\n        bool exists; // always true once a member has been created\n        uint256 highestIndexYesVote; // highest proposal index # on which the member voted YES\n    }\n\n    struct Proposal {\n        address proposer; // the member who submitted the proposal\n        address applicant; // the applicant who wishes to become a member - this key will be used for withdrawals\n        bool isRecipientProposal;\n        uint256 sharesRequested; // the # of shares the applicant is requesting\n        uint256 startingPeriod; // the period in which voting can start for this proposal\n        uint256 yesVotes; // the total number of YES votes for this proposal\n        uint256 noVotes; // the total number of NO votes for this proposal\n        bool processed; // true only if the proposal has been processed\n        bool didPass; // true only if the proposal passed\n        bool aborted; // true only if applicant calls \"abort\" fn before end of voting period\n        uint256 tokenTribute; // amount of tokens offered as tribute\n        string details; // proposal details - could be IPFS hash, plaintext, or JSON\n        uint256 maxTotalSharesAtYesVote; // the maximum # of total shares encountered at a yes vote on this proposal\n        mapping (address => Vote) votesByMember; // the votes on this proposal by each member\n    }\n\n    mapping (address => Member) public members;\n    mapping (address => address) public memberAddressByDelegateKey;\n    Proposal[] public proposalQueue;\n\n    address public recipient;\n\n    /********\n    MODIFIERS\n    ********/\n    modifier onlyMember {\n        require(members[msg.sender].shares > 0, \"Moloch::onlyMember - not a member\");\n        _;\n    }\n\n    modifier onlyDelegate {\n        require(members[memberAddressByDelegateKey[msg.sender]].shares > 0, \"Moloch::onlyDelegate - not a delegate\");\n        _;\n    }\n\n    /********\n    FUNCTIONS\n    ********/\n    constructor(\n        address summoner,\n        address _approvedToken,\n        uint256 _periodDuration,\n        uint256 _votingPeriodLength,\n        uint256 _gracePeriodLength,\n        uint256 _abortWindow,\n        uint256 _proposalDeposit,\n        uint256 _dilutionBound,\n        uint256 _processingReward\n    ) public {\n        require(summoner != address(0), \"Moloch::constructor - summoner cannot be 0\");\n        require(_approvedToken != address(0), \"Moloch::constructor - _approvedToken cannot be 0\");\n        require(_periodDuration > 0, \"Moloch::constructor - _periodDuration cannot be 0\");\n        require(_votingPeriodLength > 0, \"Moloch::constructor - _votingPeriodLength cannot be 0\");\n        require(_votingPeriodLength <= MAX_VOTING_PERIOD_LENGTH, \"Moloch::constructor - _votingPeriodLength exceeds limit\");\n        require(_gracePeriodLength <= MAX_GRACE_PERIOD_LENGTH, \"Moloch::constructor - _gracePeriodLength exceeds limit\");\n        require(_abortWindow > 0, \"Moloch::constructor - _abortWindow cannot be 0\");\n        require(_abortWindow <= _votingPeriodLength, \"Moloch::constructor - _abortWindow must be smaller than or equal to _votingPeriodLength\");\n        require(_dilutionBound > 0, \"Moloch::constructor - _dilutionBound cannot be 0\");\n        require(_dilutionBound <= MAX_DILUTION_BOUND, \"Moloch::constructor - _dilutionBound exceeds limit\");\n        require(_proposalDeposit >= _processingReward, \"Moloch::constructor - _proposalDeposit cannot be smaller than _processingReward\");\n\n        approvedToken = IERC20(_approvedToken);\n\n        guildBank = new GuildBank(_approvedToken);\n        recipient = address(guildBank);\n\n        periodDuration = _periodDuration;\n        votingPeriodLength = _votingPeriodLength;\n        gracePeriodLength = _gracePeriodLength;\n        abortWindow = _abortWindow;\n        proposalDeposit = _proposalDeposit;\n        dilutionBound = _dilutionBound;\n        processingReward = _processingReward;\n\n        summoningTime = now;\n\n        // TODO remove initial share? add check on summoner ragequit?\n        members[summoner] = Member(summoner, 1, true, 0);\n        memberAddressByDelegateKey[summoner] = summoner;\n        totalShares = 1;\n\n        emit SummonComplete(summoner, 1);\n    }\n\n    /*****************\n    PROPOSAL FUNCTIONS\n    *****************/\n\n    function submitProposal(\n        address applicant,\n        uint256 tokenTribute,\n        uint256 sharesRequested,\n        string memory details\n    )\n        public\n        onlyDelegate\n    {\n        require(applicant != address(0), \"Moloch::submitProposal - applicant cannot be 0\");\n        require(sharesRequested == tokenTribute, \"Endaoment::submitProposal - shares must equal tribute\");\n\n        // Make sure we won't run into overflows when doing calculations with shares.\n        // Note that totalShares + totalSharesRequested + sharesRequested is an upper bound\n        // on the number of shares that can exist until this proposal has been processed.\n        require(totalShares.add(totalSharesRequested).add(sharesRequested) <= MAX_NUMBER_OF_SHARES, \"Moloch::submitProposal - too many shares requested\");\n\n        totalSharesRequested = totalSharesRequested.add(sharesRequested);\n\n        address memberAddress = memberAddressByDelegateKey[msg.sender];\n\n        // collect proposal deposit from proposer and store it in the Moloch until the proposal is processed\n        require(approvedToken.transferFrom(msg.sender, address(this), proposalDeposit), \"Moloch::submitProposal - proposal deposit token transfer failed\");\n\n        // collect tribute from applicant and store it in the Moloch until the proposal is processed\n        require(approvedToken.transferFrom(applicant, address(this), tokenTribute), \"Moloch::submitProposal - tribute token transfer failed\");\n\n        // compute startingPeriod for proposal\n        uint256 startingPeriod = max(\n            getCurrentPeriod(),\n            proposalQueue.length == 0 ? 0 : proposalQueue[proposalQueue.length.sub(1)].startingPeriod\n        ).add(1);\n\n        // create proposal ...\n        Proposal memory proposal = Proposal({\n            proposer: memberAddress,\n            applicant: applicant,\n            isRecipientProposal: false,\n            sharesRequested: sharesRequested,\n            startingPeriod: startingPeriod,\n            yesVotes: 0,\n            noVotes: 0,\n            processed: false,\n            didPass: false,\n            aborted: false,\n            tokenTribute: tokenTribute,\n            details: details,\n            maxTotalSharesAtYesVote: 0\n        });\n\n        // ... and append it to the queue\n        proposalQueue.push(proposal);\n\n        uint256 proposalIndex = proposalQueue.length.sub(1);\n        emit SubmitProposal(proposalIndex, msg.sender, memberAddress, applicant, tokenTribute, sharesRequested);\n    }\n\n    function submitRecipientProposal(\n        address _recipient,\n        string memory details\n    )\n        public\n        onlyDelegate\n    {\n        require(recipient != address(0), \"Moloch::submitRecipientProposal - recipient cannot be 0\");\n        require(recipient != _recipient, \"Moloch::submitRecipientProposal - recipient must be different\");\n        require(recipient != address(this), \"Moloch::submitRecipientProposal - recipient cannot be this contract\");\n\n        address memberAddress = memberAddressByDelegateKey[msg.sender];\n\n        // collect proposal deposit from proposer and store it in the Moloch until the proposal is processed\n        require(approvedToken.transferFrom(msg.sender, address(this), proposalDeposit), \"Moloch::submitProposal - proposal deposit token transfer failed\");\n\n        // compute startingPeriod for proposal\n        uint256 startingPeriod = max(\n            getCurrentPeriod(),\n            proposalQueue.length == 0 ? 0 : proposalQueue[proposalQueue.length.sub(1)].startingPeriod\n        ).add(1);\n\n        // create proposal ...\n        Proposal memory proposal = Proposal({\n            proposer: memberAddress,\n            applicant: _recipient,\n            isRecipientProposal: true,\n            sharesRequested: 0,\n            startingPeriod: startingPeriod,\n            yesVotes: 0,\n            noVotes: 0,\n            processed: false,\n            didPass: false,\n            aborted: false,\n            tokenTribute: 0,\n            details: details,\n            maxTotalSharesAtYesVote: 0\n        });\n\n        // ... and append it to the queue\n        proposalQueue.push(proposal);\n\n        uint256 proposalIndex = proposalQueue.length.sub(1);\n        uint256 tokenTribute = 0;\n        uint256 sharesRequested = 0;\n        emit SubmitProposal(proposalIndex, msg.sender, memberAddress, _recipient, tokenTribute, sharesRequested);\n    }\n\n    function submitVote(uint256 proposalIndex, uint8 uintVote) public onlyDelegate {\n        address memberAddress = memberAddressByDelegateKey[msg.sender];\n        Member storage member = members[memberAddress];\n\n        require(proposalIndex < proposalQueue.length, \"Moloch::submitVote - proposal does not exist\");\n        Proposal storage proposal = proposalQueue[proposalIndex];\n\n        require(uintVote < 3, \"Moloch::submitVote - uintVote must be less than 3\");\n        Vote vote = Vote(uintVote);\n\n        require(getCurrentPeriod() >= proposal.startingPeriod, \"Moloch::submitVote - voting period has not started\");\n        require(!hasVotingPeriodExpired(proposal.startingPeriod), \"Moloch::submitVote - proposal voting period has expired\");\n        require(proposal.votesByMember[memberAddress] == Vote.Null, \"Moloch::submitVote - member has already voted on this proposal\");\n        require(vote == Vote.Yes || vote == Vote.No, \"Moloch::submitVote - vote must be either Yes or No\");\n        require(!proposal.aborted, \"Moloch::submitVote - proposal has been aborted\");\n\n        // store vote\n        proposal.votesByMember[memberAddress] = vote;\n\n        // count vote\n        if (vote == Vote.Yes) {\n            proposal.yesVotes = proposal.yesVotes.add(member.shares);\n\n            // set highest index (latest) yes vote - must be processed for member to ragequit\n            if (proposalIndex > member.highestIndexYesVote) {\n                member.highestIndexYesVote = proposalIndex;\n            }\n\n            // set maximum of total shares encountered at a yes vote - used to bound dilution for yes voters\n            if (totalShares > proposal.maxTotalSharesAtYesVote) {\n                proposal.maxTotalSharesAtYesVote = totalShares;\n            }\n\n        } else if (vote == Vote.No) {\n            proposal.noVotes = proposal.noVotes.add(member.shares);\n        }\n\n        emit SubmitVote(proposalIndex, msg.sender, memberAddress, uintVote);\n    }\n\n    function processProposal(uint256 proposalIndex) public {\n        require(proposalIndex < proposalQueue.length, \"Moloch::processProposal - proposal does not exist\");\n        Proposal storage proposal = proposalQueue[proposalIndex];\n\n        require(!proposal.isRecipientProposal, \"Endaoment:processProposal - proposal is not a member proposal\");\n\n        require(getCurrentPeriod() >= proposal.startingPeriod.add(votingPeriodLength).add(gracePeriodLength), \"Moloch::processProposal - proposal is not ready to be processed\");\n        require(proposal.processed == false, \"Moloch::processProposal - proposal has already been processed\");\n        require(proposalIndex == 0 || proposalQueue[proposalIndex.sub(1)].processed, \"Moloch::processProposal - previous proposal must be processed\");\n\n        proposal.processed = true;\n        totalSharesRequested = totalSharesRequested.sub(proposal.sharesRequested);\n\n        bool didPass = proposal.yesVotes > proposal.noVotes;\n\n        // Make the proposal fail if the dilutionBound is exceeded\n        if (totalShares.mul(dilutionBound) < proposal.maxTotalSharesAtYesVote) {\n            didPass = false;\n        }\n\n        // PROPOSAL PASSED\n        if (didPass && !proposal.aborted) {\n\n            proposal.didPass = true;\n\n            // if the applicant is already a member, add to their existing shares\n            if (members[proposal.applicant].exists) {\n                members[proposal.applicant].shares = members[proposal.applicant].shares.add(proposal.sharesRequested);\n\n            // the applicant is a new member, create a new record for them\n            } else {\n                // if the applicant address is already taken by a member's delegateKey, reset it to their member address\n                if (members[memberAddressByDelegateKey[proposal.applicant]].exists) {\n                    address memberToOverride = memberAddressByDelegateKey[proposal.applicant];\n                    memberAddressByDelegateKey[memberToOverride] = memberToOverride;\n                    members[memberToOverride].delegateKey = memberToOverride;\n                }\n\n                // use applicant address as delegateKey by default\n                members[proposal.applicant] = Member(proposal.applicant, proposal.sharesRequested, true, 0);\n                memberAddressByDelegateKey[proposal.applicant] = proposal.applicant;\n            }\n\n            // mint new shares\n            totalShares = totalShares.add(proposal.sharesRequested);\n\n            // DONE transfer tokens to guild bank\n            require(\n                approvedToken.transfer(address(guildBank), proposal.tokenTribute),\n                \"Moloch::processProposal - token transfer to guild bank failed\"\n            );\n\n            // Call function to convert guild bank Dai to rDAI\n            guildBank.convertToInterestEarningToken();\n\n        // PROPOSAL FAILED OR ABORTED\n        } else {\n            // DONE return all tokens to the applicant\n            require(\n                approvedToken.transfer(proposal.applicant, proposal.tokenTribute),\n                \"Moloch::processProposal - failing vote token transfer failed\"\n            );\n        }\n\n        // DONE send msg.sender the processingReward\n        require(\n            approvedToken.transfer(msg.sender, processingReward),\n            \"Moloch::processProposal - failed to send processing reward to msg.sender\"\n        );\n\n        // DONE return deposit to proposer (subtract processing reward)\n        require(\n            approvedToken.transfer(proposal.proposer, proposalDeposit.sub(processingReward)),\n            \"Moloch::processProposal - failed to return proposal deposit to proposer\"\n        );\n\n        emit ProcessProposal(\n            proposalIndex,\n            proposal.applicant,\n            proposal.proposer,\n            proposal.tokenTribute,\n            proposal.sharesRequested,\n            didPass\n        );\n    }\n\n    function processRecipientProposal(uint256 proposalIndex) public {\n        require(proposalIndex < proposalQueue.length, \"Moloch::processProposal - proposal does not exist\");\n        Proposal storage proposal = proposalQueue[proposalIndex];\n\n        require(proposal.isRecipientProposal, \"Endaoment:processRecipientProposal - proposal is not a recipient proposal\");\n\n        require(getCurrentPeriod() >= proposal.startingPeriod.add(votingPeriodLength).add(gracePeriodLength), \"Moloch::processProposal - proposal is not ready to be processed\");\n        require(proposal.processed == false, \"Moloch::processProposal - proposal has already been processed\");\n        require(proposalIndex == 0 || proposalQueue[proposalIndex.sub(1)].processed, \"Moloch::processProposal - previous proposal must be processed\");\n\n        proposal.processed = true;\n\n        bool didPass = proposal.yesVotes > proposal.noVotes;\n\n        // PROPOSAL PASSED\n        if (didPass && !proposal.aborted) {\n\n            proposal.didPass = true;\n\n            // call guild bank function to handle interest changes\n            address _newRecipient = proposal.applicant;\n            recipient = _newRecipient;\n            guildBank.updateRecipient(_newRecipient, totalShares);\n\n        // PROPOSAL FAILED OR ABORTED\n        }\n\n        // send msg.sender the processingReward\n        require(\n            approvedToken.transfer(msg.sender, processingReward),\n            \"Moloch::processProposal - failed to send processing reward to msg.sender\"\n        );\n\n        // return deposit to proposer (subtract processing reward)\n        require(\n            approvedToken.transfer(proposal.proposer, proposalDeposit.sub(processingReward)),\n            \"Moloch::processProposal - failed to return proposal deposit to proposer\"\n        );\n\n        emit ProcessProposal(\n            proposalIndex,\n            proposal.applicant,\n            proposal.proposer,\n            proposal.tokenTribute,\n            proposal.sharesRequested,\n            didPass\n        );\n    }\n\n    function ragequit(uint256 sharesToBurn) public onlyMember {\n        // uint256 initialTotalShares = totalShares;\n\n        Member storage member = members[msg.sender];\n\n        require(member.shares >= sharesToBurn, \"Moloch::ragequit - insufficient shares\");\n\n        require(canRagequit(member.highestIndexYesVote), \"Moloch::ragequit - cant ragequit until highest index proposal member voted YES on is processed\");\n\n        // burn shares\n        member.shares = member.shares.sub(sharesToBurn);\n        totalShares = totalShares.sub(sharesToBurn);\n\n        // instruct guildBank to transfer fair share of tokens to the ragequitter\n        require(\n            guildBank.withdraw(msg.sender, sharesToBurn),\n            \"Moloch::ragequit - withdrawal of tokens from guildBank failed\"\n        );\n\n        emit Ragequit(msg.sender, sharesToBurn);\n    }\n\n    function abort(uint256 proposalIndex) public {\n        require(proposalIndex < proposalQueue.length, \"Moloch::abort - proposal does not exist\");\n        Proposal storage proposal = proposalQueue[proposalIndex];\n\n        require(msg.sender == proposal.applicant, \"Moloch::abort - msg.sender must be applicant\");\n        require(getCurrentPeriod() < proposal.startingPeriod.add(abortWindow), \"Moloch::abort - abort window must not have passed\");\n        require(!proposal.aborted, \"Moloch::abort - proposal must not have already been aborted\");\n\n        uint256 tokensToAbort = proposal.tokenTribute;\n        proposal.tokenTribute = 0;\n        proposal.aborted = true;\n\n        // return all tokens to the applicant\n        require(\n            approvedToken.transfer(proposal.applicant, tokensToAbort),\n            \"Moloch::processProposal - failed to return tribute to applicant\"\n        );\n\n        emit Abort(proposalIndex, msg.sender);\n    }\n\n    function updateDelegateKey(address newDelegateKey) public onlyMember {\n        require(newDelegateKey != address(0), \"Moloch::updateDelegateKey - newDelegateKey cannot be 0\");\n\n        // skip checks if member is setting the delegate key to their member address\n        if (newDelegateKey != msg.sender) {\n            require(!members[newDelegateKey].exists, \"Moloch::updateDelegateKey - cant overwrite existing members\");\n            require(!members[memberAddressByDelegateKey[newDelegateKey]].exists, \"Moloch::updateDelegateKey - cant overwrite existing delegate keys\");\n        }\n\n        Member storage member = members[msg.sender];\n        memberAddressByDelegateKey[member.delegateKey] = address(0);\n        memberAddressByDelegateKey[newDelegateKey] = msg.sender;\n        member.delegateKey = newDelegateKey;\n\n        emit UpdateDelegateKey(msg.sender, newDelegateKey);\n    }\n\n    /***************\n    GETTER FUNCTIONS\n    ***************/\n\n    function max(uint256 x, uint256 y) internal pure returns (uint256) {\n        return x >= y ? x : y;\n    }\n\n    function getCurrentPeriod() public view returns (uint256) {\n        return now.sub(summoningTime).div(periodDuration);\n    }\n\n    function getProposalQueueLength() public view returns (uint256) {\n        return proposalQueue.length;\n    }\n\n    // can only ragequit if the latest proposal you voted YES on has been processed\n    function canRagequit(uint256 highestIndexYesVote) public view returns (bool) {\n        require(highestIndexYesVote < proposalQueue.length, \"Moloch::canRagequit - proposal does not exist\");\n        return proposalQueue[highestIndexYesVote].processed;\n    }\n\n    function hasVotingPeriodExpired(uint256 startingPeriod) public view returns (bool) {\n        return getCurrentPeriod() >= startingPeriod.add(votingPeriodLength);\n    }\n\n    function getMemberProposalVote(address memberAddress, uint256 proposalIndex) public view returns (Vote) {\n        require(members[memberAddress].exists, \"Moloch::getMemberProposalVote - member doesn't exist\");\n        require(proposalIndex < proposalQueue.length, \"Moloch::getMemberProposalVote - proposal doesn't exist\");\n        return proposalQueue[proposalIndex].votesByMember[memberAddress];\n    }\n}",
  "sourcePath": "/Users/mds/Documents/eth-denver/hackathon/endaoment/contracts/Moloch.sol",
  "compiler": {
    "name": "solc",
    "version": "0.5.12+commit.7709ece9.Emscripten.clang"
  },
  "schemaVersion": "3.0.19",
  "updatedAt": "2020-02-16T02:56:54.463Z",
  "networkType": "ethereum",
  "devdoc": {
    "methods": {}
  },
  "userdoc": {
    "methods": {
      "constructor": "****** FUNCTIONS*******",
      "submitProposal(address,uint256,uint256,string)": {
        "notice": "*************** PROPOSAL FUNCTIONS****************"
      }
    }
  }
}