{
  "contractName": "Proxiable",
  "abi": [
    {
      "constant": true,
      "inputs": [],
      "name": "proxiableUUID",
      "outputs": [
        {
          "internalType": "bytes32",
          "name": "",
          "type": "bytes32"
        }
      ],
      "payable": false,
      "stateMutability": "pure",
      "type": "function"
    }
  ],
  "bytecode": "0x6080604052348015600f57600080fd5b50609e8061001e6000396000f3fe6080604052348015600f57600080fd5b506004361060285760003560e01c806352d1902d14602d575b600080fd5b60336045565b60408051918252519081900360200190f35b7fc5f16f0fcc639fa48a6947836d9850f504798523bf8c9a3a87d5876cf622bcf79056fea265627a7a72315820850e6927d721cea41819297cf28982dc3c9e4dc6c040c2194cb6b6c53d6b8b2b64736f6c63430005100032",
  "source": "pragma solidity ^0.5.0;\n\ncontract Proxiable {\n    // Code position in storage is keccak256(\"PROXIABLE\") = \"0xc5f16f0fcc639fa48a6947836d9850f504798523bf8c9a3a87d5876cf622bcf7\"\n\n    function updateCodeAddress(address newAddress) internal {\n        require(\n            bytes32(\n                    0xc5f16f0fcc639fa48a6947836d9850f504798523bf8c9a3a87d5876cf622bcf7\n                ) ==\n                Proxiable(newAddress).proxiableUUID(),\n            \"Not compatible\"\n        );\n        assembly {\n            // solium-disable-line\n            sstore(\n                0xc5f16f0fcc639fa48a6947836d9850f504798523bf8c9a3a87d5876cf622bcf7,\n                newAddress\n            )\n        }\n    }\n    function proxiableUUID() public pure returns (bytes32) {\n        return\n            0xc5f16f0fcc639fa48a6947836d9850f504798523bf8c9a3a87d5876cf622bcf7;\n    }\n}\n",
  "sourcePath": "/Users/bendi/Development/endaoment/contracts/Proxiable.sol",
  "compiler": {
    "name": "solc",
    "version": "0.5.16+commit.9c3226ce.Emscripten.clang"
  },
  "schemaVersion": "3.0.23",
  "updatedAt": "2020-02-16T09:30:40.250Z",
  "devdoc": {
    "methods": {}
  },
  "userdoc": {
    "methods": {}
  }
}