{
  "contractName": "RToken",
  "abi": [
    {
      "anonymous": false,
      "inputs": [
        {
          "indexed": false,
          "internalType": "address",
          "name": "strategy",
          "type": "address"
        },
        {
          "indexed": false,
          "internalType": "uint256",
          "name": "conversionRate",
          "type": "uint256"
        }
      ],
      "name": "AllocationStrategyChanged",
      "type": "event"
    },
    {
      "anonymous": false,
      "inputs": [
        {
          "indexed": true,
          "internalType": "address",
          "name": "owner",
          "type": "address"
        },
        {
          "indexed": true,
          "internalType": "address",
          "name": "spender",
          "type": "address"
        },
        {
          "indexed": false,
          "internalType": "uint256",
          "name": "value",
          "type": "uint256"
        }
      ],
      "name": "Approval",
      "type": "event"
    },
    {
      "anonymous": false,
      "inputs": [
        {
          "indexed": false,
          "internalType": "address",
          "name": "newCode",
          "type": "address"
        }
      ],
      "name": "CodeUpdated",
      "type": "event"
    },
    {
      "anonymous": false,
      "inputs": [
        {
          "indexed": true,
          "internalType": "address",
          "name": "account",
          "type": "address"
        },
        {
          "indexed": true,
          "internalType": "uint256",
          "name": "oldHatID",
          "type": "uint256"
        },
        {
          "indexed": true,
          "internalType": "uint256",
          "name": "newHatID",
          "type": "uint256"
        }
      ],
      "name": "HatChanged",
      "type": "event"
    },
    {
      "anonymous": false,
      "inputs": [
        {
          "indexed": true,
          "internalType": "uint256",
          "name": "hatID",
          "type": "uint256"
        }
      ],
      "name": "HatCreated",
      "type": "event"
    },
    {
      "anonymous": false,
      "inputs": [
        {
          "indexed": true,
          "internalType": "address",
          "name": "recipient",
          "type": "address"
        },
        {
          "indexed": false,
          "internalType": "uint256",
          "name": "amount",
          "type": "uint256"
        }
      ],
      "name": "InterestPaid",
      "type": "event"
    },
    {
      "anonymous": false,
      "inputs": [
        {
          "indexed": true,
          "internalType": "address",
          "name": "owner",
          "type": "address"
        },
        {
          "indexed": true,
          "internalType": "address",
          "name": "recipient",
          "type": "address"
        },
        {
          "indexed": true,
          "internalType": "uint256",
          "name": "hatId",
          "type": "uint256"
        },
        {
          "indexed": false,
          "internalType": "bool",
          "name": "isDistribution",
          "type": "bool"
        },
        {
          "indexed": false,
          "internalType": "uint256",
          "name": "redeemableAmount",
          "type": "uint256"
        },
        {
          "indexed": false,
          "internalType": "uint256",
          "name": "internalSavingsAmount",
          "type": "uint256"
        }
      ],
      "name": "LoansTransferred",
      "type": "event"
    },
    {
      "anonymous": false,
      "inputs": [
        {
          "indexed": true,
          "internalType": "address",
          "name": "previousOwner",
          "type": "address"
        },
        {
          "indexed": true,
          "internalType": "address",
          "name": "newOwner",
          "type": "address"
        }
      ],
      "name": "OwnershipTransferred",
      "type": "event"
    },
    {
      "anonymous": false,
      "inputs": [
        {
          "indexed": true,
          "internalType": "address",
          "name": "from",
          "type": "address"
        },
        {
          "indexed": true,
          "internalType": "address",
          "name": "to",
          "type": "address"
        },
        {
          "indexed": false,
          "internalType": "uint256",
          "name": "value",
          "type": "uint256"
        }
      ],
      "name": "Transfer",
      "type": "event"
    },
    {
      "constant": true,
      "inputs": [],
      "name": "ALLOCATION_STRATEGY_EXCHANGE_RATE_SCALE",
      "outputs": [
        {
          "internalType": "uint256",
          "name": "",
          "type": "uint256"
        }
      ],
      "payable": false,
      "stateMutability": "view",
      "type": "function"
    },
    {
      "constant": true,
      "inputs": [],
      "name": "INITIAL_SAVING_ASSET_CONVERSION_RATE",
      "outputs": [
        {
          "internalType": "uint256",
          "name": "",
          "type": "uint256"
        }
      ],
      "payable": false,
      "stateMutability": "view",
      "type": "function"
    },
    {
      "constant": true,
      "inputs": [],
      "name": "MAX_NUM_HAT_RECIPIENTS",
      "outputs": [
        {
          "internalType": "uint256",
          "name": "",
          "type": "uint256"
        }
      ],
      "payable": false,
      "stateMutability": "view",
      "type": "function"
    },
    {
      "constant": true,
      "inputs": [],
      "name": "MAX_UINT256",
      "outputs": [
        {
          "internalType": "uint256",
          "name": "",
          "type": "uint256"
        }
      ],
      "payable": false,
      "stateMutability": "view",
      "type": "function"
    },
    {
      "constant": true,
      "inputs": [],
      "name": "PROPORTION_BASE",
      "outputs": [
        {
          "internalType": "uint32",
          "name": "",
          "type": "uint32"
        }
      ],
      "payable": false,
      "stateMutability": "view",
      "type": "function"
    },
    {
      "constant": true,
      "inputs": [],
      "name": "SELF_HAT_ID",
      "outputs": [
        {
          "internalType": "uint256",
          "name": "",
          "type": "uint256"
        }
      ],
      "payable": false,
      "stateMutability": "view",
      "type": "function"
    },
    {
      "constant": true,
      "inputs": [],
      "name": "_guardCounter",
      "outputs": [
        {
          "internalType": "uint256",
          "name": "",
          "type": "uint256"
        }
      ],
      "payable": false,
      "stateMutability": "view",
      "type": "function"
    },
    {
      "constant": true,
      "inputs": [],
      "name": "_owner",
      "outputs": [
        {
          "internalType": "address",
          "name": "",
          "type": "address"
        }
      ],
      "payable": false,
      "stateMutability": "view",
      "type": "function"
    },
    {
      "constant": true,
      "inputs": [
        {
          "internalType": "address",
          "name": "",
          "type": "address"
        }
      ],
      "name": "accountStats",
      "outputs": [
        {
          "internalType": "uint256",
          "name": "cumulativeInterest",
          "type": "uint256"
        }
      ],
      "payable": false,
      "stateMutability": "view",
      "type": "function"
    },
    {
      "constant": true,
      "inputs": [
        {
          "internalType": "address",
          "name": "",
          "type": "address"
        }
      ],
      "name": "accounts",
      "outputs": [
        {
          "internalType": "uint256",
          "name": "hatID",
          "type": "uint256"
        },
        {
          "internalType": "uint256",
          "name": "rAmount",
          "type": "uint256"
        },
        {
          "internalType": "uint256",
          "name": "rInterest",
          "type": "uint256"
        },
        {
          "internalType": "uint256",
          "name": "lDebt",
          "type": "uint256"
        },
        {
          "internalType": "uint256",
          "name": "sInternalAmount",
          "type": "uint256"
        }
      ],
      "payable": false,
      "stateMutability": "view",
      "type": "function"
    },
    {
      "constant": true,
      "inputs": [],
      "name": "decimals",
      "outputs": [
        {
          "internalType": "uint256",
          "name": "",
          "type": "uint256"
        }
      ],
      "payable": false,
      "stateMutability": "view",
      "type": "function"
    },
    {
      "constant": true,
      "inputs": [
        {
          "internalType": "uint256",
          "name": "",
          "type": "uint256"
        }
      ],
      "name": "hatStats",
      "outputs": [
        {
          "internalType": "uint256",
          "name": "useCount",
          "type": "uint256"
        },
        {
          "internalType": "uint256",
          "name": "totalLoans",
          "type": "uint256"
        },
        {
          "internalType": "uint256",
          "name": "totalInternalSavings",
          "type": "uint256"
        }
      ],
      "payable": false,
      "stateMutability": "view",
      "type": "function"
    },
    {
      "constant": true,
      "inputs": [],
      "name": "ias",
      "outputs": [
        {
          "internalType": "contract IAllocationStrategy",
          "name": "",
          "type": "address"
        }
      ],
      "payable": false,
      "stateMutability": "view",
      "type": "function"
    },
    {
      "constant": true,
      "inputs": [],
      "name": "initialized",
      "outputs": [
        {
          "internalType": "bool",
          "name": "",
          "type": "bool"
        }
      ],
      "payable": false,
      "stateMutability": "view",
      "type": "function"
    },
    {
      "constant": true,
      "inputs": [],
      "name": "isOwner",
      "outputs": [
        {
          "internalType": "bool",
          "name": "",
          "type": "bool"
        }
      ],
      "payable": false,
      "stateMutability": "view",
      "type": "function"
    },
    {
      "constant": true,
      "inputs": [],
      "name": "name",
      "outputs": [
        {
          "internalType": "string",
          "name": "",
          "type": "string"
        }
      ],
      "payable": false,
      "stateMutability": "view",
      "type": "function"
    },
    {
      "constant": true,
      "inputs": [],
      "name": "owner",
      "outputs": [
        {
          "internalType": "address",
          "name": "",
          "type": "address"
        }
      ],
      "payable": false,
      "stateMutability": "view",
      "type": "function"
    },
    {
      "constant": true,
      "inputs": [],
      "name": "proxiableUUID",
      "outputs": [
        {
          "internalType": "bytes32",
          "name": "",
          "type": "bytes32"
        }
      ],
      "payable": false,
      "stateMutability": "pure",
      "type": "function"
    },
    {
      "constant": false,
      "inputs": [],
      "name": "renounceOwnership",
      "outputs": [],
      "payable": false,
      "stateMutability": "nonpayable",
      "type": "function"
    },
    {
      "constant": true,
      "inputs": [],
      "name": "savingAssetConversionRate",
      "outputs": [
        {
          "internalType": "uint256",
          "name": "",
          "type": "uint256"
        }
      ],
      "payable": false,
      "stateMutability": "view",
      "type": "function"
    },
    {
      "constant": true,
      "inputs": [],
      "name": "savingAssetOrignalAmount",
      "outputs": [
        {
          "internalType": "uint256",
          "name": "",
          "type": "uint256"
        }
      ],
      "payable": false,
      "stateMutability": "view",
      "type": "function"
    },
    {
      "constant": true,
      "inputs": [],
      "name": "symbol",
      "outputs": [
        {
          "internalType": "string",
          "name": "",
          "type": "string"
        }
      ],
      "payable": false,
      "stateMutability": "view",
      "type": "function"
    },
    {
      "constant": true,
      "inputs": [],
      "name": "token",
      "outputs": [
        {
          "internalType": "contract IERC20",
          "name": "",
          "type": "address"
        }
      ],
      "payable": false,
      "stateMutability": "view",
      "type": "function"
    },
    {
      "constant": true,
      "inputs": [],
      "name": "totalSupply",
      "outputs": [
        {
          "internalType": "uint256",
          "name": "",
          "type": "uint256"
        }
      ],
      "payable": false,
      "stateMutability": "view",
      "type": "function"
    },
    {
      "constant": true,
      "inputs": [
        {
          "internalType": "address",
          "name": "",
          "type": "address"
        },
        {
          "internalType": "address",
          "name": "",
          "type": "address"
        }
      ],
      "name": "transferAllowances",
      "outputs": [
        {
          "internalType": "uint256",
          "name": "",
          "type": "uint256"
        }
      ],
      "payable": false,
      "stateMutability": "view",
      "type": "function"
    },
    {
      "constant": false,
      "inputs": [
        {
          "internalType": "address",
          "name": "newOwner",
          "type": "address"
        }
      ],
      "name": "transferOwnership",
      "outputs": [],
      "payable": false,
      "stateMutability": "nonpayable",
      "type": "function"
    },
    {
      "constant": false,
      "inputs": [
        {
          "internalType": "contract IAllocationStrategy",
          "name": "allocationStrategy",
          "type": "address"
        },
        {
          "internalType": "string",
          "name": "name_",
          "type": "string"
        },
        {
          "internalType": "string",
          "name": "symbol_",
          "type": "string"
        },
        {
          "internalType": "uint256",
          "name": "decimals_",
          "type": "uint256"
        }
      ],
      "name": "initialize",
      "outputs": [],
      "payable": false,
      "stateMutability": "nonpayable",
      "type": "function"
    },
    {
      "constant": true,
      "inputs": [
        {
          "internalType": "address",
          "name": "owner",
          "type": "address"
        }
      ],
      "name": "balanceOf",
      "outputs": [
        {
          "internalType": "uint256",
          "name": "",
          "type": "uint256"
        }
      ],
      "payable": false,
      "stateMutability": "view",
      "type": "function"
    },
    {
      "constant": true,
      "inputs": [
        {
          "internalType": "address",
          "name": "owner",
          "type": "address"
        },
        {
          "internalType": "address",
          "name": "spender",
          "type": "address"
        }
      ],
      "name": "allowance",
      "outputs": [
        {
          "internalType": "uint256",
          "name": "",
          "type": "uint256"
        }
      ],
      "payable": false,
      "stateMutability": "view",
      "type": "function"
    },
    {
      "constant": false,
      "inputs": [
        {
          "internalType": "address",
          "name": "spender",
          "type": "address"
        },
        {
          "internalType": "uint256",
          "name": "amount",
          "type": "uint256"
        }
      ],
      "name": "approve",
      "outputs": [
        {
          "internalType": "bool",
          "name": "",
          "type": "bool"
        }
      ],
      "payable": false,
      "stateMutability": "nonpayable",
      "type": "function"
    },
    {
      "constant": false,
      "inputs": [
        {
          "internalType": "address",
          "name": "dst",
          "type": "address"
        },
        {
          "internalType": "uint256",
          "name": "amount",
          "type": "uint256"
        }
      ],
      "name": "transfer",
      "outputs": [
        {
          "internalType": "bool",
          "name": "",
          "type": "bool"
        }
      ],
      "payable": false,
      "stateMutability": "nonpayable",
      "type": "function"
    },
    {
      "constant": false,
      "inputs": [
        {
          "internalType": "address",
          "name": "dst",
          "type": "address"
        }
      ],
      "name": "transferAll",
      "outputs": [
        {
          "internalType": "bool",
          "name": "",
          "type": "bool"
        }
      ],
      "payable": false,
      "stateMutability": "nonpayable",
      "type": "function"
    },
    {
      "constant": false,
      "inputs": [
        {
          "internalType": "address",
          "name": "src",
          "type": "address"
        },
        {
          "internalType": "address",
          "name": "dst",
          "type": "address"
        }
      ],
      "name": "transferAllFrom",
      "outputs": [
        {
          "internalType": "bool",
          "name": "",
          "type": "bool"
        }
      ],
      "payable": false,
      "stateMutability": "nonpayable",
      "type": "function"
    },
    {
      "constant": false,
      "inputs": [
        {
          "internalType": "address",
          "name": "src",
          "type": "address"
        },
        {
          "internalType": "address",
          "name": "dst",
          "type": "address"
        },
        {
          "internalType": "uint256",
          "name": "amount",
          "type": "uint256"
        }
      ],
      "name": "transferFrom",
      "outputs": [
        {
          "internalType": "bool",
          "name": "",
          "type": "bool"
        }
      ],
      "payable": false,
      "stateMutability": "nonpayable",
      "type": "function"
    },
    {
      "constant": false,
      "inputs": [
        {
          "internalType": "uint256",
          "name": "mintAmount",
          "type": "uint256"
        }
      ],
      "name": "mint",
      "outputs": [
        {
          "internalType": "bool",
          "name": "",
          "type": "bool"
        }
      ],
      "payable": false,
      "stateMutability": "nonpayable",
      "type": "function"
    },
    {
      "constant": false,
      "inputs": [
        {
          "internalType": "uint256",
          "name": "mintAmount",
          "type": "uint256"
        },
        {
          "internalType": "uint256",
          "name": "hatID",
          "type": "uint256"
        }
      ],
      "name": "mintWithSelectedHat",
      "outputs": [
        {
          "internalType": "bool",
          "name": "",
          "type": "bool"
        }
      ],
      "payable": false,
      "stateMutability": "nonpayable",
      "type": "function"
    },
    {
      "constant": false,
      "inputs": [
        {
          "internalType": "uint256",
          "name": "mintAmount",
          "type": "uint256"
        },
        {
          "internalType": "address[]",
          "name": "recipients",
          "type": "address[]"
        },
        {
          "internalType": "uint32[]",
          "name": "proportions",
          "type": "uint32[]"
        }
      ],
      "name": "mintWithNewHat",
      "outputs": [
        {
          "internalType": "bool",
          "name": "",
          "type": "bool"
        }
      ],
      "payable": false,
      "stateMutability": "nonpayable",
      "type": "function"
    },
    {
      "constant": false,
      "inputs": [
        {
          "internalType": "uint256",
          "name": "redeemTokens",
          "type": "uint256"
        }
      ],
      "name": "redeem",
      "outputs": [
        {
          "internalType": "bool",
          "name": "",
          "type": "bool"
        }
      ],
      "payable": false,
      "stateMutability": "nonpayable",
      "type": "function"
    },
    {
      "constant": false,
      "inputs": [],
      "name": "redeemAll",
      "outputs": [
        {
          "internalType": "bool",
          "name": "",
          "type": "bool"
        }
      ],
      "payable": false,
      "stateMutability": "nonpayable",
      "type": "function"
    },
    {
      "constant": false,
      "inputs": [
        {
          "internalType": "address",
          "name": "redeemTo",
          "type": "address"
        },
        {
          "internalType": "uint256",
          "name": "redeemTokens",
          "type": "uint256"
        }
      ],
      "name": "redeemAndTransfer",
      "outputs": [
        {
          "internalType": "bool",
          "name": "",
          "type": "bool"
        }
      ],
      "payable": false,
      "stateMutability": "nonpayable",
      "type": "function"
    },
    {
      "constant": false,
      "inputs": [
        {
          "internalType": "address",
          "name": "redeemTo",
          "type": "address"
        }
      ],
      "name": "redeemAndTransferAll",
      "outputs": [
        {
          "internalType": "bool",
          "name": "",
          "type": "bool"
        }
      ],
      "payable": false,
      "stateMutability": "nonpayable",
      "type": "function"
    },
    {
      "constant": false,
      "inputs": [
        {
          "internalType": "address[]",
          "name": "recipients",
          "type": "address[]"
        },
        {
          "internalType": "uint32[]",
          "name": "proportions",
          "type": "uint32[]"
        },
        {
          "internalType": "bool",
          "name": "doChangeHat",
          "type": "bool"
        }
      ],
      "name": "createHat",
      "outputs": [
        {
          "internalType": "uint256",
          "name": "hatID",
          "type": "uint256"
        }
      ],
      "payable": false,
      "stateMutability": "nonpayable",
      "type": "function"
    },
    {
      "constant": false,
      "inputs": [
        {
          "internalType": "uint256",
          "name": "hatID",
          "type": "uint256"
        }
      ],
      "name": "changeHat",
      "outputs": [
        {
          "internalType": "bool",
          "name": "",
          "type": "bool"
        }
      ],
      "payable": false,
      "stateMutability": "nonpayable",
      "type": "function"
    },
    {
      "constant": true,
      "inputs": [],
      "name": "getMaximumHatID",
      "outputs": [
        {
          "internalType": "uint256",
          "name": "hatID",
          "type": "uint256"
        }
      ],
      "payable": false,
      "stateMutability": "view",
      "type": "function"
    },
    {
      "constant": true,
      "inputs": [
        {
          "internalType": "address",
          "name": "owner",
          "type": "address"
        }
      ],
      "name": "getHatByAddress",
      "outputs": [
        {
          "internalType": "uint256",
          "name": "hatID",
          "type": "uint256"
        },
        {
          "internalType": "address[]",
          "name": "recipients",
          "type": "address[]"
        },
        {
          "internalType": "uint32[]",
          "name": "proportions",
          "type": "uint32[]"
        }
      ],
      "payable": false,
      "stateMutability": "view",
      "type": "function"
    },
    {
      "constant": true,
      "inputs": [
        {
          "internalType": "uint256",
          "name": "hatID",
          "type": "uint256"
        }
      ],
      "name": "getHatByID",
      "outputs": [
        {
          "internalType": "address[]",
          "name": "recipients",
          "type": "address[]"
        },
        {
          "internalType": "uint32[]",
          "name": "proportions",
          "type": "uint32[]"
        }
      ],
      "payable": false,
      "stateMutability": "view",
      "type": "function"
    },
    {
      "constant": true,
      "inputs": [
        {
          "internalType": "address",
          "name": "owner",
          "type": "address"
        }
      ],
      "name": "receivedSavingsOf",
      "outputs": [
        {
          "internalType": "uint256",
          "name": "amount",
          "type": "uint256"
        }
      ],
      "payable": false,
      "stateMutability": "view",
      "type": "function"
    },
    {
      "constant": true,
      "inputs": [
        {
          "internalType": "address",
          "name": "owner",
          "type": "address"
        }
      ],
      "name": "receivedLoanOf",
      "outputs": [
        {
          "internalType": "uint256",
          "name": "amount",
          "type": "uint256"
        }
      ],
      "payable": false,
      "stateMutability": "view",
      "type": "function"
    },
    {
      "constant": true,
      "inputs": [
        {
          "internalType": "address",
          "name": "owner",
          "type": "address"
        }
      ],
      "name": "interestPayableOf",
      "outputs": [
        {
          "internalType": "uint256",
          "name": "amount",
          "type": "uint256"
        }
      ],
      "payable": false,
      "stateMutability": "view",
      "type": "function"
    },
    {
      "constant": false,
      "inputs": [
        {
          "internalType": "address",
          "name": "owner",
          "type": "address"
        }
      ],
      "name": "payInterest",
      "outputs": [
        {
          "internalType": "bool",
          "name": "",
          "type": "bool"
        }
      ],
      "payable": false,
      "stateMutability": "nonpayable",
      "type": "function"
    },
    {
      "constant": true,
      "inputs": [],
      "name": "getGlobalStats",
      "outputs": [
        {
          "components": [
            {
              "internalType": "uint256",
              "name": "totalSupply",
              "type": "uint256"
            },
            {
              "internalType": "uint256",
              "name": "totalSavingsAmount",
              "type": "uint256"
            }
          ],
          "internalType": "struct RTokenStructs.GlobalStats",
          "name": "",
          "type": "tuple"
        }
      ],
      "payable": false,
      "stateMutability": "view",
      "type": "function"
    },
    {
      "constant": true,
      "inputs": [
        {
          "internalType": "address",
          "name": "owner",
          "type": "address"
        }
      ],
      "name": "getAccountStats",
      "outputs": [
        {
          "components": [
            {
              "internalType": "uint256",
              "name": "hatID",
              "type": "uint256"
            },
            {
              "internalType": "uint256",
              "name": "rAmount",
              "type": "uint256"
            },
            {
              "internalType": "uint256",
              "name": "rInterest",
              "type": "uint256"
            },
            {
              "internalType": "uint256",
              "name": "lDebt",
              "type": "uint256"
            },
            {
              "internalType": "uint256",
              "name": "sInternalAmount",
              "type": "uint256"
            },
            {
              "internalType": "uint256",
              "name": "rInterestPayable",
              "type": "uint256"
            },
            {
              "internalType": "uint256",
              "name": "cumulativeInterest",
              "type": "uint256"
            },
            {
              "internalType": "uint256",
              "name": "lRecipientsSum",
              "type": "uint256"
            }
          ],
          "internalType": "struct RTokenStructs.AccountStatsView",
          "name": "stats",
          "type": "tuple"
        }
      ],
      "payable": false,
      "stateMutability": "view",
      "type": "function"
    },
    {
      "constant": true,
      "inputs": [
        {
          "internalType": "uint256",
          "name": "hatID",
          "type": "uint256"
        }
      ],
      "name": "getHatStats",
      "outputs": [
        {
          "components": [
            {
              "internalType": "uint256",
              "name": "useCount",
              "type": "uint256"
            },
            {
              "internalType": "uint256",
              "name": "totalLoans",
              "type": "uint256"
            },
            {
              "internalType": "uint256",
              "name": "totalSavings",
              "type": "uint256"
            }
          ],
          "internalType": "struct RTokenStructs.HatStatsView",
          "name": "stats",
          "type": "tuple"
        }
      ],
      "payable": false,
      "stateMutability": "view",
      "type": "function"
    },
    {
      "constant": true,
      "inputs": [],
      "name": "getCurrentSavingStrategy",
      "outputs": [
        {
          "internalType": "address",
          "name": "",
          "type": "address"
        }
      ],
      "payable": false,
      "stateMutability": "view",
      "type": "function"
    },
    {
      "constant": true,
      "inputs": [],
      "name": "getSavingAssetBalance",
      "outputs": [
        {
          "internalType": "uint256",
          "name": "rAmount",
          "type": "uint256"
        },
        {
          "internalType": "uint256",
          "name": "sOriginalAmount",
          "type": "uint256"
        }
      ],
      "payable": false,
      "stateMutability": "view",
      "type": "function"
    },
    {
      "constant": false,
      "inputs": [
        {
          "internalType": "address",
          "name": "allocationStrategy_",
          "type": "address"
        }
      ],
      "name": "changeAllocationStrategy",
      "outputs": [],
      "payable": false,
      "stateMutability": "nonpayable",
      "type": "function"
    },
    {
      "constant": true,
      "inputs": [],
      "name": "getCurrentAllocationStrategy",
      "outputs": [
        {
          "internalType": "address",
          "name": "allocationStrategy",
          "type": "address"
        }
      ],
      "payable": false,
      "stateMutability": "view",
      "type": "function"
    },
    {
      "constant": false,
      "inputs": [
        {
          "internalType": "address",
          "name": "contractAddress",
          "type": "address"
        },
        {
          "internalType": "uint256",
          "name": "hatID",
          "type": "uint256"
        }
      ],
      "name": "changeHatFor",
      "outputs": [],
      "payable": false,
      "stateMutability": "nonpayable",
      "type": "function"
    },
    {
      "constant": false,
      "inputs": [
        {
          "internalType": "address",
          "name": "newCode",
          "type": "address"
        }
      ],
      "name": "updateCode",
      "outputs": [],
      "payable": false,
      "stateMutability": "nonpayable",
      "type": "function"
    }
  ],
  "bytecode": "0x60806040819052600080546001600160a01b03191633178082556001600160a01b0316917f8be0079c531659141344cd1fd0a4f28419497f9722a3daafe3b4186f6b6457e0908290a361477d806100576000396000f3fe608060405234801561001057600080fd5b50600436106103995760003560e01c80636b4169c3116101e9578063bf5bfdfb1161010f578063d8884795116100ad578063f04bf8b31161007c578063f04bf8b314610739578063f2fde38b1461075b578063fc0c546a1461076e578063fdbbf8ac1461077657610399565b8063d8884795146106f5578063db006a751461070b578063dd62ed3e1461071e578063e192782b1461073157610399565b8063c200659e116100e9578063c200659e146106b4578063d007c644146106bc578063d271be3f146106cf578063d3ac25c4146106e257610399565b8063bf5bfdfb146106ac578063c034d0db146104ea578063c1a2007d1461042657610399565b80638da5cb5b11610187578063a3a7e7f311610156578063a3a7e7f31461066b578063a9059cbb1461067e578063b2bdfa7b14610691578063b5dbfc1a1461069957610399565b80638da5cb5b146106405780638f32d59b1461064857806395d89b4114610650578063a0712d681461065857610399565b806371ee46eb116101c357806371ee46eb1461061257806377ede0511461061a57806381c8d895146103c757806384d4b4101461062d57610399565b80636b4169c3146105e257806370a08231146105f7578063715018a61461060a57610399565b80632f4350c2116102ce578063496cc1641161026c578063556043ef1161023b578063556043ef146105835780635cde5055146105985780635e5c06e2146105ab57806363152a50146105cf57610399565b8063496cc164146105355780634d12d4b6146105485780634fd7c0dd1461055b57806352d1902d1461057b57610399565b8063388c0b8c116102a8578063388c0b8c146104f25780633e20a92914610505578063469519541461050d5780634929fbf71461052257610399565b80632f4350c2146104da578063313ce567146104e257806333a581d2146104ea57610399565b8063158ef93e1161033b578063226e835c11610315578063226e835c1461047f57806323b872dd1461049457806328cdfaeb146104a75780632f2ba814146104c757610399565b8063158ef93e1461044e57806318160ddd146104565780631cda95d51461045e57610399565b806306fdde031161037757806306fdde03146103fe578063095ea7b31461041357806310f3a6d81461042657806313e23e411461043b57610399565b80630290cbc81461039e578063039ab887146103c7578063054ab01a146103dc575b600080fd5b6103b16103ac36600461372c565b610789565b6040516103be9190614348565b60405180910390f35b6103cf6107fc565b6040516103be9190614371565b6103ef6103ea36600461372c565b610808565b6040516103be93929190614559565b610406610837565b6040516103be919061438d565b6103b16104213660046137ef565b6108c2565b61042e610930565b6040516103be91906142b7565b6103cf61044936600461372c565b610940565b6103b1610962565b6103cf610972565b61047161046c366004613972565b610978565b6040516103be929190614323565b61048761098e565b6040516103be91906145fe565b6103b16104a23660046137a2565b610996565b6104ba6104b536600461372c565b6109ee565b6040516103be919061452e565b6103b16104d5366004613972565b610b3f565b6103b1610b84565b6103cf610bec565b6103cf610bf2565b6103b1610500366004613a17565b610bf8565b6103cf610c4d565b61052061051b36600461372c565b610c57565b005b6105206105303660046137ef565b610cec565b6103cf61054336600461372c565b610d43565b6105206105563660046138e1565b610d55565b61056e610569366004613972565b610f92565b6040516103be919061454b565b6103cf610fd4565b61058b610ff8565b6040516103be919061437f565b6103cf6105a636600461381f565b611007565b6105be6105b936600461372c565b6110be565b6040516103be9594939291906145b2565b6103cf6105dd366004613768565b6110ed565b6105ea61110a565b6040516103be919061453d565b6103cf61060536600461372c565b61113a565b610520611158565b6103cf6111c6565b6103cf61062836600461372c565b6111cc565b6103b161063b366004613768565b6111f4565b61042e61123e565b6103b161124d565b61040661125e565b6103b1610666366004613972565b6112b9565b6103b161067936600461372c565b6112cf565b6103b161068c3660046137ef565b61131a565b61042e61136c565b6103b16106a7366004613990565b61137b565b6103cf61143b565b6103cf611441565b6103b16106ca36600461372c565b611447565b6103b16106dd3660046137ef565b61145d565b6105206106f036600461372c565b61147e565b6106fd6118ba565b6040516103be929190614596565b6103b1610719366004613972565b6118cf565b6103cf61072c366004613768565b6118f0565b6103cf61191b565b61074c610747366004613972565b611920565b6040516103be939291906145a4565b61052061076936600461372c565b611941565b61058b611971565b6103cf61078436600461372c565b611980565b60018054810190819055600090336107a0816119b0565b6001600160a01b0381166000908152600c60205260409020600101546107c7908590611b59565b600192505060015481146107f65760405162461bcd60e51b81526004016107ed9061450e565b60405180910390fd5b50919050565b670de0b6b3a764000081565b6001600160a01b0381166000908152600c602052604090205460608061082d83611cb3565b9395909450915050565b6002805460408051602060018416156101000260001901909316849004601f810184900484028201840190925281815292918301828280156108ba5780601f1061088f576101008083540402835291602001916108ba565b820191906000526020600020905b81548152906001019060200180831161089d57829003601f168201915b505050505081565b336000818152600a602090815260408083206001600160a01b03871680855292528083208590555191929182907f8c5be1e5ebec7d5bd14f71427d1e84f3dd0314c0f7b2291e5b200ac8c7c3b9259061091c908790614371565b60405180910390a360019150505b92915050565b6006546001600160a01b03165b90565b6001600160a01b0381166000908152600c60205260409020600401545b919050565b600054600160a01b900460ff1681565b60055481565b60608061098483611cb3565b9094909350915050565b63ffffffff81565b600180548101908190556000906109ac856119b0565b6109b833868686611e15565b6109c1846119b0565b6001915060015481146109e65760405162461bcd60e51b81526004016107ed9061450e565b509392505050565b6109f66133c3565b6001600160a01b0382166000908152600c6020908152604091829020805484526001810154918401919091526002810154918301919091526004810154606083015260058101546080830152610a4b81612091565b60a08301526001600160a01b0383166000908152600d60205260408120805460c08501528254909190600b9060001914610a86578354610a89565b60005b81548110610a9357fe5b90600052602060002090600202019050826000015460001480610ab857508254600019145b15610ad957610acf846020015185604001516120e4565b60e0850152610b37565b60005b6001820154811015610b3557836003016000836000018381548110610afd57fe5b60009182526020808320909101546001600160a01b0316835282019290925260400190205460e0860180519091019052600101610adc565b505b505050919050565b60018054810190819055600090610b5633846120ff565b610b5f336119b0565b6001915060015481146107f65760405162461bcd60e51b81526004016107ed9061450e565b6001805481019081905560009033610b9b816119b0565b6001600160a01b0381166000908152600c6020526040902060010154610bc2908290611b59565b60019250506001548114610be85760405162461bcd60e51b81526004016107ed9061450e565b5090565b60045481565b60001981565b60018054810190819055600090610c0f33846120ff565b610c18846121e5565b610c21336119b0565b600191506001548114610c465760405162461bcd60e51b81526004016107ed9061450e565b5092915050565b600b546000190190565b610c5f61124d565b610c7b5760405162461bcd60e51b81526004016107ed9061449e565b600054600160a01b900460ff161515600114610ca95760405162461bcd60e51b81526004016107ed906144ee565b610cb2816124e3565b7f34459cf4c63f38e9b4af4ff8f74035bad6157484e669ffde70188afdf9917c6881604051610ce191906142b7565b60405180910390a150565b610cf461124d565b610d105760405162461bcd60e51b81526004016107ed9061449e565b610d19826125b6565b610d355760405162461bcd60e51b81526004016107ed9061443e565b610d3f82826120ff565b5050565b600d6020526000908152604090205481565b600054600160a01b900460ff1615610d7f5760405162461bcd60e51b81526004016107ed9061442e565b610d876125bc565b600080546001600160a01b03191633179055600180558251610db0906002906020860190613408565b508151610dc4906003906020850190613408565b506004818155670de0b6b3a7640000600955600680546001600160a01b0319166001600160a01b03878116919091179182905560408051636f307dc360e01b815290519290911692636f307dc3928282019260209290829003018186803b158015610e2e57600080fd5b505afa158015610e42573d6000803e3d6000fd5b505050506040513d601f19601f82011682018060405250610e66919081019061374a565b600780546001600160a01b03929092166001600160a01b031990921691909117905560408051600081830181815260608301845282528251818152602080820190945283830152600b8054600181018083559190925282518051919460029093027f0175b7a638427703f0dbe7bb9bbf987a2551717b34e79f33b5b1008d1fa01db90192610ef992849290910190613482565b506020828101518051610f1292600185019201906134e3565b5050600080525050600e6020526000197fe710864318d4a32f37d6ce54cb3fadbef648dd12d8dbdf53973564d56b7f881c556006546009546040517faa54229fa6d6451d2cd5d13b5bc60f1230a0f79091118926e9b95d8f4811713a92610f84926001600160a01b0390911691614308565b60405180910390a150505050565b610f9a61358e565b6000828152600e60209081526040909120805483526001810154918301919091526002810154610fc9906125d1565b604083015250919050565b7fc5f16f0fcc639fa48a6947836d9850f504798523bf8c9a3a87d5876cf622bcf790565b6006546001600160a01b031681565b6001805481019081905560408051602080880282810182019093528782526000939261108192918a918a9182919085019084908082843760009201919091525050604080516020808b0282810182019093528a82529093508a92508991829185019084908082843760009201919091525061266f92505050565b915082156110935761109333836120ff565b60015481146110b45760405162461bcd60e51b81526004016107ed9061450e565b5095945050505050565b600c60205260009081526040902080546001820154600283015460048401546005909401549293919290919085565b600a60209081526000928352604080842090915290825290205481565b6111126135af565b600061111f6008546128b0565b60408051808201909152600554815291016020820152905090565b6001600160a01b03166000908152600c602052604090206001015490565b61116061124d565b61117c5760405162461bcd60e51b81526004016107ed9061449e565b600080546040516001600160a01b03909116907f8be0079c531659141344cd1fd0a4f28419497f9722a3daafe3b4186f6b6457e0908390a3600080546001600160a01b0319169055565b60085481565b6001600160a01b0381166000908152600c602052604081206111ed81612091565b9392505050565b6001805481019081905560009061120a846119b0565b6001600160a01b0384166000908152600c602052604090206001015461123590339086908690611e15565b610c21836119b0565b6000546001600160a01b031690565b6000546001600160a01b0316331490565b6003805460408051602060026001851615610100026000190190941693909304601f810184900484028201840190925281815292918301828280156108ba5780601f1061088f576101008083540402835291602001916108ba565b60018054810190819055600090610b56836121e5565b60018054810190819055600090336112e6816119b0565b6001600160a01b0381166000908152600c602052604090206001015461131190829081908790611e15565b6107c7846119b0565b6001805481019081905560009033611331816119b0565b61133d81828787611e15565b611346856119b0565b60019250506001548114610c465760405162461bcd60e51b81526004016107ed9061450e565b6000546001600160a01b031681565b6001805481019081905560408051602080870282810182019093528682526000939284926113f79290918a918a91829185019084908082843760009201919091525050604080516020808b0282810182019093528a82529093508a92508991829185019084908082843760009201919091525061266f92505050565b905061140333826120ff565b61140c886121e5565b611415336119b0565b600192505060015481146110b45760405162461bcd60e51b81526004016107ed9061450e565b60015481565b60095481565b60018054810190819055600090610b5f836119b0565b6001805481019081905560009033611474816119b0565b6113468585611b59565b6001805481019081905561149061124d565b6114ac5760405162461bcd60e51b81526004016107ed9061449e565b60075460408051636f307dc360e01b8152905184926001600160a01b039081169290841691636f307dc391600480820192602092909190829003018186803b1580156114f757600080fd5b505afa15801561150b573d6000803e3d6000fd5b505050506040513d601f19601f8201168201806040525061152f919081019061374a565b6001600160a01b0316146115555760405162461bcd60e51b81526004016107ed9061446e565b600680546001600160a01b038381166001600160a01b0319831617909255604080516317a1a86160e11b8152815193909216926000928492632f4350c29260048084019382900301818787803b1580156115ae57600080fd5b505af11580156115c2573d6000803e3d6000fd5b505050506040513d601f19601f820116820180604052506115e69190810190613a36565b506007546040516370a0823160e01b81529192506000916001600160a01b03909116906370a082319061161d9030906004016142b7565b60206040518083038186803b15801561163557600080fd5b505afa158015611649573d6000803e3d6000fd5b505050506040513d601f19601f8201168201806040525061166d91908101906138c3565b60075460065460405163095ea7b360e01b81529293506001600160a01b039182169263095ea7b3926116a59216908590600401614308565b602060405180830381600087803b1580156116bf57600080fd5b505af11580156116d3573d6000803e3d6000fd5b505050506040513d601f19601f820116820180604052506116f791908101906138a5565b6117135760405162461bcd60e51b81526004016107ed9061441e565b600654604051630305da4f60e61b81526000916001600160a01b03169063c17693c090611744908590600401614371565b602060405180830381600087803b15801561175e57600080fd5b505af1158015611772573d6000803e3d6000fd5b505050506040513d601f19601f8201168201806040525061179691908101906138c3565b6006549091506001600160a01b0385811691161461181457836001600160a01b031663f2fde38b6117c561123e565b6040518263ffffffff1660e01b81526004016117e191906142b7565b600060405180830381600087803b1580156117fb57600080fd5b505af115801561180f573d6000803e3d6000fd5b505050505b600061182160085461290f565b6009549091506118478361183b878463ffffffff61293216565b9063ffffffff61296c16565b600955611853826129ae565b6008556009546040517faa54229fa6d6451d2cd5d13b5bc60f1230a0f79091118926e9b95d8f4811713a9161188a918c9190614308565b60405180910390a1505050505050506001548114610d3f5760405162461bcd60e51b81526004016107ed9061450e565b6008546000906118c9816128b0565b91509091565b60018054810190819055600090336118e6816119b0565b6107c78185611b59565b6001600160a01b039182166000908152600a6020908152604080832093909416825291909152205490565b603281565b600e6020526000908152604090208054600182015460029092015490919083565b61194961124d565b6119655760405162461bcd60e51b81526004016107ed9061449e565b61196e816129d0565b50565b6007546001600160a01b031681565b6001600160a01b0381166000908152600c60205260408120600581015482906119a8906125d1565b949350505050565b6001600160a01b038082166000908152600c60209081526040808320600d8352818420600654835163a6afed9560e01b815293519296919591169363a6afed95936004808201949293918390030190829087803b158015611a1057600080fd5b505af1158015611a24573d6000803e3d6000fd5b505050506040513d601f19601f82011682018060405250611a4891908101906138a5565b611a645760405162461bcd60e51b81526004016107ed9061439e565b6000611a6f83612091565b90508015611b53578154611a89908263ffffffff612a5116565b82556002830154611aa0908263ffffffff612a5116565b60028401556001830154611aba908263ffffffff612a5116565b6001840155600554611ad2908263ffffffff612a5116565b6005556040516001600160a01b038516907f16cbc685358ca7d4e6b273dcdf2cb5d18c80b950aa2319b519756cd016233a6c90611b10908490614371565b60405180910390a2836001600160a01b031660006001600160a01b031660008051602061471b83398151915283604051611b4a9190614371565b60405180910390a35b50505050565b336000908152600c6020526040902081611b855760405162461bcd60e51b81526004016107ed906144be565b8060010154821115611ba95760405162461bcd60e51b81526004016107ed9061445e565b611bb33383612a76565b6001810154611bc8908363ffffffff612b3216565b6001820155600554611be0908363ffffffff612b3216565b60055560075460405163a9059cbb60e01b81526001600160a01b039091169063a9059cbb90611c159086908690600401614308565b602060405180830381600087803b158015611c2f57600080fd5b505af1158015611c43573d6000803e3d6000fd5b505050506040513d601f19601f82011682018060405250611c6791908101906138a5565b611c835760405162461bcd60e51b81526004016107ed9061447e565b604051600090339060008051602061471b83398151915290611ca6908690614371565b60405180910390a3505050565b6060808215801590611cc757506000198314155b15611df657611cd46135c9565b600b8481548110611ce157fe5b906000526020600020906002020160405180604001604052908160008201805480602002602001604051908101604052809291908181526020018280548015611d5357602002820191906000526020600020905b81546001600160a01b03168152600190910190602001808311611d35575b5050505050815260200160018201805480602002602001604051908101604052809291908181526020018280548015611dd757602002820191906000526020600020906000905b82829054906101000a900463ffffffff1663ffffffff1681526020019060040190602082600301049283019260010382029150808411611d9a5790505b5050505050815250509050806000015192508060200151915050611e10565b505060408051600080825260208201908152818301909252905b915091565b816001600160a01b0316836001600160a01b03161415611e475760405162461bcd60e51b81526004016107ed9061444e565b6001600160a01b0383166000908152600c6020526040902060010154811115611e825760405162461bcd60e51b81526004016107ed906144ae565b60006001600160a01b038581169085161415611ea15750600019611ec9565b506001600160a01b038084166000908152600a60209081526040808320938816835292905220545b81811015611ee95760405162461bcd60e51b81526004016107ed906143ae565b6000611efb828463ffffffff612b3216565b6001600160a01b0386166000908152600c602052604081206001015491925090611f2b908563ffffffff612b3216565b6001600160a01b0386166000908152600c602052604081206001015491925090611f5b908663ffffffff612a5116565b90506000198414611f8f576001600160a01b038088166000908152600a60209081526040808320938c168352929052208390555b6000611f9b8887612b74565b9050611fa8878783612c23565b6001600160a01b038089166000818152600c60205260408082206001808201899055948c168352908220909301859055525415801590611ffe57506001600160a01b0387166000908152600c6020526040902054155b801561202457506001600160a01b0388166000908152600c602052604090205460001914155b1561204d576001600160a01b0388166000908152600c602052604090205461204d9088906120ff565b866001600160a01b0316886001600160a01b031660008051602061471b8339815191528860405161207e9190614371565b60405180910390a3505050505050505050565b6000806120a183600501546125d1565b90506120be83600201548460040154612a5190919063ffffffff16565b8111156120da578260020154836004015482030391505061095d565b600091505061095d565b6000818310156120f65750600061092a565b5080820361092a565b6000198114806121105750600b5481105b61212c5760405162461bcd60e51b81526004016107ed906143ee565b6001600160a01b0382166000908152600c602090815260408083208054808552600e90935281842085855291909320600184015415612192576000612175878660010154612b74565b868655600186015490915061218c90889083612c23565b50612196565b8484555b815460001901825580546001018155604051859084906001600160a01b038916907f356f094000bcd3968ad51bf92c9d115ed7294626dea8ae4cc5b24273702e111390600090a4505050505050565b600754604051636eb1769f60e11b815282916001600160a01b03169063dd62ed3e9061221790339030906004016142c5565b60206040518083038186803b15801561222f57600080fd5b505afa158015612243573d6000803e3d6000fd5b505050506040513d601f19601f8201168201806040525061226791908101906138c3565b10156122855760405162461bcd60e51b81526004016107ed906144ce565b336000818152600c60205260409081902060075491516323b872dd60e01b815290926001600160a01b03909216916323b872dd916122ca9190309087906004016142e0565b602060405180830381600087803b1580156122e457600080fd5b505af11580156122f8573d6000803e3d6000fd5b505050506040513d601f19601f8201168201806040525061231c91908101906138a5565b6123385760405162461bcd60e51b81526004016107ed9061447e565b60075460065460405163095ea7b360e01b81526001600160a01b039283169263095ea7b39261236e929116908690600401614308565b602060405180830381600087803b15801561238857600080fd5b505af115801561239c573d6000803e3d6000fd5b505050506040513d601f19601f820116820180604052506123c091908101906138a5565b6123dc5760405162461bcd60e51b81526004016107ed9061441e565b600654604051630305da4f60e61b81526000916001600160a01b03169063c17693c09061240d908690600401614371565b602060405180830381600087803b15801561242757600080fd5b505af115801561243b573d6000803e3d6000fd5b505050506040513d601f19601f8201168201806040525061245f91908101906138c3565b600554909150612475908463ffffffff612a5116565b600555600182015461248d908463ffffffff612a5116565b60018301556008546124a5908263ffffffff612a5116565b60085560006124b38261290f565b90506124c0338583612c23565b604051339060009060008051602061471b83398151915290611b4a908890614371565b806001600160a01b03166352d1902d6040518163ffffffff1660e01b815260040160206040518083038186803b15801561251c57600080fd5b505afa158015612530573d6000803e3d6000fd5b505050506040513d601f19601f8201168201806040525061255491908101906138c3565b7fc5f16f0fcc639fa48a6947836d9850f504798523bf8c9a3a87d5876cf622bcf7146125925760405162461bcd60e51b81526004016107ed906143be565b7fc5f16f0fcc639fa48a6947836d9850f504798523bf8c9a3a87d5876cf622bcf755565b3b151590565b6000805460ff60a01b1916600160a01b179055565b600061092a60095461183b600660009054906101000a90046001600160a01b03166001600160a01b031663182df0f56040518163ffffffff1660e01b815260040160206040518083038186803b15801561262a57600080fd5b505afa15801561263e573d6000803e3d6000fd5b505050506040513d601f19601f8201168201806040525061266291908101906138c3565b859063ffffffff61293216565b60008060008451116126935760405162461bcd60e51b81526004016107ed9061451e565b6032845111156126b55760405162461bcd60e51b81526004016107ed906144de565b82518451146126d65760405162461bcd60e51b81526004016107ed906143de565b506000805b845182101561278c5760008483815181106126f257fe5b602002602001015163ffffffff161161271d5760405162461bcd60e51b81526004016107ed906144fe565b60006001600160a01b031685838151811061273457fe5b60200260200101516001600160a01b031614156127635760405162461bcd60e51b81526004016107ed9061440e565b83828151811061276f57fe5b602002602001015163ffffffff16810190508160010191506126db565b600091505b83518210156127f6578063ffffffff80168584815181106127ae57fe5b602002602001015163ffffffff1602816127c457fe5b048483815181106127d157fe5b602002602001019063ffffffff16908163ffffffff1681525050816001019150612791565b604080518082019091528581526020808201869052600b80546001818101808455600093909352845180519195939460029093027f0175b7a638427703f0dbe7bb9bbf987a2551717b34e79f33b5b1008d1fa01db9019261285c92849290910190613482565b50602082810151805161287592600185019201906134e3565b505050039250827f755babe5551737dcd4c723af196cff0ed1fa99a4c6957c62262d6b1425f864aa60405160405180910390a2505092915050565b600061092a670de0b6b3a764000061183b600660009054906101000a90046001600160a01b03166001600160a01b031663182df0f56040518163ffffffff1660e01b815260040160206040518083038186803b15801561262a57600080fd5b600061092a670de0b6b3a764000061183b6009548561293290919063ffffffff16565b6000826129415750600061092a565b8282028284828161294e57fe5b04146111ed5760405162461bcd60e51b81526004016107ed9061448e565b60006111ed83836040518060400160405280601a81526020017f536166654d6174683a206469766973696f6e206279207a65726f000000000000815250612ecb565b60095460009061092a9061183b84670de0b6b3a764000063ffffffff61293216565b6001600160a01b0381166129f65760405162461bcd60e51b81526004016107ed906143ce565b600080546040516001600160a01b03808516939216917f8be0079c531659141344cd1fd0a4f28419497f9722a3daafe3b4186f6b6457e091a3600080546001600160a01b0319166001600160a01b0392909216919091179055565b6000828201838110156111ed5760405162461bcd60e51b81526004016107ed906143fe565b60065460405163852a12e360e01b81526000916001600160a01b03169063852a12e390612aa7908590600401614371565b602060405180830381600087803b158015612ac157600080fd5b505af1158015612ad5573d6000803e3d6000fd5b505050506040513d601f19601f82011682018060405250612af991908101906138c3565b9050612b048161290f565b50612b0f8383612f02565b806008541115612b2757600880548290039055612b2d565b60006008555b505050565b60006111ed83836040518060400160405280601e81526020017f536166654d6174683a207375627472616374696f6e206f766572666c6f7700008152506131ef565b6006546040805163a6afed9560e01b815290516000926001600160a01b03169163a6afed9591600480830192602092919082900301818787803b158015612bba57600080fd5b505af1158015612bce573d6000803e3d6000fd5b505050506040513d601f19601f82011682018060405250612bf291908101906138a5565b612c0e5760405162461bcd60e51b81526004016107ed9061439e565b612c178261321b565b905061092a8383612f02565b6001600160a01b0383166000908152600c602052604081208054909190600b9060001914612c52578254612c55565b60005b81548110612c5f57fe5b600091825260208220600290910201805490925015612e7c5750600084845b6001840154831015612e75576000600c6000866000018681548110612c9f57fe5b60009182526020808320909101546001600160a01b03168352820192909252604001812060018701549092506000190185149081612d2a5763ffffffff8016612d1d886001018881548110612cf057fe5b600091825260209091206008820401548d916007166004026101000a900463ffffffff9081169061293216565b81612d2457fe5b04612d2c565b845b9050612d78818960030160008a6000018a81548110612d4757fe5b60009182526020808320909101546001600160a01b031683528201929092526040019020549063ffffffff612a5116565b886003016000896000018981548110612d8d57fe5b60009182526020808320909101546001600160a01b031683528201929092526040019020556004830154612dc7908263ffffffff612a5116565b6004840155612dd685826120e4565b9450600082612e055763ffffffff8016612df8896001018981548110612cf057fe5b81612dff57fe5b04612e07565b845b6005850154909150612e1f908263ffffffff612a5116565b6005850155612e2e85826120e4565b9450612e668c896000018981548110612e4357fe5b6000918252602090912001548b546001600160a01b0390911690600186866132ba565b50505050826001019250612c7e565b5050612ec3565b6004830154612e91908663ffffffff612a5116565b60048401556005830154612eab908563ffffffff612a5116565b60058401558254612ec39087908190600189896132ba565b505050505050565b60008183612eec5760405162461bcd60e51b81526004016107ed919061438d565b506000838581612ef857fe5b0495945050505050565b6001600160a01b0382166000908152600c602052604081208054909190600b9060001914612f31578254612f34565b60005b81548110612f3e57fe5b906000526020600020906002020190506000612f62836001015484600201546120e4565b905083811115612f6f5750825b6000612f7a8261321b565b83549091501561317b57818160005b6001860154811015613173576000600c6000886000018481548110612faa57fe5b60009182526020808320909101546001600160a01b031683528201929092526040018120600189015490925060001901831490816130355763ffffffff80166130288a6001018681548110612ffb57fe5b600091825260209091206008820401548b916007166004026101000a900463ffffffff9081169061293216565b8161302f57fe5b04613037565b855b90506130478360040154826120e4565b83600401819055506130928a60030160008b600001878154811061306757fe5b60009182526020808320909101546001600160a01b03168352820192909252604001902054826120e4565b8a60030160008b60000187815481106130a757fe5b60009182526020808320909101546001600160a01b031683528201929092526040019020556130d686826120e4565b95506000826131055763ffffffff80166130f88b6001018781548110612ffb57fe5b816130ff57fe5b04613107565b855b90506131178460050154826120e4565b600585015561312686826120e4565b955061313184613391565b6131648d8b600001878154811061314457fe5b60009182526020822001548e546001600160a01b039091169186866132ba565b50505050806001019050612f89565b5050506131be565b6131898460040154836120e4565b6004850155600584015461319d90826120e4565b60058501556131ab84613391565b6131be86878660000154600086866132ba565b81851115612ec3576131d182860361321b565b90506131e18460050154826120e4565b6005850155612ec384613391565b600081848411156132135760405162461bcd60e51b81526004016107ed919061438d565b505050900390565b600061092a600660009054906101000a90046001600160a01b03166001600160a01b031663182df0f56040518163ffffffff1660e01b815260040160206040518083038186803b15801561326e57600080fd5b505afa158015613282573d6000803e3d6000fd5b505050506040513d601f19601f820116820180604052506132a691908101906138c3565b60095461183b90859063ffffffff61293216565b6000600e6000868152602001908152602001600020905084866001600160a01b0316886001600160a01b03167f7fb238306664f9cc50083b666d8979f411dd72154c6e9bf558c76b39e14e7d2987878760405161331993929190614356565b60405180910390a4831561336057600181015461333c908463ffffffff612a5116565b60018201556002810154613356908363ffffffff612a5116565b6002820155613388565b61336e8160010154846120e4565b6001820155600281015461338290836120e4565b60028201555b50505050505050565b60006133a082600501546125d1565b90508160040154810382600201541115610d3f5760048201549003600290910155565b60405180610100016040528060008152602001600081526020016000815260200160008152602001600081526020016000815260200160008152602001600081525090565b828054600181600116156101000203166002900490600052602060002090601f016020900481019282601f1061344957805160ff1916838001178555613476565b82800160010185558215613476579182015b8281111561347657825182559160200191906001019061345b565b50610be89291506135e3565b8280548282559060005260206000209081019282156134d7579160200282015b828111156134d757825182546001600160a01b0319166001600160a01b039091161782556020909201916001909101906134a2565b50610be89291506135fd565b828054828255906000526020600020906007016008900481019282156135825791602002820160005b8382111561355057835183826101000a81548163ffffffff021916908363ffffffff160217905550926020019260040160208160030104928301926001030261350c565b80156135805782816101000a81549063ffffffff0219169055600401602081600301049283019260010302613550565b505b50610be8929150613621565b60405180606001604052806000815260200160008152602001600081525090565b604051806040016040528060008152602001600081525090565b604051806040016040528060608152602001606081525090565b61093d91905b80821115610be857600081556001016135e9565b61093d91905b80821115610be85780546001600160a01b0319168155600101613603565b61093d91905b80821115610be857805463ffffffff19168155600101613627565b803561092a816146eb565b805161092a816146eb565b60008083601f84011261366a57600080fd5b50813567ffffffffffffffff81111561368257600080fd5b60208301915083602082028301111561369a57600080fd5b9250929050565b803561092a816146ff565b805161092a816146ff565b805161092a81614708565b803561092a81614711565b600082601f8301126136de57600080fd5b81356136f16136ec82614633565b61460c565b9150808252602083016020830185838301111561370d57600080fd5b6137188382846146a9565b50505092915050565b803561092a81614708565b60006020828403121561373e57600080fd5b60006119a88484613642565b60006020828403121561375c57600080fd5b60006119a8848461364d565b6000806040838503121561377b57600080fd5b60006137878585613642565b925050602061379885828601613642565b9150509250929050565b6000806000606084860312156137b757600080fd5b60006137c38686613642565b93505060206137d486828701613642565b92505060406137e586828701613721565b9150509250925092565b6000806040838503121561380257600080fd5b600061380e8585613642565b925050602061379885828601613721565b60008060008060006060868803121561383757600080fd5b853567ffffffffffffffff81111561384e57600080fd5b61385a88828901613658565b9550955050602086013567ffffffffffffffff81111561387957600080fd5b61388588828901613658565b93509350506040613898888289016136a1565b9150509295509295909350565b6000602082840312156138b757600080fd5b60006119a884846136ac565b6000602082840312156138d557600080fd5b60006119a884846136b7565b600080600080608085870312156138f757600080fd5b600061390387876136c2565b945050602085013567ffffffffffffffff81111561392057600080fd5b61392c878288016136cd565b935050604085013567ffffffffffffffff81111561394957600080fd5b613955878288016136cd565b925050606061396687828801613721565b91505092959194509250565b60006020828403121561398457600080fd5b60006119a88484613721565b6000806000806000606086880312156139a857600080fd5b60006139b48888613721565b955050602086013567ffffffffffffffff8111156139d157600080fd5b6139dd88828901613658565b9450945050604086013567ffffffffffffffff8111156139fc57600080fd5b613a0888828901613658565b92509250509295509295909350565b60008060408385031215613a2a57600080fd5b600061380e8585613721565b60008060408385031215613a4957600080fd5b6000613a5585856136b7565b9250506020613798858286016136b7565b6000613a728383613a95565b505060200190565b6000613a7283836142ae565b613a8f8161469e565b82525050565b613a8f8161466e565b6000613aa982614661565b613ab38185614665565b9350613abe8361465b565b8060005b83811015613aec578151613ad68882613a66565b9750613ae18361465b565b925050600101613ac2565b509495945050505050565b6000613b0282614661565b613b0c8185614665565b9350613b178361465b565b8060005b83811015613aec578151613b2f8882613a7a565b9750613b3a8361465b565b925050600101613b1b565b613a8f81614679565b613a8f8161093d565b613a8f8161467e565b6000613b6b82614661565b613b758185614665565b9350613b858185602086016146b5565b613b8e816146e1565b9093019392505050565b6000613ba5601583614665565b741858d8dc9d59525b9d195c995cdd0819985a5b1959605a1b815260200192915050565b6000613bd6602183614665565b7f4e6f7420656e6f75676820616c6c6f77616e636520666f72207472616e7366658152603960f91b602082015260400192915050565b6000613c19600e83614665565b6d4e6f7420636f6d70617469626c6560901b815260200192915050565b6000613c43602683614665565b7f4f776e61626c653a206e6577206f776e657220697320746865207a65726f206181526564647265737360d01b602082015260400192915050565b6000613c8b602083614665565b7f496e76616c6964206861743a206c656e677468206e6f74206d61746368696e67815260200192915050565b6000613cc4600e83614665565b6d125b9d985b1a59081a185d08125160921b815260200192915050565b6000613cee601b83614665565b7f536166654d6174683a206164646974696f6e206f766572666c6f770000000000815260200192915050565b6000613d27602883614665565b7f496e76616c6964206861743a20726563697069656e742073686f756c64206e6f815267074206265203078360c41b602082015260400192915050565b6000613d71601483614665565b731d1bdad95b88185c1c1c9bdd994819985a5b195960621b815260200192915050565b6000613da1602983614665565b7f546865206c6962726172792068617320616c7265616479206265656e20696e698152683a34b0b634bd32b21760b91b602082015260400192915050565b6000613dec602e83614665565b7f41646d696e2063616e206f6e6c79206368616e67652068617420666f7220636f81526d6e7472616374206164647265737360901b602082015260400192915050565b6000613e3c601883614665565b7f7372632073686f756c64206e6f7420657175616c206473740000000000000000815260200192915050565b6000613e75601c83614665565b7f4e6f7420656e6f7567682062616c616e636520746f2072656465656d00000000815260200192915050565b6000613eae603283614665565b7f4e65772073747261746567792073686f756c642068617665207468652073616d81527119481d5b99195c9b1e5a5b99c8185cdcd95d60721b602082015260400192915050565b6000613f02601583614665565b741d1bdad95b881d1c985b9cd9995c8819985a5b1959605a1b815260200192915050565b6000613f33602183614665565b7f536166654d6174683a206d756c7469706c69636174696f6e206f766572666c6f8152607760f81b602082015260400192915050565b6000613f76602083614665565b7f4f776e61626c653a2063616c6c6572206973206e6f7420746865206f776e6572815260200192915050565b6000613faf601e83614665565b7f4e6f7420656e6f7567682062616c616e636520746f207472616e736665720000815260200192915050565b6000613fe8601c83614665565b7f52656465656d20616d6f756e742063616e6e6f74206265207a65726f00000000815260200192915050565b6000614021601483614665565b734e6f7420656e6f75676820616c6c6f77616e636560601b815260200192915050565b6000614051603283614665565b7f496e76616c696c64206861743a206d6178696d756d206e756d626572206f66208152711c9958da5c1a595b9d1cc81c995858da195960721b602082015260400192915050565b60006140a5603383614665565b7f546865206c696272617279206973206c6f636b65642e204e6f206469726563748152721013b1b0b636139034b99030b63637bbb2b21760691b602082015260400192915050565b60006140fa602f83614665565b7f496e76616c6964206861743a2070726f706f7274696f6e2073686f756c64206281526e065206c6172676572207468616e203608c1b602082015260400192915050565b600061414b601f83614665565b7f5265656e7472616e637947756172643a207265656e7472616e742063616c6c00815260200192915050565b6000614184602383614665565b7f496e76616c6964206861743a206174206c65617374206f6e6520726563697069815262195b9d60ea1b602082015260400192915050565b80516101008301906141ce8482613b4e565b5060208201516141e16020850182613b4e565b5060408201516141f46040850182613b4e565b5060608201516142076060850182613b4e565b50608082015161421a6080850182613b4e565b5060a082015161422d60a0850182613b4e565b5060c082015161424060c0850182613b4e565b5060e0820151611b5360e0850182613b4e565b805160408301906142648482613b4e565b506020820151611b536020850182613b4e565b805160608301906142888482613b4e565b50602082015161429b6020850182613b4e565b506040820151611b536040850182613b4e565b613a8f81614695565b6020810161092a8284613a95565b604081016142d38285613a86565b6111ed6020830184613a95565b606081016142ee8286613a86565b6142fb6020830185613a95565b6119a86040830184613b4e565b604081016143168285613a95565b6111ed6020830184613b4e565b604080825281016143348185613a9e565b905081810360208301526119a88184613af7565b6020810161092a8284613b45565b606081016143648286613b45565b6142fb6020830185613b4e565b6020810161092a8284613b4e565b6020810161092a8284613b57565b602080825281016111ed8184613b60565b6020808252810161092a81613b98565b6020808252810161092a81613bc9565b6020808252810161092a81613c0c565b6020808252810161092a81613c36565b6020808252810161092a81613c7e565b6020808252810161092a81613cb7565b6020808252810161092a81613ce1565b6020808252810161092a81613d1a565b6020808252810161092a81613d64565b6020808252810161092a81613d94565b6020808252810161092a81613ddf565b6020808252810161092a81613e2f565b6020808252810161092a81613e68565b6020808252810161092a81613ea1565b6020808252810161092a81613ef5565b6020808252810161092a81613f26565b6020808252810161092a81613f69565b6020808252810161092a81613fa2565b6020808252810161092a81613fdb565b6020808252810161092a81614014565b6020808252810161092a81614044565b6020808252810161092a81614098565b6020808252810161092a816140ed565b6020808252810161092a8161413e565b6020808252810161092a81614177565b610100810161092a82846141bc565b6040810161092a8284614253565b6060810161092a8284614277565b606081016145678286613b4e565b81810360208301526145798185613a9e565b9050818103604083015261458d8184613af7565b95945050505050565b604081016143168285613b4e565b606081016143648286613b4e565b60a081016145c08288613b4e565b6145cd6020830187613b4e565b6145da6040830186613b4e565b6145e76060830185613b4e565b6145f46080830184613b4e565b9695505050505050565b6020810161092a82846142ae565b60405181810167ffffffffffffffff8111828210171561462b57600080fd5b604052919050565b600067ffffffffffffffff82111561464a57600080fd5b506020601f91909101601f19160190565b60200190565b5190565b90815260200190565b600061092a82614689565b151590565b600061092a8261466e565b6001600160a01b031690565b63ffffffff1690565b600061092a8261467e565b82818337506000910152565b60005b838110156146d05781810151838201526020016146b8565b83811115611b535750506000910152565b601f01601f191690565b6146f48161466e565b811461196e57600080fd5b6146f481614679565b6146f48161093d565b6146f48161467e56feddf252ad1be2c89b69c2b068fc378daa952ba7f163c4a11628f55a4df523b3efa365627a7a72315820da0772c94748af945805b5fb89cbd60e4ca6d27481b203c015d2e714ba4038516c6578706572696d656e74616cf564736f6c63430005100040",
  "source": "/**\n * Because the use of ABIEncoderV2 , the pragma should be locked above 0.5.10 ,\n * as there is a known bug in array storage:\n * https://blog.ethereum.org/2019/06/25/solidity-storage-array-bugs/\n */\npragma solidity >=0.5.10 <0.6.0;\npragma experimental ABIEncoderV2;\n\nimport {Proxiable} from \"./Proxiable.sol\";\nimport {Ownable} from \"./Ownable.sol\";\nimport {LibraryLock} from \"./LibraryLock.sol\";\nimport {SafeMath} from \"@openzeppelin/contracts/math/SafeMath.sol\";\nimport {ReentrancyGuard} from \"./ReentrancyGuard.sol\";\nimport {RTokenStructs} from \"./RTokenStructs.sol\";\nimport {RTokenStorage} from \"./RTokenStorage.sol\";\nimport {IERC20, IRToken} from \"./IRToken.sol\";\nimport {IRTokenAdmin} from \"./IRTokenAdmin.sol\";\nimport {IAllocationStrategy} from \"./IAllocationStrategy.sol\";\n\n/**\n * @notice RToken an ERC20 token that is 1:1 redeemable to its underlying ERC20 token.\n */\ncontract RToken is\n    IRToken,\n    IRTokenAdmin,\n    RTokenStorage,\n    Ownable,\n    Proxiable,\n    LibraryLock,\n    ReentrancyGuard {\n    using SafeMath for uint256;\n\n\n    uint256 public constant ALLOCATION_STRATEGY_EXCHANGE_RATE_SCALE = 1e18;\n    uint256 public constant INITIAL_SAVING_ASSET_CONVERSION_RATE = 1e18;\n    uint256 public constant MAX_UINT256 = uint256(int256(-1));\n    uint256 public constant SELF_HAT_ID = MAX_UINT256;\n    uint32 public constant PROPORTION_BASE = 0xFFFFFFFF;\n    uint256 public constant MAX_NUM_HAT_RECIPIENTS = 50;\n\n    /**\n     * @notice Create rToken linked with cToken at `cToken_`\n     */\n    function initialize(\n        IAllocationStrategy allocationStrategy,\n        string memory name_,\n        string memory symbol_,\n        uint256 decimals_) public {\n        require(!initialized, \"The library has already been initialized.\");\n        LibraryLock.initialize();\n        _owner = msg.sender;\n        _guardCounter = 1;\n        name = name_;\n        symbol = symbol_;\n        decimals = decimals_;\n        savingAssetConversionRate = INITIAL_SAVING_ASSET_CONVERSION_RATE;\n        ias = allocationStrategy;\n        token = IERC20(ias.underlying());\n\n        // special hat aka. zero hat : hatID = 0\n        hats.push(Hat(new address[](0), new uint32[](0)));\n\n        // everyone is using it by default!\n        hatStats[0].useCount = MAX_UINT256;\n\n        emit AllocationStrategyChanged(address(ias), savingAssetConversionRate);\n    }\n\n    //\n    // ERC20 Interface\n    //\n\n    /**\n     * @notice Returns the amount of tokens owned by `account`.\n     */\n    function balanceOf(address owner) external view returns (uint256) {\n        return accounts[owner].rAmount;\n    }\n\n    /**\n     * @notice Returns the remaining number of tokens that `spender` will be\n     * allowed to spend on behalf of `owner` through `transferFrom`. This is\n     * zero by default.\n     *\n     * This value changes when `approve` or `transferFrom` are called.\n     */\n    function allowance(address owner, address spender)\n        external\n        view\n        returns (uint256)\n    {\n        return transferAllowances[owner][spender];\n    }\n\n    /**\n     * @notice Sets `amount` as the allowance of `spender` over the caller's tokens.\n     *\n     * Returns a boolean value indicating whether the operation succeeded.\n     *\n     * > Beware that changing an allowance with this method brings the risk\n     * that someone may use both the old and the new allowance by unfortunate\n     * transaction ordering. One possible solution to mitigate this race\n     * condition is to first reduce the spender's allowance to 0 and set the\n     * desired value afterwards:\n     * https://github.com/ethereum/EIPs/issues/20#issuecomment-263524729\n     *\n     * Emits an `Approval` event.\n     */\n    function approve(address spender, uint256 amount) external returns (bool) {\n        address src = msg.sender;\n        transferAllowances[src][spender] = amount;\n        emit Approval(src, spender, amount);\n        return true;\n    }\n\n    /**\n     * @notice Moves `amount` tokens from the caller's account to `dst`.\n     *\n     * Returns a boolean value indicating whether the operation succeeded.\n     *\n     * Emits a `Transfer` event.\n     * May also emit `InterestPaid` event.\n     */\n    function transfer(address dst, uint256 amount)\n        external\n        nonReentrant\n        returns (bool)\n    {\n        address src = msg.sender;\n        payInterestInternal(src);\n        transferInternal(src, src, dst, amount);\n        payInterestInternal(dst);\n        return true;\n    }\n\n    /// @dev IRToken.transferAll implementation\n    function transferAll(address dst) external nonReentrant returns (bool) {\n        address src = msg.sender;\n        payInterestInternal(src);\n        transferInternal(src, src, dst, accounts[src].rAmount);\n        payInterestInternal(dst);\n        return true;\n    }\n\n    /// @dev IRToken.transferAllFrom implementation\n    function transferAllFrom(address src, address dst)\n        external\n        nonReentrant\n        returns (bool)\n    {\n        payInterestInternal(src);\n        transferInternal(msg.sender, src, dst, accounts[src].rAmount);\n        payInterestInternal(dst);\n        return true;\n    }\n\n    /**\n     * @notice Moves `amount` tokens from `sender` to `recipient` using the\n     * allowance mechanism. `amount` is then deducted from the caller's\n     * allowance.\n     *\n     * Returns a boolean value indicating whether the operation succeeded.\n     *\n     * Emits a `Transfer` event.\n     */\n    function transferFrom(address src, address dst, uint256 amount)\n        external\n        nonReentrant\n        returns (bool)\n    {\n        payInterestInternal(src);\n        transferInternal(msg.sender, src, dst, amount);\n        payInterestInternal(dst);\n        return true;\n    }\n\n    //\n    // rToken interface\n    //\n\n    /// @dev IRToken.mint implementation\n    function mint(uint256 mintAmount) external nonReentrant returns (bool) {\n        mintInternal(mintAmount);\n        payInterestInternal(msg.sender);\n        return true;\n    }\n\n    /// @dev IRToken.mintWithSelectedHat implementation\n    function mintWithSelectedHat(uint256 mintAmount, uint256 hatID)\n        external\n        nonReentrant\n        returns (bool)\n    {\n        changeHatInternal(msg.sender, hatID);\n        mintInternal(mintAmount);\n        payInterestInternal(msg.sender);\n        return true;\n    }\n\n    /**\n     * @dev IRToken.mintWithNewHat implementation\n     */\n    function mintWithNewHat(\n        uint256 mintAmount,\n        address[] calldata recipients,\n        uint32[] calldata proportions\n    ) external nonReentrant returns (bool) {\n        uint256 hatID = createHatInternal(recipients, proportions);\n        changeHatInternal(msg.sender, hatID);\n        mintInternal(mintAmount);\n        payInterestInternal(msg.sender);\n        return true;\n    }\n\n    /**\n     * @dev IRToken.redeem implementation\n     *      It withdraws equal amount of initially supplied underlying assets\n     */\n    function redeem(uint256 redeemTokens) external nonReentrant returns (bool) {\n        address src = msg.sender;\n        payInterestInternal(src);\n        redeemInternal(src, redeemTokens);\n        return true;\n    }\n\n    /// @dev IRToken.redeemAll implementation\n    function redeemAll() external nonReentrant returns (bool) {\n        address src = msg.sender;\n        payInterestInternal(src);\n        redeemInternal(src, accounts[src].rAmount);\n        return true;\n    }\n\n    /// @dev IRToken.redeemAndTransfer implementation\n    function redeemAndTransfer(address redeemTo, uint256 redeemTokens)\n        external\n        nonReentrant\n        returns (bool)\n    {\n        address src = msg.sender;\n        payInterestInternal(src);\n        redeemInternal(redeemTo, redeemTokens);\n        return true;\n    }\n\n    /// @dev IRToken.redeemAndTransferAll implementation\n    function redeemAndTransferAll(address redeemTo)\n        external\n        nonReentrant\n        returns (bool)\n    {\n        address src = msg.sender;\n        payInterestInternal(src);\n        redeemInternal(redeemTo, accounts[src].rAmount);\n        return true;\n    }\n\n    /// @dev IRToken.createHat implementation\n    function createHat(\n        address[] calldata recipients,\n        uint32[] calldata proportions,\n        bool doChangeHat\n    ) external nonReentrant returns (uint256 hatID) {\n        hatID = createHatInternal(recipients, proportions);\n        if (doChangeHat) {\n            changeHatInternal(msg.sender, hatID);\n        }\n    }\n\n    /// @dev IRToken.changeHat implementation\n    function changeHat(uint256 hatID) external nonReentrant returns (bool) {\n        changeHatInternal(msg.sender, hatID);\n        payInterestInternal(msg.sender);\n        return true;\n    }\n\n    /// @dev IRToken.getMaximumHatID implementation\n    function getMaximumHatID() external view returns (uint256 hatID) {\n        return hats.length - 1;\n    }\n\n    /// @dev IRToken.getHatByAddress implementation\n    function getHatByAddress(address owner)\n        external\n        view\n        returns (\n            uint256 hatID,\n            address[] memory recipients,\n            uint32[] memory proportions\n        )\n    {\n        hatID = accounts[owner].hatID;\n        (recipients, proportions) = _getHatByID(hatID);\n    }\n\n    /// @dev IRToken.getHatByID implementation\n    function getHatByID(uint256 hatID)\n        external\n        view\n        returns (address[] memory recipients, uint32[] memory proportions) {\n        (recipients, proportions) = _getHatByID(hatID);\n    }\n\n    function _getHatByID(uint256 hatID)\n        private\n        view\n        returns (address[] memory recipients, uint32[] memory proportions) {\n        if (hatID != 0 && hatID != SELF_HAT_ID) {\n            Hat memory hat = hats[hatID];\n            recipients = hat.recipients;\n            proportions = hat.proportions;\n        } else {\n            recipients = new address[](0);\n            proportions = new uint32[](0);\n        }\n    }\n\n    /// @dev IRToken.receivedSavingsOf implementation\n    function receivedSavingsOf(address owner)\n        external\n        view\n        returns (uint256 amount)\n    {\n        Account storage account = accounts[owner];\n        uint256 rGross = sInternalToR(account.sInternalAmount);\n        return rGross;\n    }\n\n    /// @dev IRToken.receivedLoanOf implementation\n    function receivedLoanOf(address owner)\n        external\n        view\n        returns (uint256 amount)\n    {\n        Account storage account = accounts[owner];\n        return account.lDebt;\n    }\n\n    /// @dev IRToken.interestPayableOf implementation\n    function interestPayableOf(address owner)\n        external\n        view\n        returns (uint256 amount)\n    {\n        Account storage account = accounts[owner];\n        return getInterestPayableOf(account);\n    }\n\n    /// @dev IRToken.payInterest implementation\n    function payInterest(address owner) external nonReentrant returns (bool) {\n        payInterestInternal(owner);\n        return true;\n    }\n\n    /// @dev IRToken.getAccountStats implementation!1\n    function getGlobalStats() external view returns (GlobalStats memory) {\n        uint256 totalSavingsAmount;\n        totalSavingsAmount += sOriginalToR(savingAssetOrignalAmount);\n        return\n            GlobalStats({\n                totalSupply: totalSupply,\n                totalSavingsAmount: totalSavingsAmount\n            });\n    }\n\n    /// @dev IRToken.getAccountStats implementation\n    function getAccountStats(address owner)\n        external\n        view\n        returns (AccountStatsView memory stats)\n    {\n        Account storage account = accounts[owner];\n        stats.hatID = account.hatID;\n        stats.rAmount = account.rAmount;\n        stats.rInterest = account.rInterest;\n        stats.lDebt = account.lDebt;\n        stats.sInternalAmount = account.sInternalAmount;\n\n        stats.rInterestPayable = getInterestPayableOf(account);\n\n        AccountStatsStored storage statsStored = accountStats[owner];\n        stats.cumulativeInterest = statsStored.cumulativeInterest;\n\n        Hat storage hat = hats[account.hatID == SELF_HAT_ID\n            ? 0\n            : account.hatID];\n        if (account.hatID == 0 || account.hatID == SELF_HAT_ID) {\n            // Self-hat has storage optimization for lRecipients.\n            // We use the account invariant to calculate lRecipientsSum instead,\n            // so it does look like a tautology indeed.\n            // Check RTokenStructs documentation for more info.\n            stats.lRecipientsSum = gentleSub(stats.rAmount, stats.rInterest);\n        } else {\n            for (uint256 i = 0; i < hat.proportions.length; ++i) {\n                stats.lRecipientsSum += account.lRecipients[hat.recipients[i]];\n            }\n        }\n\n        return stats;\n    }\n\n    /// @dev IRToken.getHatStats implementation\n    function getHatStats(uint256 hatID)\n        external\n        view\n        returns (HatStatsView memory stats) {\n        HatStatsStored storage statsStored = hatStats[hatID];\n        stats.useCount = statsStored.useCount;\n        stats.totalLoans = statsStored.totalLoans;\n\n        stats.totalSavings = sInternalToR(statsStored.totalInternalSavings);\n        return stats;\n    }\n\n    /// @dev IRToken.getCurrentSavingStrategy implementation\n    function getCurrentSavingStrategy() external view returns (address) {\n        return address(ias);\n    }\n\n    /// @dev IRToken.getSavingAssetBalance implementation\n    function getSavingAssetBalance()\n        external\n        view\n        returns (uint256 rAmount, uint256 sOriginalAmount)\n    {\n        sOriginalAmount = savingAssetOrignalAmount;\n        rAmount = sOriginalToR(sOriginalAmount);\n    }\n\n    /// @dev IRToken.changeAllocationStrategy implementation\n    function changeAllocationStrategy(address allocationStrategy_)\n        external\n        nonReentrant\n        onlyOwner\n    {\n        IAllocationStrategy allocationStrategy = IAllocationStrategy(allocationStrategy_);\n        require(\n            allocationStrategy.underlying() == address(token),\n            \"New strategy should have the same underlying asset\"\n        );\n        IAllocationStrategy oldIas = ias;\n        ias = allocationStrategy;\n        // redeem everything from the old strategy\n        (uint256 sOriginalBurned, ) = oldIas.redeemAll();\n        uint256 totalAmount = token.balanceOf(address(this));\n        // invest everything into the new strategy\n        require(token.approve(address(ias), totalAmount), \"token approve failed\");\n        uint256 sOriginalCreated = ias.investUnderlying(totalAmount);\n\n        // give back the ownership of the old allocation strategy to the admin\n        // unless we are simply switching to the same allocaiton Strategy\n        //\n        //  - But why would we switch to the same allocation strategy?\n        //  - This is a special case where one could pick up the unsoliciated\n        //    savings from the allocation srategy contract as extra \"interest\"\n        //    for all rToken holders.\n        if (address(ias) != address(oldIas)) {\n            Ownable(address(oldIas)).transferOwnership(address(owner()));\n        }\n\n        // calculate new saving asset conversion rate\n        //\n        // NOTE:\n        //   - savingAssetConversionRate should be scaled by 1e18\n        //   - to keep internalSavings constant:\n        //     internalSavings == sOriginalBurned * savingAssetConversionRateOld\n        //     internalSavings == sOriginalCreated * savingAssetConversionRateNew\n        //     =>\n        //     savingAssetConversionRateNew = sOriginalBurned\n        //          * savingAssetConversionRateOld\n        //          / sOriginalCreated\n        //\n\n        uint256 sInternalAmount = sOriginalToSInternal(savingAssetOrignalAmount);\n        uint256 savingAssetConversionRateOld = savingAssetConversionRate;\n        savingAssetConversionRate = sOriginalBurned\n            .mul(savingAssetConversionRateOld)\n            .div(sOriginalCreated);\n        savingAssetOrignalAmount = sInternalToSOriginal(sInternalAmount);\n\n        emit AllocationStrategyChanged(allocationStrategy_, savingAssetConversionRate);\n    }\n\n    /// @dev IRToken.changeHatFor implementation\n    function getCurrentAllocationStrategy()\n        external view returns (address allocationStrategy) {\n        return address(ias);\n    }\n\n    /// @dev IRToken.changeHatFor implementation\n    function changeHatFor(address contractAddress, uint256 hatID) external onlyOwner {\n        require(_isContract(contractAddress), \"Admin can only change hat for contract address\");\n        changeHatInternal(contractAddress, hatID);\n    }\n\n    /// @dev Update the rToken logic contract code\n    function updateCode(address newCode) external onlyOwner delegatedOnly {\n        updateCodeAddress(newCode);\n        emit CodeUpdated(newCode);\n    }\n\n    /**\n     * @dev Transfer `tokens` tokens from `src` to `dst` by `spender`\n            Called by both `transfer` and `transferFrom` internally\n     * @param spender The address of the account performing the transfer\n     * @param src The address of the source account\n     * @param dst The address of the destination account\n     * @param tokens The number of tokens to transfer\n     * @return Whether or not the transfer succeeded\n     */\n    function transferInternal(\n        address spender,\n        address src,\n        address dst,\n        uint256 tokens\n    ) internal {\n        require(src != dst, \"src should not equal dst\");\n\n        require(\n            accounts[src].rAmount >= tokens,\n            \"Not enough balance to transfer\"\n        );\n\n        /* Get the allowance, infinite for the account owner */\n        uint256 startingAllowance = 0;\n        if (spender == src) {\n            startingAllowance = MAX_UINT256;\n        } else {\n            startingAllowance = transferAllowances[src][spender];\n        }\n        require(\n            startingAllowance >= tokens,\n            \"Not enough allowance for transfer\"\n        );\n\n        /* Do the calculations, checking for {under,over}flow */\n        uint256 allowanceNew = startingAllowance.sub(tokens);\n        uint256 srcTokensNew = accounts[src].rAmount.sub(tokens);\n        uint256 dstTokensNew = accounts[dst].rAmount.add(tokens);\n\n        /* Eat some of the allowance (if necessary) */\n        if (startingAllowance != MAX_UINT256) {\n            transferAllowances[src][spender] = allowanceNew;\n        }\n\n        // lRecipients adjustments\n        uint256 sInternalEstimated = estimateAndRecollectLoans(src, tokens);\n        distributeLoans(dst, tokens, sInternalEstimated);\n\n        // update token balances\n        accounts[src].rAmount = srcTokensNew;\n        accounts[dst].rAmount = dstTokensNew;\n\n        // apply hat inheritance rule\n        if ((accounts[src].hatID != 0 &&\n            accounts[dst].hatID == 0 &&\n            accounts[src].hatID != SELF_HAT_ID)) {\n            changeHatInternal(dst, accounts[src].hatID);\n        }\n\n        /* We emit a Transfer event */\n        emit Transfer(src, dst, tokens);\n    }\n\n    /**\n     * @dev Sender supplies assets into the market and receives rTokens in exchange\n     * @dev Invest into underlying assets immediately\n     * @param mintAmount The amount of the underlying asset to supply\n     */\n    function mintInternal(uint256 mintAmount) internal {\n        require(\n            token.allowance(msg.sender, address(this)) >= mintAmount,\n            \"Not enough allowance\"\n        );\n\n        Account storage account = accounts[msg.sender];\n\n        // create saving assets\n        require(token.transferFrom(msg.sender, address(this), mintAmount), \"token transfer failed\");\n        require(token.approve(address(ias), mintAmount), \"token approve failed\");\n        uint256 sOriginalCreated = ias.investUnderlying(mintAmount);\n\n        // update global and account r balances\n        totalSupply = totalSupply.add(mintAmount);\n        account.rAmount = account.rAmount.add(mintAmount);\n\n        // update global stats\n        savingAssetOrignalAmount = savingAssetOrignalAmount.add(sOriginalCreated);\n\n        // distribute saving assets as loans to recipients\n        uint256 sInternalCreated = sOriginalToSInternal(sOriginalCreated);\n        distributeLoans(msg.sender, mintAmount, sInternalCreated);\n\n        emit Transfer(address(0), msg.sender, mintAmount);\n    }\n\n    /**\n     * @notice Sender redeems rTokens in exchange for the underlying asset\n     * @dev Withdraw equal amount of initially supplied underlying assets\n     * @param redeemTo Destination address to send the redeemed tokens to\n     * @param redeemAmount The number of rTokens to redeem into underlying\n     */\n    function redeemInternal(address redeemTo, uint256 redeemAmount) internal {\n        Account storage account = accounts[msg.sender];\n        require(redeemAmount > 0, \"Redeem amount cannot be zero\");\n        require(\n            redeemAmount <= account.rAmount,\n            \"Not enough balance to redeem\"\n        );\n\n        redeemAndRecollectLoans(msg.sender, redeemAmount);\n\n        // update Account r balances and global statistics\n        account.rAmount = account.rAmount.sub(redeemAmount);\n        totalSupply = totalSupply.sub(redeemAmount);\n\n        // transfer the token back\n        require(token.transfer(redeemTo, redeemAmount), \"token transfer failed\");\n\n        emit Transfer(msg.sender, address(0), redeemAmount);\n    }\n\n    /**\n     * @dev Create a new Hat\n     * @param recipients List of beneficial recipients\n*    * @param proportions Relative proportions of benefits received by the recipients\n     */\n    function createHatInternal(\n        address[] memory recipients,\n        uint32[] memory proportions\n    ) internal returns (uint256 hatID) {\n        uint256 i;\n\n        require(recipients.length > 0, \"Invalid hat: at least one recipient\");\n        require(recipients.length <= MAX_NUM_HAT_RECIPIENTS, \"Invalild hat: maximum number of recipients reached\");\n        require(\n            recipients.length == proportions.length,\n            \"Invalid hat: length not matching\"\n        );\n\n        // normalize the proportions\n        // safemath is not used here, because:\n        // proportions are uint32, there is no overflow concern\n        uint256 totalProportions = 0;\n        for (i = 0; i < recipients.length; ++i) {\n            require(\n                proportions[i] > 0,\n                \"Invalid hat: proportion should be larger than 0\"\n            );\n            require(recipients[i] != address(0), \"Invalid hat: recipient should not be 0x0\");\n            // don't panic, no safemath, look above comment\n            totalProportions += uint256(proportions[i]);\n        }\n        for (i = 0; i < proportions.length; ++i) {\n            proportions[i] = uint32(\n                // don't panic, no safemath, look above comment\n                (uint256(proportions[i]) * uint256(PROPORTION_BASE)) /\n                    totalProportions\n            );\n        }\n\n        hatID = hats.push(Hat(recipients, proportions)) - 1;\n        emit HatCreated(hatID);\n    }\n\n    /**\n     * @dev Change the hat for `owner`\n     * @param owner Account owner\n     * @param hatID The id of the Hat\n     */\n    function changeHatInternal(address owner, uint256 hatID) internal {\n        require(hatID == SELF_HAT_ID || hatID < hats.length, \"Invalid hat ID\");\n        Account storage account = accounts[owner];\n        uint256 oldHatID = account.hatID;\n        HatStatsStored storage oldHatStats = hatStats[oldHatID];\n        HatStatsStored storage newHatStats = hatStats[hatID];\n        if (account.rAmount > 0) {\n            uint256 sInternalEstimated = estimateAndRecollectLoans(owner, account.rAmount);\n            account.hatID = hatID;\n            distributeLoans(owner, account.rAmount, sInternalEstimated);\n        } else {\n            account.hatID = hatID;\n        }\n        oldHatStats.useCount -= 1;\n        newHatStats.useCount += 1;\n        emit HatChanged(owner, oldHatID, hatID);\n    }\n\n    /**\n     * @dev Get interest payable of the account\n     */\n    function getInterestPayableOf(Account storage account)\n        internal\n        view\n        returns (uint256)\n    {\n        uint256 rGross = sInternalToR(account.sInternalAmount);\n        if (rGross > (account.lDebt.add(account.rInterest))) {\n            // don't panic, the condition guarantees that safemath is not needed\n            return rGross - account.lDebt - account.rInterest;\n        } else {\n            // no interest accumulated yet or even negative interest rate!?\n            return 0;\n        }\n    }\n\n    /**\n     * @dev Distribute the incoming tokens to the recipients as loans.\n     *      The tokens are immediately invested into the saving strategy and\n     *      add to the sAmount of the recipient account.\n     *      Recipient also inherits the owner's hat if it does already have one.\n     * @param owner Owner account address\n     * @param rAmount rToken amount being loaned to the recipients\n     * @param sInternalAmount Amount of saving assets (internal amount) being given to the recipients\n     */\n    function distributeLoans(\n        address owner,\n        uint256 rAmount,\n        uint256 sInternalAmount\n    ) internal {\n        Account storage account = accounts[owner];\n        Hat storage hat = hats[account.hatID == SELF_HAT_ID\n            ? 0\n            : account.hatID];\n        uint256 i;\n        if (hat.recipients.length > 0) {\n            uint256 rLeft = rAmount;\n            uint256 sInternalLeft = sInternalAmount;\n            for (i = 0; i < hat.proportions.length; ++i) {\n                Account storage recipientAccount = accounts[hat.recipients[i]];\n                bool isLastRecipient = i == (hat.proportions.length - 1);\n\n                // calculate the loan amount of the recipient\n                uint256 lDebtRecipient = isLastRecipient\n                    ? rLeft\n                    : (rAmount.mul(hat.proportions[i])) / PROPORTION_BASE;\n                // distribute the loan to the recipient\n                account.lRecipients[hat.recipients[i]] = account.lRecipients[hat.recipients[i]]\n                    .add(lDebtRecipient);\n                recipientAccount.lDebt = recipientAccount.lDebt\n                    .add(lDebtRecipient);\n                // remaining value adjustments\n                rLeft = gentleSub(rLeft, lDebtRecipient);\n\n                // calculate the savings holdings of the recipient\n                uint256 sInternalAmountRecipient = isLastRecipient\n                    ? sInternalLeft\n                    : (sInternalAmount.mul(hat.proportions[i])) / PROPORTION_BASE;\n                recipientAccount.sInternalAmount = recipientAccount.sInternalAmount\n                    .add(sInternalAmountRecipient);\n                // remaining value adjustments\n                sInternalLeft = gentleSub(sInternalLeft, sInternalAmountRecipient);\n\n                _updateLoanStats(owner, hat.recipients[i], account.hatID, true, lDebtRecipient, sInternalAmountRecipient);\n            }\n        } else {\n            // Account uses the zero/self hat, give all interest to the owner\n            account.lDebt = account.lDebt.add(rAmount);\n            account.sInternalAmount = account.sInternalAmount\n                .add(sInternalAmount);\n\n            _updateLoanStats(owner, owner, account.hatID, true, rAmount, sInternalAmount);\n        }\n    }\n\n    /**\n     * @dev Recollect loans from the recipients for further distribution\n     *      without actually redeeming the saving assets\n     * @param owner Owner account address\n     * @param rAmount rToken amount neeeds to be recollected from the recipients\n     *                by giving back estimated amount of saving assets\n     * @return Estimated amount of saving assets (internal) needs to recollected\n     */\n    function estimateAndRecollectLoans(address owner, uint256 rAmount)\n        internal returns (uint256 sInternalEstimated)\n    {\n        // accrue interest so estimate is up to date\n        require(ias.accrueInterest(), \"accrueInterest failed\");\n        sInternalEstimated = rToSInternal(rAmount);\n        recollectLoans(owner, rAmount);\n    }\n\n    /**\n     * @dev Recollect loans from the recipients for further distribution\n     *      by redeeming the saving assets in `rAmount`\n     * @param owner Owner account address\n     * @param rAmount rToken amount neeeds to be recollected from the recipients\n     *                by redeeming equivalent value of the saving assets\n     * @return Amount of saving assets redeemed for rAmount of tokens.\n     */\n    function redeemAndRecollectLoans(address owner, uint256 rAmount)\n        internal\n    {\n        uint256 sOriginalBurned = ias.redeemUnderlying(rAmount);\n        sOriginalToSInternal(sOriginalBurned);\n        recollectLoans(owner, rAmount);\n\n        // update global stats\n        if (savingAssetOrignalAmount > sOriginalBurned) {\n            savingAssetOrignalAmount -= sOriginalBurned;\n        } else {\n            savingAssetOrignalAmount = 0;\n        }\n    }\n\n    /**\n     * @dev Recollect loan from the recipients\n     * @param owner   Owner address\n     * @param rAmount rToken amount of debt to be collected from the recipients\n     */\n    function recollectLoans(\n        address owner,\n        uint256 rAmount\n    ) internal {\n        Account storage account = accounts[owner];\n        Hat storage hat = hats[account.hatID == SELF_HAT_ID\n            ? 0\n            : account.hatID];\n        // interest part of the balance is not debt\n        // hence maximum amount debt to be collected is:\n        uint256 debtToCollect = gentleSub(account.rAmount, account.rInterest);\n        // only a portion of debt needs to be collected\n        if (debtToCollect > rAmount) {\n            debtToCollect = rAmount;\n        }\n        uint256 sInternalToCollect = rToSInternal(debtToCollect);\n        if (hat.recipients.length > 0) {\n            uint256 rLeft = 0;\n            uint256 sInternalLeft = 0;\n            uint256 i;\n            // adjust recipients' debt and savings\n            rLeft = debtToCollect;\n            sInternalLeft = sInternalToCollect;\n            for (i = 0; i < hat.proportions.length; ++i) {\n                Account storage recipientAccount = accounts[hat.recipients[i]];\n                bool isLastRecipient = i == (hat.proportions.length - 1);\n\n                // calulate loans to be collected from the recipient\n                uint256 lDebtRecipient = isLastRecipient\n                    ? rLeft\n                    : (debtToCollect.mul(hat.proportions[i])) / PROPORTION_BASE;\n                recipientAccount.lDebt = gentleSub(\n                    recipientAccount.lDebt,\n                    lDebtRecipient);\n                account.lRecipients[hat.recipients[i]] = gentleSub(\n                    account.lRecipients[hat.recipients[i]],\n                    lDebtRecipient);\n                // loans leftover adjustments\n                rLeft = gentleSub(rLeft, lDebtRecipient);\n\n                // calculate savings to be collected from the recipient\n                uint256 sInternalAmountRecipient = isLastRecipient\n                    ? sInternalLeft\n                    : (sInternalToCollect.mul(hat.proportions[i])) / PROPORTION_BASE;\n                recipientAccount.sInternalAmount = gentleSub(\n                    recipientAccount.sInternalAmount,\n                    sInternalAmountRecipient);\n                // savings leftover adjustments\n                sInternalLeft = gentleSub(sInternalLeft, sInternalAmountRecipient);\n\n                adjustRInterest(recipientAccount);\n\n                _updateLoanStats(owner, hat.recipients[i], account.hatID, false, lDebtRecipient, sInternalAmountRecipient);\n            }\n        } else {\n            // Account uses the zero hat, recollect interests from the owner\n\n            // collect debt from self hat\n            account.lDebt = gentleSub(account.lDebt, debtToCollect);\n\n            // collect savings\n            account.sInternalAmount = gentleSub(account.sInternalAmount, sInternalToCollect);\n\n            adjustRInterest(account);\n\n            _updateLoanStats(owner, owner, account.hatID, false, debtToCollect, sInternalToCollect);\n        }\n\n        // debt-free portion of internal savings needs to be collected too\n        if (rAmount > debtToCollect) {\n            sInternalToCollect = rToSInternal(rAmount - debtToCollect);\n            account.sInternalAmount = gentleSub(account.sInternalAmount, sInternalToCollect);\n            adjustRInterest(account);\n        }\n    }\n\n    /**\n     * @dev pay interest to the owner\n     * @param owner Account owner address\n     */\n    function payInterestInternal(address owner) internal {\n        Account storage account = accounts[owner];\n        AccountStatsStored storage stats = accountStats[owner];\n\n        require(ias.accrueInterest(), \"accrueInterest failed\");\n        uint256 interestAmount = getInterestPayableOf(account);\n\n        if (interestAmount > 0) {\n            stats.cumulativeInterest = stats\n                .cumulativeInterest\n                .add(interestAmount);\n            account.rInterest = account.rInterest.add(interestAmount);\n            account.rAmount = account.rAmount.add(interestAmount);\n            totalSupply = totalSupply.add(interestAmount);\n            emit InterestPaid(owner, interestAmount);\n            emit Transfer(address(0), owner, interestAmount);\n        }\n    }\n\n    function _updateLoanStats(\n        address owner,\n        address recipient,\n        uint256 hatID,\n        bool isDistribution,\n        uint256 redeemableAmount,\n        uint256 sInternalAmount) private {\n        HatStatsStored storage hatStats = hatStats[hatID];\n\n        emit LoansTransferred(owner, recipient, hatID,\n            isDistribution,\n            redeemableAmount,\n            sInternalAmount);\n\n        if (isDistribution) {\n            hatStats.totalLoans = hatStats.totalLoans.add(redeemableAmount);\n            hatStats.totalInternalSavings = hatStats.totalInternalSavings\n                .add(sInternalAmount);\n        } else {\n            hatStats.totalLoans = gentleSub(hatStats.totalLoans, redeemableAmount);\n            hatStats.totalInternalSavings = gentleSub(\n                hatStats.totalInternalSavings,\n                sInternalAmount);\n        }\n    }\n\n    function _isContract(address addr) private view returns (bool) {\n      uint size;\n      assembly { size := extcodesize(addr) }\n      return size > 0;\n    }\n\n    /**\n     * @dev Gently subtract b from a without revert\n     *\n     * Due to the use of integer arithmatic, imprecision may cause a tiny\n     * amount to be off when substracting the otherwise precise proportions.\n     */\n    function gentleSub(uint256 a, uint256 b) private pure returns (uint256) {\n        if (a < b) return 0;\n        else return a - b;\n    }\n\n    /// @dev convert internal savings amount to redeemable amount\n    function sInternalToR(uint256 sInternalAmount)\n        private view\n        returns (uint256 rAmount) {\n        // - rGross is in underlying(redeemable) asset unit\n        // - Both ias.exchangeRateStored and savingAssetConversionRate are scaled by 1e18\n        //   they should cancel out\n        // - Formula:\n        //   savingsOriginalAmount = sInternalAmount / savingAssetConversionRate\n        //   rGross = savingAssetOrignalAmount * ias.exchangeRateStored\n        //   =>\n        return sInternalAmount\n            .mul(ias.exchangeRateStored())\n            .div(savingAssetConversionRate);\n    }\n\n    /// @dev convert redeemable amount to internal savings amount\n    function rToSInternal(uint256 rAmount)\n        private view\n        returns (uint256 sInternalAmount) {\n        return rAmount\n            .mul(savingAssetConversionRate)\n            .div(ias.exchangeRateStored());\n    }\n\n    /// @dev convert original savings amount to redeemable amount\n    function sOriginalToR(uint sOriginalAmount)\n        private view\n        returns (uint256 sInternalAmount) {\n        return sOriginalAmount\n            .mul(ias.exchangeRateStored())\n            .div(ALLOCATION_STRATEGY_EXCHANGE_RATE_SCALE);\n    }\n\n    // @dev convert from original savings amount to internal savings amount\n    function sOriginalToSInternal(uint sOriginalAmount)\n        private view\n        returns (uint256 sInternalAmount) {\n        // savingAssetConversionRate is scaled by 1e18\n        return sOriginalAmount\n            .mul(savingAssetConversionRate)\n            .div(ALLOCATION_STRATEGY_EXCHANGE_RATE_SCALE);\n    }\n\n    // @dev convert from internal savings amount to original savings amount\n    function sInternalToSOriginal(uint sInternalAmount)\n        private view\n        returns (uint256 sOriginalAmount) {\n        // savingAssetConversionRate is scaled by 1e18\n        return sInternalAmount\n            .mul(ALLOCATION_STRATEGY_EXCHANGE_RATE_SCALE)\n            .div(savingAssetConversionRate);\n    }\n\n    // @dev adjust rInterest value\n    //      if savings are transferred, rInterest should be also adjusted\n    function adjustRInterest(Account storage account) private {\n        uint256 rGross = sInternalToR(account.sInternalAmount);\n        if (account.rInterest > rGross - account.lDebt) {\n            account.rInterest = rGross - account.lDebt;\n        }\n    }\n}\n",
  "sourcePath": "/Users/bendi/Development/endaoment/contracts/RToken.sol",
  "compiler": {
    "name": "solc",
    "version": "0.5.16+commit.9c3226ce.Emscripten.clang"
  },
  "schemaVersion": "3.0.23",
  "updatedAt": "2020-02-16T11:38:49.920Z",
  "devdoc": {
    "methods": {
      "changeAllocationStrategy(address)": {
        "details": "IRToken.changeAllocationStrategy implementation"
      },
      "changeHat(uint256)": {
        "details": "IRToken.changeHat implementation"
      },
      "changeHatFor(address,uint256)": {
        "details": "IRToken.changeHatFor implementation"
      },
      "createHat(address[],uint32[],bool)": {
        "details": "IRToken.createHat implementation"
      },
      "getAccountStats(address)": {
        "details": "IRToken.getAccountStats implementation"
      },
      "getCurrentAllocationStrategy()": {
        "details": "IRToken.changeHatFor implementation"
      },
      "getCurrentSavingStrategy()": {
        "details": "IRToken.getCurrentSavingStrategy implementation"
      },
      "getGlobalStats()": {
        "details": "IRToken.getAccountStats implementation!1"
      },
      "getHatByAddress(address)": {
        "details": "IRToken.getHatByAddress implementation"
      },
      "getHatByID(uint256)": {
        "details": "IRToken.getHatByID implementation"
      },
      "getHatStats(uint256)": {
        "details": "IRToken.getHatStats implementation"
      },
      "getMaximumHatID()": {
        "details": "IRToken.getMaximumHatID implementation"
      },
      "getSavingAssetBalance()": {
        "details": "IRToken.getSavingAssetBalance implementation"
      },
      "interestPayableOf(address)": {
        "details": "IRToken.interestPayableOf implementation"
      },
      "isOwner()": {
        "details": "Returns true if the caller is the current owner."
      },
      "mint(uint256)": {
        "details": "IRToken.mint implementation"
      },
      "mintWithNewHat(uint256,address[],uint32[])": {
        "details": "IRToken.mintWithNewHat implementation"
      },
      "mintWithSelectedHat(uint256,uint256)": {
        "details": "IRToken.mintWithSelectedHat implementation"
      },
      "owner()": {
        "details": "Returns the address of the current owner."
      },
      "payInterest(address)": {
        "details": "IRToken.payInterest implementation"
      },
      "receivedLoanOf(address)": {
        "details": "IRToken.receivedLoanOf implementation"
      },
      "receivedSavingsOf(address)": {
        "details": "IRToken.receivedSavingsOf implementation"
      },
      "redeem(uint256)": {
        "details": "IRToken.redeem implementation     It withdraws equal amount of initially supplied underlying assets"
      },
      "redeemAll()": {
        "details": "IRToken.redeemAll implementation"
      },
      "redeemAndTransfer(address,uint256)": {
        "details": "IRToken.redeemAndTransfer implementation"
      },
      "redeemAndTransferAll(address)": {
        "details": "IRToken.redeemAndTransferAll implementation"
      },
      "renounceOwnership()": {
        "details": "Leaves the contract without owner. It will not be possible to call `onlyOwner` functions anymore. Can only be called by the current owner.     * > Note: Renouncing ownership will leave the contract without an owner, thereby removing any functionality that is only available to the owner."
      },
      "transferAll(address)": {
        "details": "IRToken.transferAll implementation"
      },
      "transferAllFrom(address,address)": {
        "details": "IRToken.transferAllFrom implementation"
      },
      "transferOwnership(address)": {
        "details": "Transfers ownership of the contract to a new account (`newOwner`). Can only be called by the current owner."
      },
      "updateCode(address)": {
        "details": "Update the rToken logic contract code"
      }
    }
  },
  "userdoc": {
    "methods": {
      "allowance(address,address)": {
        "notice": "Returns the remaining number of tokens that `spender` will be allowed to spend on behalf of `owner` through `transferFrom`. This is zero by default.     * This value changes when `approve` or `transferFrom` are called."
      },
      "approve(address,uint256)": {
        "notice": "Sets `amount` as the allowance of `spender` over the caller's tokens.     * Returns a boolean value indicating whether the operation succeeded.     * > Beware that changing an allowance with this method brings the risk that someone may use both the old and the new allowance by unfortunate transaction ordering. One possible solution to mitigate this race condition is to first reduce the spender's allowance to 0 and set the desired value afterwards: https://github.com/ethereum/EIPs/issues/20#issuecomment-263524729     * Emits an `Approval` event."
      },
      "balanceOf(address)": {
        "notice": "Returns the amount of tokens owned by `account`."
      },
      "initialize(address,string,string,uint256)": {
        "notice": "Create rToken linked with cToken at `cToken_`"
      },
      "transfer(address,uint256)": {
        "notice": "Moves `amount` tokens from the caller's account to `dst`.     * Returns a boolean value indicating whether the operation succeeded.     * Emits a `Transfer` event. May also emit `InterestPaid` event."
      },
      "transferFrom(address,address,uint256)": {
        "notice": "Moves `amount` tokens from `sender` to `recipient` using the allowance mechanism. `amount` is then deducted from the caller's allowance.     * Returns a boolean value indicating whether the operation succeeded.     * Emits a `Transfer` event."
      }
    },
    "notice": "RToken an ERC20 token that is 1:1 redeemable to its underlying ERC20 token."
  }
}